:020000040000FA
:10000000000C002045010000A7010000C9610000AC
:10001000D3610000DD610000F1610000E7610000D4
:1000200000000000000000000000000089710000D6
:10003000C3010000000000004D710000CB01000072
:10004000000000000000000000000000CF010000E0
:1000500000000000D30100000000000000000000CC
:10006000D7010000DB010000DF010000E301000018
:1000700000000000E7010000EB010000EF010000BC
:10008000F3010000F7010000000000000000000084
:10009000FB010000FF010000000000000000000064
:1000A0000302000000000000000000000702000042
:1000B0000B0200000F0200001302000017020000F4
:1000C0001B0200001F0200002302000027020000A4
:1000D0002B020000000000002F02000000000000C2
:1000E00033020000000000003702000000000000A2
:1000F0003B020000000000000000000000000000C3
:10010000000000003F0200000000000000000000AE
:1001100000000000000000000000000000000000DF
:10012000000000004302000000000000000000008A
:1001300000000000000000000000000000000000BF
:1001400047020000114C124DAC4209DA2168626886
:10015000A368043BA2BFC858D050FAE70C34F3E7B9
:100160000C4B0D4CA34208DA19685A680020043A77
:10017000A4BF8850FBE70833F4E772B60748084984
:10018000086006F037F905F0E3FF00004C020000BC
:1001900070020000700200009002000000000000E9
:1001A00008ED00E0FEE7FFF7FEBF06F00DB806F031
:1001B00010B806F013B806F01BB806F014B806F035
:1001C000E3BFFFF7FEBF06F0C1BFFFF7FEBFFFF7BB
:1001D000FEBFFFF7FEBFFFF7FEBFFFF7FEBFFFF753
:1001E000FEBFFFF7FEBFFFF7FEBFFFF7FEBFFFF743
:1001F000FEBFFFF7FEBFFFF7FEBFFFF7FEBFFFF733
:10020000FEBFFFF7FEBFFFF7FEBFFFF7FEBFFFF722
:10021000FEBFFFF7FEBFFFF7FEBFFFF7FEBFFFF712
:10022000FEBFFFF7FEBFFFF7FEBFFFF7FEBFFFF702
:10023000FEBFFFF7FEBFFFF7FEBFFFF7FEBFFFF7F2
:10024000FEBFFFF7FEBFFFF7FEBF00BF2036030073
:10025000C0BD002060010000E035030060360020D2
:1002600040000000C0350300201C002020000000DA
:1002700020BF0020281E0000A0360020208700009C
:10028000401C0020201A0000001C00200400000078
:1002A000024B0A460146186800F042B8B4BE00206E
:1002B00008B5074B044613B10021AFF30080054B8E
:1002C0001868836A03B19847204629F05BFB00BF9A
:1002D00000000000E004000070B50D4D00260D4C3C
:1002E000641BA410A64209D10B4D00260B4C29F02B
:1002F0004BFB641BA410A64205D170BD55F8043B0E
:1003000001369847EEE755F8043B01369847F2E787
:1003100018BF002018BF002018BF00201CBF0020FD
:10032000024B0146186800F011B800BFB4BE0020AF
:1003300038B502FB01F5294600F052F8044618B121
:100340002A46002100F01AFB204638BD38B5054684
:10035000002941D051F8043C0C1F002BB8BFE41811
:1003600000F0B0F81D4A136833B963601460284682
:10037000BDE8384000F0ACB8A34208D92068211885
:100380008B4201BF19685B6809182160EDE71A46C6
:100390005B680BB1A342FAD911685018A0420BD187
:1003A00020680144501811608342E0D118685B68EE
:1003B000084453601060DAE702D90C232B60D6E7BB
:1003C000206821188B4202BF19685B6809186360B6
:1003D00008BF21605460CAE738BD00BF38DD002087
:1003E000F8B5CD1C064625F0030508350C2D38BFA1
:1003F0000C25002D01DBA94203D90C23336000201A
:10040000F8BD00F05FF821490A6814469CB9204FF6
:100410003B6823B92146304600F03CF83860294655
:10042000304600F037F8431C23D10C2330463360AC
:1004300000F04EF8E3E723685B1B17D40B2B03D9BE
:1004400023601C44256004E06368A2420CBF0B607B
:100450005360304600F03CF804F10B00231D20F0FF
:100460000700C21A1CBF1B1AA350C9E722466468C2
:10047000CCE7C41C24F00304A042E3D0211A304688
:1004800000F008F80130DDD1CFE700BF38DD0020F3
:1004900034DD002038B50023054D044608462B60A6
:1004A00029F060FA431C02D12B6803B1236038BDE8
:1004B0003CDD0020034613F8012B002AFBD1181A5B
:1004C00001387047014800F009B800BF40DD002046
:1004D000014800F004B800BF40DD002070477047BD
:1004E000B8BE0020009A394B9A420FD1EFF3148323
:1004F0000CB41FB536486946002206F0BDF80FBCA3
:100500000CBC9E460CBC83F3148874470FDFFEE7D7
:10051000009A2E4B9A420FD1EFF314830CB41FB5FF
:100520002C486946002206F0A7F80FBC0CBC9E467A
:100530000CBC83F3148874470FDFFEE70CB4029AF7
:10054000224B9A4212D10CBC9C46EFF314830CB49C
:1005500063461FB520486946002206F08DF80FBC9F
:100560000CBC9E460CBC83F3148874470FDFFEE777
:10057000009A164B9A4210D1EFF314830CB46346E1
:100580001FB516486946002206F076F80FBC0CBC71
:100590009E460CBC83F3148874470FDFFEE7009A75
:1005A0000A4B9A420FD1EFF314830CB41FB50C48D9
:1005B0006946002206F060F80FBC0CBC9E460CBCDD
:1005C00083F3148874470FDFFEE70000A5EDF5FE06
:1005D000CD660000D366000001670000E9680000F6
:1005E0008D690000431810B501D21F2A01D90020DF
:1005F00010BD013902F014030144102B80EA0104FC
:100600003CD009DC8BB1042BF1D11F2C40E840F326
:1006100015D941E840F10EE0142BE8D11F2C40E839
:10062000C0F30CD941E8C0F105E01F2C40E800F30D
:1006300005D941E800F11C460B468C42D7D122F087
:100640001402013A0A2AD2D801A151F822F000BFBF
:100650009F060000990600008B060000EF050000D1
:10066000EF050000EF050000EF050000A506000003
:100670009F060000930600008B0600001F2C40E838
:1006800080F3DCD941E880F1D5E713F4001FAFD146
:10069000ADE713F4801FFAE75B02A9D5A7E713F4CF
:1006A000002FF4E713F4802FF1E700BF53B94AB9E4
:1006B000002908BF00281CBF4FF0FF314FF0FF306A
:1006C00000F05AB9ADF1080C6DE904CE00F006F85F
:1006D000DDF804E0DDE9022304B070472DE9F047BE
:1006E00086468C460846089E154674461946002BD9
:1006F00040F0C1808542B2FA82F245D94AB1C2F1D6
:10070000200300FA02FC954094402EFA03F343EADA
:100710000C0C4FEA154EA8B2230CBCFBFEF80EFBE6
:1007200018CC08FB00F943EA0C43994528D9EB188B
:1007300008F1FF3704D2994502D9A8F102072B44EA
:10074000A3EB0903A4B2B3FBFEFC0EFB1C330CFBB2
:1007500000F044EA0344A04214D92C190CF1FF33F1
:1007600004D2A04202D9ACF102032C44241A43EA79
:1007700007401EB1D440002334607360BDE8F087A9
:100780004746DDE76346F1E792BB431B01214FEA91
:10079000154EAFB2200CB3FBFEFC0EFB1C330CFB62
:1007A00007F840EA0343984561D9EB180CF1FF3094
:1007B00004D2984502D9ACF102002B44A3EB080304
:1007C000A4B2B3FBFEFC0EFB1C330CFB07F744EAA0
:1007D0000344A7424DD92C190CF1FF3304D2A74290
:1007E00002D9ACF102032C44E41B43EA0040C0E709
:1007F000C2F120039540944020FA03F12EFA03F34E
:100800004FEA154E9040AFB20343B1FBFEFC0EFB26
:100810001C10190C0CFB07F841EA0041884522D94D
:1008200069180CF1FF3004D2884502D9ACF10200FE
:100830002944A1EB08019BB2B1FBFEFC0EFB1C118D
:100840000CFB07F743EA01439F420ED9EB180CF16A
:10085000FF3104D29F4202D9ACF102012B44DB1BD1
:1008600041EA004193E76046E3E76146F7E7604607
:10087000A4E76346B8E7834206D916B900210846C3
:100880007CE7C6E900E0F9E7B3FA83F78FB9834262
:1008900001D3724508D8BEEB020460EB03030120CC
:1008A0009C461EB9002169E73846FAE7C6E9004CC4
:1008B000F8E7C7F1200CBB400EFA07F522FA0CF45A
:1008C0002EFA0CF1BA401C4320FA0CF3B8404FEA60
:1008D000144901431FFA84FEB3FBF9F809FB1830F1
:1008E0000B0C08FB0EFA43EA00439A4540D9E31883
:1008F00008F1FF3004D29A4502D9A8F1020023443E
:10090000A3EB0A0389B2B3FBF9F809FB183308FB20
:100910000EFE41EA03418E452CD9611808F1FF33E0
:1009200004D28E4502D9A8F10203214443EA0040D3
:10093000A1EB0E01A0FB02984145CE46434602D3EF
:1009400006D14D4504D20138B9EB020E68EB040321
:10095000002EA7D0B5EB0E0261EB030101FA0CFCEF
:1009600022FA07F3F9404CEA0303C6E9003199E79C
:100970004046C5E74346D9E7704700BF0346F0B598
:10098000C9B252B9940803EB84041344A34211D1B1
:10099000F0BD03F8011B013AF3E79C07F9D14FF0D2
:1009A000013514464D43D618032CEBD9371B3D6057
:1009B000043CF9E704F8011BE8E70346002030B5E2
:1009C000013A00D230BD1D780C78A54202D008B99A
:1009D000281BF5E701330131F2E7034670B54AB150
:1009E00041EA0304E50713D4012A03D941EA0304C9
:1009F000A40713D40024A518032D15D822F003044E
:100A000023440C44002102F00302914212D170BD34
:100A100011F8014B013A03F8014BE0E731F8024BC2
:100A2000023A23F8024BDFE70D1B2E681D1B2E60D8
:100A3000043CE0E70D5DCD540131E6E7814270B53D
:100A40001346044603D3FFF7C8FF204670BD821843
:100A500019444BB142EA0100C5071BD4012B03D94D
:100A600041EA020080071BD400201D18032D1DD869
:100A70006FF00305980868430144024403440020D2
:100A80009842E2D00D1A15F8016C151A05F8016CA0
:100A90000130F5E711F8010D013B02F8010DD8E72F
:100AA00031F8020D023B22F8020DD7E7451855F840
:100AB000046C851845F8046C0438D6E7034600201A
:100AC000884200D170471A5C002AFBD00130F7E75A
:100AD00040DF7047034B1B685A680AB918687047B3
:100AE00001487047001C0020F50A0000FFF7F2FFE4
:100AF000004700002DE9F04F01251E4B8DB0D3F8C3
:100B00000090D9E900329540013D1BB1984708B1EA
:100B100028F076FF4FF0010A4FF00041284628F0F8
:100B20004FFF0026044609F10807002CF4D0D9F83D
:100B30000430B34202D828F063FFEDE70AFA06F862
:100B400014EA080F12D03B680BB928F059FF694628
:100B5000404628F039FF3B686846DDF804B0984706
:100B60000146584628F040FF24EA080401360437BD
:100B7000DBE700BF001C0020F0B51546302299B01D
:100B800007460E460DEB020000211C46FFF7F6FE5D
:100B900004230BAA05923422CDE903430B930123CE
:100BA000CDE906271422019303ABCDE90826009373
:100BB000002103236A4403480A9500F0E5FA19B0BE
:100BC000F0BD00BF0001004010B592B004463022D5
:100BD000002106A8FFF7D2FE0523059305AB0021EF
:100BE00003933423CDE90011049303AA012303489E
:100BF000079400F0C9FA12B010BD00BF0001004018
:100C000070B5342694B007AB05460C463246002139
:100C10001846FFF7B3FE14230693012305AACDE976
:100C2000030600920021019303AA03480995059445
:100C300000F0AAFA14B070BD00010040F0B595B004
:100C400007460E4615460021302208A81C46FFF72D
:100C500095FE0723079307AB03933423CDE90436AE
:100C6000012305AA01930092002103AA04480997D1
:100C7000069500F089FA069B236015B0F0BD00BF11
:100C80000001004030B595B004460D4630220021E9
:100C900008A8FFF773FE0C230793236805AA0B939C
:100CA00007AB03933423CDE90434042306930123D3
:100CB00000920021019303AA02480A9500F064FA09
:100CC00015B030BD0001004070B596B004460E4628
:100CD0001546002130220AA8FFF750FE0D23099384
:100CE000236800210D9309AB05933423CDE9063623
:100CF000042304930123019303AB009305AA022369
:100D000003480895039400F03FFA16B070BD00BF89
:100D100000010040F0B597B004460F46164600218A
:100D200030220AA81D46FFF729FE0E2309932368E7
:100D300000210D9309AB03933423CDE9043404233C
:100D4000CDE906370223019305AB009303AA0123E3
:100D50000348089600F018FA089B2B6017B0F0BD06
:100D6000000100402DE9F0431446302299B080463E
:100D7000DDE920690F460DEB020000211D46FFF75B
:100D8000FDFD2323CDE90D870B933EB9B9F1000F8B
:100D900004D06FF0860019B0BDE8F083229B102DBF
:100DA0000793239BCDF82890CDE90836249B039325
:100DB000259B0493EDD834B122460DF14B03611904
:100DC0008A4215D117950BAB059334230693012363
:100DD000002E019303AB009305AA0CBF022303234B
:100DE0000021064800F0D0F9269B049A1A60D2E749
:100DF00012F8010B03F8010FE2E700BF0001004009
:100E00002DE9F0431446302299B08046DDE920698F
:100E10000F460DEB020000211D46FFF7AFFD242316
:100E2000CDE90D870B933EB9B9F1000F04D06FF0F7
:100E3000860019B0BDE8F083229B102D0793239BF9
:100E4000CDF82890CDE90836249B0393259B049385
:100E5000EDD834B122460DF14B0361198A4215D108
:100E600017950BAB0593342306930123002E0193B2
:100E700003AB009305AA0CBF0223032300210648FD
:100E800000F082F9269B049A1A60D2E712F8010B4F
:100E900003F8010FE2E700BF00010040F0B597B092
:100EA00007460E461546002130220AA81C46FFF7C9
:100EB00065FD3123099309AB05933423CDE906354C
:100EC0001C9B05AA03931D9B0021049301230193FE
:100ED00003AB009305480223CDE90B76089400F09C
:100EE00053F91E9B049A1A6017B0F0BD0001004030
:100EF00010B594B004463022002108A8FFF73EFD4B
:100F00003D230793236805AA0B9307AB0393342370
:100F1000CDE90434042306930123009200210193B8
:100F200003AA024800F030F914B010BD00010040DF
:100F300030B595B004460D463022002108A8FFF7D1
:100F40001DFD35230793236805AA0B9307AB039375
:100F50003423CDE9043404230693012300920021B5
:100F6000019303AA02480A9500F00EF915B030BDAE
:100F700000010040F0B597B004460F461646002128
:100F80002E220DF12A001D46FFF7F8FC38230993A5
:100F9000236800210D9309AB05933423CDE9063670
:100FA000042304930123019303AB009305AA0223B6
:100FB0000448ADF828700895039400F0E5F817B0E0
:100FC000F0BD00BF0001004070B51546302298B05A
:100FD0000C46064600210DEB0200FFF7CFFC3C2338
:100FE0000B93236807AA0F930BAB03933423CDE92C
:100FF00004361423CDE906340423CDE908350A93D9
:10100000022300920021019303AA024800F0BCF8D9
:1010100018B070BD0001004000B58BB0CDE90201F1
:1010200002A904910821CDE905130CAB0893042310
:10103000099300230792CDE9003340F2E9310323FD
:1010400004AA034800F0A0F80BB05DF804FB00BF51
:101050000201004010B58CB0039204AA0892082245
:10106000099203AA0A9204220F9C0B920E9ACDE9D0
:101070000401CDE9062374B10123019306AB00936B
:1010800040F2EA310223054808AA00F07DF8079BE8
:1010900023600CB010BD6FF08600FAE7020100403B
:1010A00000B589B002AB04930823CDE905320C23C7
:1010B0000793012306AACDE90201009240F2EB3129
:1010C000019304AA024800F05FF809B05DF804FB40
:1010D000020100407FB502AB04930823059300236F
:1010E000CDE90201CDE900334FF47B71012304AA5D
:1010F000024800F049F807B05DF804FB0201004027
:1011000030B587B003AB0493042303900121422040
:10111000059328F07DFC051E02DC012007B030BDE0
:10112000002340F2F331CDE9003304AA012300F09B
:101130002BF80446284628F06FFC002CEDDB2046F7
:10114000ECE730B589B003AB049304230390079117
:1011500042200121CDE9053228F05AFC051E02DCAF
:10116000012009B030BD012306AA40F2F2310193FB
:10117000009204AA00F008F80446284628F04CFC27
:10118000002CEDDB2046ECE770B401F50046B6F527
:10119000803F1D46DDE903340AD245EA0406FF2EEE
:1011A00006D844EA052444EA014170BC28F004BC96
:1011B0006FF0800070BC704700000000000000006D
:1011C00001015F5F030100001F0100001514000012
:1011D00000200000000000000100000001000000ED
:1011E0000000000000000000E88200200000000075
:1011F00070000000709A02008000000000070000EC
:1012000001000000411400000100000001015F5FC7
:10121000050100001F01000049300000800A0000A5
:1012200000000000010000000100000000000000BC
:101230000000000068A50020000000008000000001
:101240007B9A02002000000003070000010000005C
:10125000C52F00000100000001015F5F00010000D8
:101260001F000000A954000000080000000000005A
:10127000030000000100000000000000000000006A
:10128000602E0020000000008000000070000000C0
:1012900042000000939A0200600000000107000075
:1012A00001000000815300000100000001015F5FA8
:1012B000010100001F010000533B000080060000F8
:1012C000000000000000000001000000000000001D
:1012D0000000000038B2002000000000B19A0200B7
:1012E000700000000207000001000000593B0000F0
:1012F0000100000000015F5F040100001F03000007
:10130000795100000005000000000000000000000E
:10131000030000000000000000000000B8B800203A
:1013200000000000D69A0200400000000005000006
:10133000010000000000000010000000F39A02000D
:101340004100000000050000010000000000000056
:1013500020000000099B0200420000000004000081
:1013600001000000000000004000000000015F5F7D
:1013700000000000FE0300000573000000040000F0
:10138000000000000000000000000000000000005D
:1013900000000000C0C100200000000001015F5FEC
:1013A00001000000FF03000039730000000100008D
:1013B000000000000000000000000000000000002D
:0C13C00000000000C0C50020000000007C
:1013E00038B500250648294600F58054D4F8002475
:1013F000C4F80454FFF7C2FAC4F8005438BD00BF63
:1014000020570020024BD3F80434036000207047BB
:101410002067002008B500F0D7F868B914F01DFE69
:1014200040B94FF40251054806F030FDBDE80840D0
:101430000AF08EBA6FF0830008BD00BFA03600200E
:101440002DE9F04F05680446A1B0002D40F0B380AF
:101450002022294603A8FFF791FA0DF14C0820221B
:1014600029460BA8FFF78AFA342229464046FFF79F
:1014700085FAE36904F11C0216463BB304273423C2
:1014800042460021606828F0A3FA342827D1139B34
:10149000402B24D80125DFF82C91CDE903800DF1F4
:1014A0000C0A04F1100B09F58058BD42D8F800145D
:1014B0001BD1E26A04F12C03002A3FD004250DF170
:1014C0002C0A5346002006EB850E4BE0032352F80E
:1014D000041D1F46013B0029D1D1002BF7D16FF02D
:1014E0008306304621B0BDE8F08F5BF8043FC1F5BC
:1014F000A052D81C20F00300904204D9FFF770FFDF
:101500006FF08C06EDE7084401EB0902C8F800040F
:1015100029466068019228F05BFA019ACAF80C002B
:1015200001354AF8082FC0E7002DC8D053F8040D44
:101530002A46013D0028F7D01546C0E70325F5E708
:1015400056F804CFC1F5A05B0CF1030222F00302B0
:101550005A4503F1080320D809EB010043E9020CC6
:10156000012011447645EBD110B1144BC3F800149F
:10157000A368139AC8F80434114B394653F8226013
:1015800003A82B460BAAB04700270646BD420AF126
:10159000080A08D1FFF724FFA3E70028AED0074BC5
:1015A000C3F80014AAE739465AE90223606828F014
:1015B00017FA0137EAE76FF0850692E72067002007
:1015C000CC5100002057002008B54FF4BE52002136
:1015D0000248FFF7D3F9002008BD00BF286B0020A8
:1015E0000023F7B5074601A80E4615460193FFF7FD
:1015F00009FFC8B93368F3B905B34FF43E7C114A0B
:101600002B600CFB03F411599E46013371B94FF066
:10161000010E02EB040C42F804E00199103414446A
:10162000CCE9011733602C6003B0F0BD082BE8D182
:101630006FF08400F8E76FF08800F5E76FF0860040
:10164000F2E700BF286B00200023F7B505680646C7
:1016500001A80193FFF7D6FE044620BB013D072DEC
:1016600024D84FF43E736B43124FF958FA180129EE
:101670001CD150680199884218D11033F81893682A
:101680000021013B042B96BF0B4A224632F813205F
:10169000FFF774F94FF43E735D4300237A19C2E9F2
:1016A00001337B513360204603B0F0BD6FF08604F8
:1016B000F9E700BF286B0020D05200000023F7B5E7
:1016C000064601A80C4615460193FFF79BFEA8B9F4
:1016D0002368013B072B13D84FF43E714B430B4A51
:1016E000D758D118012F0BD18F68B74208D14E6857
:1016F00001998E4204D1103313442B6003B0F0BD26
:1017000000236FF088002360F8E700BF286B0020FB
:101710002DE9F341154600220129044601920846AD
:1017200024D1013B012B21D86368342B1ED16B6877
:10173000042B1BD1D5E9027823682E681B6931463A
:10174000336001AAFFF7BAFF044658B9424639464A
:10175000019805F10C0309F06FFE044610B1304604
:10176000FFF772FF204602B0BDE8F0816FF0800401
:10177000F8E7F7B50446184600230139012901931B
:1017800020D801281ED16368342B1BD15368042B49
:1017900018D1D4E90267236815681B6929462B60B4
:1017A00001AAFFF78BFF044648B93A463146019833
:1017B00008F074FE044610B12846FFF745FF2046A6
:1017C00003B0F0BD6FF08004F9E72DE9FF41044656
:1017D000184600230129019329D1012827D15368F4
:1017E000042B24D16368342B21D123681568D3E9F5
:1017F00002871B6929462B6001AAFFF7F1FE044608
:1018000088B902AE3146404600F008FC044638B9BB
:1018100096E806003B46019808F028FE044610B101
:101820002846FFF711FF204604B0BDE8F0816FF0B5
:101830008004F8E72DE9FF410446184600230129FA
:10184000019329D1012827D15368042B24D163683F
:10185000342B21D123681568D3E902871B692946F7
:101860002B6001AAFFF7BCFE044688B902AE3146E0
:10187000404600F0D3FB044638B996E806003B46E4
:10188000019808F0FFFD044610B12846FFF7DCFE82
:10189000204604B0BDE8F0816FF08004F8E72DE940
:1018A000FF47154600220139012903922AD8013B3E
:1018B000012B27D84368342B24D16B68042B21D10A
:1018C000D0E90278D5E9029A03682E681B6931468F
:1018D00033600120EA6003AAFFF7F0FE044668B90E
:1018E0000C354B4642463946CDE900A5039808F031
:1018F000F3FD044610B13046FFF7A6FE204604B0C3
:10190000BDE8F0876FF08004F8E72DE9F341154654
:101910000022012904460192084624D1013B012BF3
:1019200021D86368342B1ED16B68042B1BD1D5E9F9
:10193000027823682E681B6931463360EA6001AA89
:10194000FFF7BCFE044650B942463946019805F1FE
:101950000C0308F0DBFD04463046FFF775FE204619
:1019600002B0BDE8F0816FF08004F8E773B50024A1
:1019700001290646019418461FD1012B1DD1736819
:10198000342B1AD15368042B17D1336815681B699F
:1019900029462B6001AAFFF791FE38B9019808F09B
:1019A000AFFC0446284624B1FFF74EFE204602B0A5
:1019B00070BDFFF749FE0446F8E76FF08004F5E7D5
:1019C0002DE9F04701390129144686B01ED8012BB4
:1019D0001CD14368342B19D1D0E90278D2E9009A9E
:1019E000036804AD29469868DE6800F017FB50B91B
:1019F0000434CDE902A4CDE900893B4695E8030013
:101A0000324609F053FD06B0BDE8F0876FF0800064
:101A1000F9E72DE9F04701390129144686B01ED8AF
:101A2000012B1CD14368342B19D1D0E90278D2E9BB
:101A3000009A036804AD29469868DE6800F0EEFA63
:101A400050B90434CDE902A4CDE900893B4695E8BC
:101A50000300324608F076FD06B0BDE8F0876FF06F
:101A60008000F9E773B500240129009422D1012BED
:101A700020D15368042B1DD14368342B1AD101683F
:101A800015680B69CE6801936A4603202B6001A993
:101A9000FFF7A6FD044650B9019B314600982B6024
:101AA00007F008FF044610B12846FFF7CDFD204699
:101AB00002B070BD6FF08004F9E7F7B5002401397A
:101AC0000129019421D8012B1FD14368342B1CD14B
:101AD0005368042B19D1D0E90267036815681B69A4
:101AE000294603202B6001AAFFF7E8FD044648B908
:101AF0003A463146019807F0FDFE044610B12846EB
:101B0000FFF7A2FD204603B0F0BD6FF08004F9E7B7
:101B10002DE9F341154600220129019225D1013B0F
:101B2000012B22D84368342B1FD16B68042B1CD1A6
:101B3000D5E9027803682E681B69314633600320BB
:101B4000EA6001AAFFF7BAFD044650B94246394699
:101B5000019805F10C0307F0E1FE04463046FFF75B
:101B600073FD204602B0BDE8F0816FF08004F8E715
:101B7000F7B5002401390129019420D8012B1ED189
:101B80004368342B1BD15368042B18D1D0E902676A
:101B9000036815681B69294603202B6001AAFFF71B
:101BA0008DFD044640B93A463146019807F0C7FE1C
:101BB00004462846FFF748FD204603B0F0BD6FF00D
:101BC0008004F9E737B500240129019420D1012BC5
:101BD0001ED14368342B1BD15368042B18D10368E2
:101BE00015681B69294603202B6001AAFFF766FDD3
:101BF00038B9019807F053FE0446284624B1FFF790
:101C000023FD204603B030BDFFF71EFD0446F8E774
:101C10006FF08004F5E737B500240129CDE90044D1
:101C200026D1012B24D14368342B21D15368042BB6
:101C30001ED1036815681B696A46294603202B607C
:101C4000FFF73CFD044680B928602946032001AA1D
:101C5000FFF7C6FC044640B9DDE9000107F0E6FEE7
:101C6000044610B12846FFF7EFFC204603B030BD14
:101C70006FF08004F9E773B5013901290546144670
:101C800013D8012B11D84368342B0ED1D5E9021299
:101C900000260368D868D4E9003544F8046FCDE91C
:101CA000005407F07FFE02B070BD6FF08000FAE7CD
:101CB00013B5013902290ED86BB94368342B0AD108
:101CC0004369046800938168D0E90323E06807F062
:101CD0007AFE02B010BD6FF08000FAE72DE9FF41F7
:101CE00000240129019428D1012B26D15368042B0B
:101CF00023D14368342B20D1166803683146D3E9D9
:101D00000287022001AAFFF76BFC044688B902ADE6
:101D10002946404600F082F9044638B995E80600A5
:101D20003B46019807F005FF044610B13046FFF727
:101D30008BFC204604B0BDE8F0816FF08004F8E72A
:101D40002DE9FF410024012901942AD1012B28D13A
:101D50005368042B25D14368342B22D103681568BE
:101D6000D3E902871B69294602202B6001AAFFF7ED
:101D700037FC044688B902AE3146404600F04EF9C1
:101D8000044638B996E806003B46019807F0DDFEA8
:101D9000044610B12846FFF757FC204604B0BDE8C2
:101DA000F0816FF08004F8E7F7B5002401390129CC
:101DB000019421D8012B1FD14368342B1CD15368C7
:101DC000042B19D1036815681B698668C768294602
:101DD00002202B6001AAFFF771FC044648B93A467D
:101DE0003146019807F0BDFE044610B12846FFF7C2
:101DF0002BFC204603B0F0BD6FF08004F9E72DE91D
:101E0000F341154600220129019225D1013B012B06
:101E100022D84368342B1FD16B68042B1CD1D5E921
:101E2000027803682E681B69EA603146022033603D
:101E300001AAFFF743FC044650B9424639460198CF
:101E400005F10C0307F0A1FE04463046FFF7FCFB4A
:101E5000204602B0BDE8F0816FF08004F8E7F7B5E6
:101E6000002401390129019420D8012B1ED1436897
:101E7000342B1BD15368042B18D1D0E902670368B7
:101E800015681B69294602202B6001AAFFF716FC82
:101E9000044640B93A463146019807F03FFF0446F0
:101EA0002846FFF7D1FB204603B0F0BD6FF0800459
:101EB000F9E737B500240129019420D1012B1ED167
:101EC0004368342B1BD15368042B18D10368156861
:101ED0001B69294602202B6001AAFFF7EFFB38B9E6
:101EE000019807F0B5FD0446284624B1FFF7ACFB86
:101EF000204603B030BDFFF7A7FB0446F8E76FF0BC
:101F00008004F5E72DE9F04701390129144686B030
:101F10001ED8012B1CD14368342B19D1D0E902788B
:101F2000D2E9009A036804AD29469868DE6800F09B
:101F300075F850B90434CDE902A4CDE900893B46D7
:101F400095E80300324607F009FF06B0BDE8F087C8
:101F50006FF08000F9E72DE9F0470139022986B0DA
:101F60001CD8DBB94368342B18D1D0E90278D0E90A
:101F7000049A056804AC2146A868EE6800F04EF8A3
:101F800048B9CDE9019ACDF800803B4694E80300BA
:101F9000324607F0F8FE06B0BDE8F0876FF080002B
:101FA000F9E72DE9F0418846164607468AB000B3A6
:101FB000FAB135466C46282200216846FEF7DEFC61
:101FC0000FCC0FC50FCC0FC594E8030085E80300C4
:101FD00000203B8833807B687360FB6833613B691A
:101FE00073617B887380BB68C6E902380AB0BDE8BC
:101FF000F0816FF08000F9E730B561B158B1D0E9F8
:1020000001230468D0E90405C1E903050020C1E902
:1020100000428B6030BD6FF08000FBE7002337B5D6
:10202000054601A80C460193FFF7ECF918B924B155
:10203000019B2560636003B030BD6FF08000FAE75C
:102040002DE9F04F01390229844614468FB02ED86D
:10205000012B2CD84368342B29D1DCE902ABDCE915
:102060000469002105680DF13008D5E902030993E0
:10207000136852682F6B616041460B930A92FFF719
:10208000CDFF88B90B9B0A9ACDE904B3CDE9029A3A
:10209000CDE90076043406920794099A05F12003ED
:1020A00098E8030008F0F8FA0FB0BDE8F08F6FF081
:1020B0008000F9E72DE9F04F0139022984461446E2
:1020C0008FB02ED8012B2CD84368342B29D1DCE9D2
:1020D00002ABDCE90469002105680DF13008D5E99F
:1020E00002030993136852682F6B616041460B939A
:1020F0000A92FFF793FF88B90B9B0A9ACDE904B3C4
:10210000CDE9029ACDE90076043406920794099A43
:1021100005F1200398E8030008F046FB0FB0BDE886
:10212000F08F6FF08000F9E72DE9FF4100240129CD
:1021300000942AD1012B28D14368342B25D1036880
:1021400015681969D3E9028701916A462C60052058
:1021500001A9FFF745FA044698B9019B02AE314642
:1021600040462B60FFF75AFF044638B996E8060050
:102170003B46009808F05CFC044610B12846FFF787
:1021800063FA204604B0BDE8F0816FF08004F8E700
:102190002DE9FF410024012900942AD1012B28D1E7
:1021A0004368342B25D1036815681969D3E9028780
:1021B00001916A462C60052001A9FFF711FA044637
:1021C00098B9019B02AE314640462B60FFF726FFCF
:1021D000044638B996E806003B46009808F034FCFF
:1021E000044610B12846FFF72FFA204604B0BDE898
:1021F000F0816FF08004F8E737B5002401290194DD
:1022000020D1012B1ED14368342B1BD15368042BE2
:1022100018D1036815681B69294605202B6001AA9F
:10222000FFF74CFA38B9019808F046FB04462846F7
:1022300024B1FFF709FA204603B030BDFFF704FAD6
:102240000446F8E76FF08004F5E72DE9F0471546FE
:10225000002286B0012905922FD1023B012B2CD8F8
:102260004368342B29D16B68042B26D1D5E9047837
:10227000D5E9029A03682E681B6931463360052050
:10228000EA606A6105AAFFF719FA044688B905F100
:102290000C03CDE901A3424639460598CDF80090DC
:1022A00005F1140308F086FC044610B93046FFF728
:1022B000CBF9204606B0BDE8F0876FF08004F8E760
:1022C0002DE9F341154600220129019225D1022B67
:1022D00023D14368342B20D16B68042B1DD1D5E961
:1022E000027803682E681B69314633600520EA6076
:1022F00001AAFFF7E3F9044658B942463946019866
:1023000005F10C0309F07EF9044610B13046FFF7E1
:102310009BF9204602B0BDE8F0816FF08004F8E739
:10232000F7B5002401390129019421D8012B1FD1CF
:102330004368342B1CD15368042B19D1D0E90267B0
:10234000036815681B69294605202B6001AAFFF761
:10235000B5F9044648B93A463146019808F080FB81
:10236000044610B12846FFF76FF9204603B0F0BDD0
:102370006FF08004F9E7F7B500240129019421D119
:10238000012B1FD14368342B1CD15368042B19D166
:1023900003681568D3E906671B69294605202B6089
:1023A00001AAFFF78BF9044648B93A46314601982D
:1023B00008F078FB044610B12846FFF745F920469F
:1023C00003B0F0BD6FF08004F9E72DE9FF47154633
:1023D000002201390129039229D8013B012B26D87B
:1023E0004368342B23D16B68042B20D1D0E90278C9
:1023F000D5E9029A03682E681B69314605203360CF
:1024000003AAFFF75BF9044668B90C354B46424610
:102410003946CDE900A5039808F09AFB044610B1AF
:102420003046FFF711F9204604B0BDE8F0876FF0A1
:102430008004F8E7F7B5002401390129019421D877
:10244000012B1FD14368342B1CD15368042B19D1A5
:10245000D0E90267036815681B69294605202B60CF
:1024600001AAFFF72BF9044648B93A4631460198CC
:1024700008F044FB044610B12846FFF7E5F8204673
:1024800003B0F0BD6FF08004F9E72DE9FF47154672
:1024900000220229039228D1013B012B25D8436851
:1024A000342B22D16B68042B1FD1D0E9029AD5E9D5
:1024B000027803682E681B6931460520336003AA41
:1024C000FFF7FCF8044660B942463946CDE9009A68
:1024D000039805F10C0308F0AAFB04463046FFF709
:1024E000B3F8204604B0BDE8F0876FF08004F8E749
:1024F0002DE9F04701390129144686B01ED8012B79
:102500001CD84368342B19D1D0E90278D2E9009A5B
:10251000036804AD29469868DE68FFF77FFD50B96F
:102520000434CDE902A4CDE900893B4695E80300D7
:10253000324607F0A9FC06B0BDE8F0876FF08000D6
:10254000F9E72DE9F0470139022986B01CD8DBB93B
:102550004368342B18D1D0E90278D0E9049A056891
:1025600004AC2146A868EE68FFF758FD48B9CDE9EC
:10257000019ACDF800803B4694E80300324607F00C
:10258000E3FC06B0BDE8F0876FF08000F9E72DE9C5
:10259000F04701390129144686B01ED8012B1CD8FA
:1025A0004368342B19D1D0E90278D2E9009A036844
:1025B00004AD29469868DE68FFF730FD50B9043451
:1025C000CDE902A4CDE900893B4695E803003246F7
:1025D00007F00EFD06B0BDE8F0876FF08000F9E768
:1025E0002DE9F0470139022986B01CD8DBB94368D0
:1025F000342B18D1D0E90278D0E9049A056804ACEC
:102600002146A868EE68FFF709FD48B9CDE9019AAF
:10261000CDF800803B4694E80300324607F03CFDCD
:1026200006B0BDE8F0876FF08000F9E72DE9F04FC4
:1026300001390229144697B045D8012B43D8436885
:10264000342B40D1D2E900A603680021D3E902B3BC
:1026500007938368D0F8149008932822D0E9037375
:102660000AAD0CA80993FEF789F929465846FFF7E9
:10267000D5FC28BB95E803000CAA06F092FEF8B939
:102680000CA8BDF83080BDF832B009F085F944F2ED
:10269000010228F44053934204D10BF1070BB6EB2F
:1026A000DB0F13D3099B0434CDE90073DDE9072365
:1026B000CDE90464CDE9029A95E8030007F000FD36
:1026C00017B0BDE8F08F6FF08000F9E76FF0890078
:1026D000F6E72DE9F04F0139022914468BB023D8D3
:1026E000012B21D84368342B1ED1D0E90278D0E9E0
:1026F000049AD4E900B6026808ADD3682946906808
:102700000793FFF78BFC60B90434CDE90464CDE98D
:1027100002ABCDE900893B4695E80300079A07F034
:1027200063FD0BB0BDE8F08F6FF08000F9E70000AB
:1027300073B5044600200129019025D1012B23D136
:102740005068042820D16368342B1DD12368166893
:10275000D3E903533146336001AAFEF741FF044633
:1027600020B90B4B01989D4203D10560204602B071
:1027700070BD294608F07BFD05460028F6D030469E
:10278000FEF762FF2C46F1E76FF08004EEE700BF32
:10279000000F00B00129F7B5044626D1022B24D141
:1027A0004368342B21D15368042B1ED1D0680428F0
:1027B0001BD10027236815681B6996680197294675
:1027C0002B6001AAFEF77AFF044618B13760204655
:1027D00003B0F0BD3146019808F092FB0446002892
:1027E000F5D02846FEF730FFF1E76FF08004EEE702
:1027F000012973B5044623D1012B21D14368342B21
:102800001ED1506804281BD115680022236801924C
:102810005E691B6929462B6001AAFEF74FFF04463B
:1028200058B93146019808F074FB044628B110F1FC
:10283000870F02D02846FEF707FF204602B070BD82
:102840006FF08004F9E700002DE9F3470139012911
:1028500053D8012B51D84368342B4ED1D2F8048081
:10286000B8F1040F49D1D0E9029A17680022036831
:1028700000929C881B696A46394640463B60FEF7D9
:102880001DFF054640BB009E1D4B32689A422AD16F
:1028900040F201239C4206D06FF086043846FEF7D2
:1028A000D3FE254618E001A8FEF7ACFD044600283B
:1028B000F4D10AF10404214601201BF0F9FD7062F5
:1028C00070B1424601A9FEF788F8706A524649463F
:1028D0000430FEF782F8B462284602B0BDE8F08703
:1028E0006FF08C04DAE7214653464A46304608F03A
:1028F000DDFC04460028EFD0D0E76FF08005EBE761
:10290000000F00B00129F7B5044622D1022B20D1D7
:102910004368342B1DD1506804281AD1D2E90267CC
:1029200015680022236801921B6929462B6001AAC1
:10293000FEF7C4FE044648B93A463146019808F00D
:10294000F7FA044610B12846FEF77EFE204603B093
:10295000F0BD6FF08004F9E701292DE9FF4104463D
:102960002CD1012B2AD14368342B27D1506804285D
:1029700024D11568002223680192D3F808809F882B
:102980001B6929462B6001AAFEF798FE044688B908
:1029900002AE31464046FFF741FB044650B996E887
:1029A0000C003946019808F08AFC044610B128460C
:1029B000FEF74AFE204604B0BDE8F0816FF08004C7
:1029C000F8E700002DE9F041022990B05AD1022B1E
:1029D00058D14368342B55D1C368142B52D1536856
:1029E000042B4FD1D568042D4CD10021D0F80080A4
:1029F00016688768946806A828220291FDF7BEFF32
:102A0000D8F8103031462846336002AAFEF756FE49
:102A100048BB03A8FEF7F6FC28BB3846039906AA74
:102A2000FFF7BFFAF8B90298184B02689A421DD115
:102A3000BDF81A300733B3F5027F4FEAD3061BD235
:102A4000002300F16C05CDE900561A46D0E90901D2
:102A500013F0DAF998B93246294604AB06A806F015
:102A600007FE049B236010B0BDE8F081014604AA74
:102A700006A808F06BFBF4E76FF08C00F1E76FF04D
:102A80009200EEE76FF08000EDE700BF000F00B0AE
:102A9000012937B5044637D1012B35D14368342B92
:102AA00032D1506804282FD12368002415681B698F
:102AB0002946019401AA2B60FEF700FE014600BBE7
:102AC000019C134B22689A4212D1606A28B1A26A13
:102AD000FDF754FF606A1BF0F1FC4FF43A720021DD
:102AE0002046FDF74BFF2846FEF7AEFD044608E002
:102AF000204608F0C1F804460028F4D02846FEF726
:102B0000A3FD204603B030BD6FF08004F9E700BF9D
:102B1000000F00B02DE9F04701390129044686B0C5
:102B200031D8012B2FD14368342B2CD15068042885
:102B300029D1D4E902781568002223680392D3F8DA
:102B400008909E881B6929462B6003AAFEF7B6FDF4
:102B50000446A0B90DF1100A51464846FFF75EFA47
:102B6000044660B9CDE9007831469AE80C00039834
:102B700008F0D8FB044610B12846FEF765FD204654
:102B800006B0BDE8F0876FF08004F8E72DE9F04764
:102B900001390129144686B01ED8012B1CD8436880
:102BA000342B19D1D0E9027AD2E90089036804AD47
:102BB00029469868DE68FFF731FA50B90434CDE948
:102BC0000294CDE900A83B4695E80600304608F09F
:102BD00074FD06B0BDE8F0876FF08000F9E7F0B54E
:102BE000023901298FB029D8012B27D14368342B12
:102BF00024D1C368142B21D15368042B1ED1D0E9F2
:102C00000456876814680021282204A8FDF7B6FE40
:102C1000002301A80193FEF7F5FB68B93846019936
:102C200004AAFFF7BEF938B902AB3246294604A818
:102C300006F01EFD029B23600FB0F0BD6FF0800018
:102C4000FAE730B5022985B020D1012B1ED14368A7
:102C5000342B1BD1C368042B18D15368042B15D116
:102C6000836801A81D68002314680193FEF7CAFB5E
:102C700050B9019B0295039302AA92E8030009F060
:102C800028FA08B9029B236005B030BD6FF08000C0
:102C9000FAE701291FB514D19BB94268342A10D133
:102CA000026801A894680193FEF7ACFB38B9019B58
:102CB0000294039304AB13E9030009F02BFA04B068
:102CC00010BD6FF08000FAE701291FB514D19BB940
:102CD0004268342A10D1026801A894680193FEF773
:102CE00091FB38B9019B0294039304AB13E90300F1
:102CF00006F02CFB04B010BD6FF08000FAE730B591
:102D000001298FB024D1012B22D14368342B1FD14C
:102D10005368142B1CD1036814680021282204A8CE
:102D20009D68FDF72BFE002301A80193FEF76AFBC7
:102D300060B9019B2846194604AA0295039306F040
:102D400030FB18B9214604A8FFF756F90FB030BD83
:102D50006FF08000FAE710B501298CB020D1012B6B
:102D60001ED14368342B1BD15368142B18D114681F
:102D70000021282202A8FDF701FE01A8FEF742FB70
:102D800060B92046019902AAFFF70BF930B902A8F1
:102D900008F002FE214602A8FFF72EF90CB010BD84
:102DA0006FF08000FAE7F0B50129144687B01CD116
:102DB000012B1AD84368342B17D1D2E90056036887
:102DC00003A89F6800230393FEF71CFB58B9039BDD
:102DD000043405930497009406A9334611E90300CF
:102DE0002A4606F094FB07B0F0BD6FF08000FAE7CA
:102DF000F0B50129144687B01CD1012B1AD84368BD
:102E0000342B17D1D2E90056036803A89F6800232A
:102E10000393FEF7F7FA58B9039B0434059304971C
:102E2000009406A9334611E903002A4606F0E0FBA8
:102E300007B0F0BD6FF08000FAE701291FB514D18B
:102E40009BB94268342A10D1026801A894680193A2
:102E5000FEF7D8FA38B9019B0294039304AB13E947
:102E6000030009F078F904B010BD6FF08000FAE7B4
:102E700070B5022990B02DD1012B2BD14368342B92
:102E800028D15368042B25D1C368142B22D10368A1
:102E9000146886682822002106A89D68FDF76EFD4B
:102EA000002301A80193FEF7ADFA88B930460199D5
:102EB00006AAFFF776F858B9019B284605930599AD
:102EC00002AB06AA049506F042FC08B9029B2360F7
:102ED00010B070BD6FF08000FAE730B502298FB0F6
:102EE00026D1012B24D14368342B21D1C368142B64
:102EF0001ED15368042B1BD1146885682822002139
:102F000004A8FDF73BFD002301A80193FEF77AFA20
:102F100060B92846019904AAFFF743F830B902A91D
:102F200004A808F044FC08B9029B23600FB030BD30
:102F30006FF08000FAE7012908D1012B06D8436819
:102F4000342B03D1D2E9000108F05ABA6FF08000A7
:102F50007047000030B50469ADF5297D04AA14A9B5
:102F6000402C0546CDE90024036A029121D8B3F52F
:102F7000147F28BF4FF4147381680393104B40688B
:102F800019602346002126F023FD844214D1012339
:102F90006846194602AA00F015FA044628B9DDE988
:102FA00002230146686826F01BFD20460DF5297DA9
:102FB00030BD6FF08604F8E76FF08304F5E700BFDB
:102FC000E8A2002040F2E93230B50368044693429B
:102FD00087B008D040F2EA32934209D06FF08505FD
:102FE000284607B030BD07B0BDE83040FFF7B2BF9C
:102FF000026901AB0493036A042ACDF808D0039256
:10300000059302D06FF08605EAE7042BFAD18168B8
:103010000C4A406811606A46002126F0D9FC042859
:10302000F0D1012304AA194602A800F0F5F90546DB
:103030000028D5D1DDE904230146606826F0D0FCE4
:10304000CEE700BFE8A2002000F0A8B92DE9F743C1
:103050001A4C884666881968074691461D462644DC
:1030600051B104220DEB0200FDF7B7FCBDF80630AC
:103070002C6804331C4400E00434A64201D800202C
:1030800015E0042221460DEB0200FDF7A6FCBDF879
:103090000430C3F38512BA420CD1012003F03F0380
:1030A00088F80030BDF806302C60A9F8003003B075
:1030B000BDE8F083BDF806300433DBE7ECA2002066
:1030C00000232DE9F34105460E46144642F2160848
:1030D0000B4F13603B8843450FD1234632460020F7
:1030E0000DF10701FFF7B2FF012803D19DF807306A
:1030F000AB42EFD102B0BDE8F0814FF0FF30F9E70D
:10310000ECA200202DE9F047CCB006460D4617464C
:1031100000F0AEF9044668B90246014600956FF02A
:10312000060312A800F042FA054630B1012800F06B
:103130001181052400F0E4F911E132468B4912A80F
:1031400000F0AAFA284607AA06A9CDE9085507956E
:10315000FFF7B6FF012840F0D780079B04330893A0
:10316000BDF81830824908AA12A8099300F094FA11
:103170000AA800F0DDF904460028DBD17D4912A839
:103180000AAA00F089FA20230AA907A8079312F0D7
:1031900035FD002840F0E7800AAB0893079B76498D
:1031A00008AA12A8099300F077FA0AA800F0C2FC56
:1031B00004460028BED10A9B70491A46039312A800
:1031C000DB1700F05AFA02200AAA06A90A94FFF7B0
:1031D00077FF012840F0AB80BDF818200A9B022A37
:1031E00003F1040100F09980042A00F09C80012A78
:1031F0009FD11B790893089A0023614912A800F017
:103200003CFA12A800F038FA4FF00008064642F2E5
:10321000160ADFF88491B9F80030CDF820805345C4
:1032200040F0A18008AB284607AA06A9FFF70EFFC9
:10323000431C00F09880012818D10134012C09D1D9
:1032400030464FF0FF334F4A26F08BFA04213046C8
:1032500026F0BEFA089ABDF81C100432CDE90A2106
:103260000AAB09210CCB304626F08CFA0135EDB2C1
:10327000072DD0D1002C5ED000220421304626F04C
:10328000C6FA20250AAC214607A8079512F076FC5D
:1032900000287FF44EAF079B0DEB05023A4912A8B8
:1032A0000993089400F00CFA214607A8079512F03C
:1032B0007DFC054600287FF43CAF079B334908AAF4
:1032C00012A80993089400F0FBF91223012007AA21
:1032D0000DF11601CDE9085506930795FFF7F0FEAD
:1032E00001282FD1079B04330893BDF816302849D5
:1032F00012A808AA099300F0E3F9394612A800F0D1
:1033000092F948B3012812E720200AA912F066FCBE
:1033100048BB0AAB0893202324E707A8FDF75DFB11
:10332000BDF81C3066E708A8FDF757FB63E712F00D
:103330000FFC024660E701220023164912A800F0A4
:103340009CF99EE7214606A812F070FC58B9069B2E
:103350000894CCE70224EDE600F0D2F804462046BB
:103360004CB0BDE8F0870324E4E600BF00DBFEFFBD
:1033700004DBFEFFFFDAFEFF05DBFEFF07DBFEFFDF
:1033800006DBFEFF02DBFEFFFEDAFEFF08DBFEFFD0
:1033900003DBFEFF01DBFEFFECA2002008B54FF4CB
:1033A00000720649012000F0CDFB042896BF044BB3
:1033B0006FF0830033F9100008BD00BFECA20020BD
:1033C000DA52000010B51446036886B01268009304
:1033D0004368029223F0100162682029019303924E
:1033E00001D0402B14D19AB1684604AA02A9FFF774
:1033F00089FE40B9049B2360059B6360054B33F94C
:10340000100006B010BD0428F8D96FF08300F8E76B
:103410000420F3E7DA520000002110B5036886B0FB
:103420001B680291CDE900136FF0004114685268E7
:103430000391032A17D923F01002202A01D0402B30
:1034400011D1684604AA02A9FFF75CFE30B9059BBA
:103450002360064B33F9100006B010BD0428F8D9DC
:103460006FF08300F8E70420F3E700BFDA520000B2
:1034700030B5A7B01822002108A8FDF77FFA002177
:103480001B4D142203A80291FDF778FA2B681BB19B
:103490000524204627B030BD60210DF1070308AA9E
:1034A0000EA812F0CAFC04460028F1D108990029A0
:1034B000EED04FF4A0520F4B03A8CDE906239DF8A0
:1034C0000730099A43F4E243ADF80C3002ABFDF744
:1034D00053FB0028DCD1084B02981A682860002AA8
:1034E000D7D141220549FDF7A9FB0028D1D0CFE76C
:1034F00060A500200906000618A500201CA50020D4
:1035000010B5054C206808B9052010BDFDF75CFB1F
:103510000028F9D12060F8E760A50020034B1B6864
:1035200013B10360002070470520704760A500209C
:1035300073B5184D04462B6813BB174E01933368BF
:1035400013B9032002B070BD144901A8FDF79AFB1E
:103550000028F6D13268124901A8FDF7B5FB002812
:10356000EFD1104E2B462022314601A8FDF7D2FBA9
:103570000028E6D1012306F8013C2B6801332B60BB
:103580002CB1094B002023602B686360DAE705202B
:10359000D8E700BFF0A4002018A500200900000211
:1035A0001CA50020F5A40020F4A400202DE9F3417F
:1035B0000E4604461F4600F1A008C0E92612F60F89
:1035C000482200214046089DFDF7D8F9C4F8C07094
:1035D000C4F8D86001A8FFF7A1FF10BB95E806006A
:1035E000022384F8C830019BC4E93700C4E93430B1
:1035F000204626F0A0F82146404600F075F8054622
:1036000028B103280BD019280CBF0125032505215B
:10361000204626F0DDF8284602B0BDE8F0810425FA
:10362000F5E70E25F7E773B504460D4600220521A0
:1036300026F0EDF8214604F1A00000F0CEF838B1F4
:10364000032815D019280BD00323184602B070BDEB
:103650006E462046314626F018F90128034601D16E
:103660000123F2E730B996E8030085E80300ECE7B0
:103670000423EAE70223E8E7704770B504461646DC
:103680001D460A46CB1726F06CF832462B462046DC
:10369000BDE8704026F065B873B5D2E90065044610
:1036A0000A46CB1726F05DF802212046CDE90065D9
:1036B00002AB13E90C0002B0BDE8704026F062B81E
:1036C00073B5D2E9006504460A46CB1726F049F8DF
:1036D00003212046CDE9006502AB13E90C0002B0DE
:1036E000BDE8704026F04EB82DE9F0410446AAB07E
:1036F000006A0E4600F0E5F800286CD0A36B9A072C
:1037000004D412220023304626F05FF8042130460C
:1037100026F05EF8182304AD1A4621462846276A8B
:103720000193009426F007F80521284626F050F86A
:1037300001220023284626F014F8FB173A462846B3
:1037400026F00FF800220521284626F060F82846CA
:1037500002A926F09AF8074638B10023C4E90633D7
:10376000022738462AB0BDE8F081029B039AA36184
:10377000E261002BF4D0D4E9060185E803000221C0
:1037800095E80C00304625F0FDFFA36BDB0720D445
:10379000D4E90F840521304626F01AF87CB1B8F13F
:1037A000000F0CD004220023304625F0DAFFCDE9CB
:1037B0000484022195E80C00304625F0E3FF3046F2
:1037C0000022052126F023F80221304626F000F8D9
:1037D000C7E71C27C5E70127C3E72DE9F041ACB0D7
:1037E0001CAB0C9340230E460D9314AB0E93202379
:1037F00010AD04462A46022130460F9326F007F802
:10380000B37B0BB101233374337C012B55D0002BD8
:1038100055D13268D4F820C0FAB90BAB0293D4E981
:103820000C018DE803000A926046D4E90A2300F0F7
:103830000DF90546DDE90A0112AB83E80300022118
:103840000CCB304625F09EFF00220421304625F0A7
:10385000DEFF28462CB0BDE8F0810DF1200802AF54
:10386000CDF81080DDE90E0187E8030095E803003C
:103870008DE803006046D4E9061200F029F80546F9
:103880000028E6D1A36BDB07D4D4DDE90C010AAB39
:10389000069304AB83E8030098E8030087E803007D
:1038A000D4E90C018DE80300206AD4E90A2300F072
:1038B000A9F80028BED00546CBE71925C9E7182589
:1038C000C7E7C31D0CBF6FF00F000020704700005A
:1038D000F0B5BDB01E460AAB6D460293302385E8B5
:1038E0000600384C1A460299074616A8039325F09D
:1038F00022FF042116A825F06BFF2046FCF7DAFD15
:10390000CDE9084008AC032194E80C0016A825F086
:1039100039FF95E80300002584E80300022194E8BC
:103920000C0016A825F02EFFCDE90855022194E8D9
:103930000C0016A825F026FF002E35D1CDE908662B
:10394000022194E80C0016A825F01CFF0125042193
:1039500016A8002225F05BFF04A916A825F095FF04
:1039600070BB07370CBF6FF00F01002106A800F0F5
:1039700099F8B8B9059B5B1B34BF03460498CDE9A1
:10398000080306A894E8060000F0AAF842AB93E802
:10399000060006A800F0A4F8DDE94523449906A82E
:1039A00000F0ABF83DB0F0BD42AB93E8030084E813
:1039B00003000B2194E80C0016A825F0E3FEC6E7EF
:1039C0001520EFE7E452000010F18D0F13D010F135
:1039D0008C0F09DA10F1970F0FD010F1950F08BF77
:1039E0000D2018BF1720704710F1860F07D0002850
:1039F00008BF0020F5E71020704712207047012013
:103A00007047000082B030B587B00AA9073081E85E
:103A10000C00129C16D105AB109D0293119B0A4914
:103A2000CDE90053DDE90E230C98FDF737FAFFF7D7
:103A3000CBFF10B9059B2560636007B0BDE830403F
:103A400002B070470120F8E70906000682B010B501
:103A500086B008A981E80C00114A52F8043B2BB942
:103A6000012006B0BDE8104002B070479842F4D182
:103A70000A9C0021142201A8FCF780FF204601A91E
:103A8000FDF7BEF8FFF7A0FF40B9BDF80620D30848
:103A9000520718BF01330C9A5B0013600020E0E767
:103AA000F052000000234FF6FF7210B503600B4B7D
:103AB000044611F1100F14BF11461946FDF7E2F844
:103AC000606038B110F1860F05D010F18A0F14BF75
:103AD0000420052010BD0320FCE700BF0900000200
:103AE00013B502AB03E90600436804461BB911B1E4
:103AF000FDF7EAF8606002B010BD73B502AD05E9EC
:103B000006001D46436804462BB92B1D0E46FDF7E3
:103B100001F960602E60606838B110F1860F06D040
:103B200010F18A0F14BF0420052002B070BD0320DD
:103B3000FBE70000024B1B6803600020704700BFDA
:103B4000E8A2002008B5FCF7C3FF003818BF012029
:103B500008BD00F0B9B800006FF47A72F0B5414BBF
:103B60000446186003688DB01344032B76D8DFE851
:103B700003F0022546650369082B02D06FF080052B
:103B800059E08569042DF9D146690021406808AAE9
:103B900025F01EFF0828F1D12B460221606806AAF5
:103BA00025F016FF0428E9D1069BCDE90063DDE985
:103BB0000823A06800F00AF905463CE00369082BD9
:103BC000DCD14569042DD9D1066A0021406808AAD4
:103BD00025F0FEFE0828D1D12B460121606805AAF8
:103BE00025F0F6FE0428C9D106ABCDE90163059B9B
:103BF0000093A068DDE9082300F044F9DCE70369DD
:103C0000082BBBD1076A0C2FB8D10021406806AA47
:103C100025F0DEFE0828B1D1DDE9062308AE0096C6
:103C2000A06800F083F9054628B901463B463246B4
:103C3000606825F0D5FE28460DB0F0BD0369082B5D
:103C40009CD10021406808AA25F0C2FE082895D121
:103C5000DDE90823A06800F08FF9ADE76FF0850576
:103C6000E9E700BFE8AF00200B46054910B40C6837
:103C70000246012160685DF8044B25F0A9BE00BF33
:103C8000E8AF00200B46054910B40C68024600213D
:103C900060685DF8044B25F0A3BE00BFE8AF0020CC
:103CA0001FB5084CCDE90023039003A90422204648
:103CB000FCF793FE08226946201DFCF78EFE04B037
:103CC00010BD00BF28B0002070B5384B86B09E6A8A
:103CD000B0470369042B03D06FF0800006B070BDBD
:103CE000B047334C8368A360B047037D68462376B2
:103CF00012F0E6F80028EFD1009BA26863609DF8FF
:103D000008305343019AE360B2FBF3F22282B047DA
:103D10000369042BE0D1B047264D8368AB60B04700
:103D2000037D03A82B7612F0BDF80028D4D1039BA5
:103D3000AA686B609DF8143021465343049A1E48CC
:103D4000B2FBF3F22A821D4AEB6000F050FA002821
:103D5000C4D1194800F07CFAC8B9184A1549184866
:103D600000F045FA0028B9D1154800F071FA002892
:103D7000B4D0144802F0A6FA114800F083FA0028E3
:103D8000ACD10F4806B0BDE8704000F061BA0E48F3
:103D900002F098FA084800F075FA00289ED106480B
:103DA00000F056FA0028D8D098E700BF3818030072
:103DB0007C3600206036002004B000204453000010
:103DC000ECAF00201E530000F85200002DE9F74F21
:103DD00052EA03010446DDE90C5742D0072F43D8CD
:103DE000FFF75EFF224E234B2349B4F5807F08BFC7
:103DF0001E46224C3046224600F046FA28B9A368F7
:103E0000DB0705D56FF0840028E010F18C0F25D179
:103E100047F44037A7600027DFF86480DFF85C9044
:103E2000DFF854A06560B5F5007FAB4628BF4FF4BE
:103E3000007B13485946FFF717FF5B464A46514639
:103E40003046CDE9007800F042FA38B9A368B5EB06
:103E50000B0523F44033A3605F44E4D103B0BDE815
:103E6000F08F6FF08600F9E76FF08500F6E700BF8E
:103E700004B00020ECAF002028B000201CB00020CF
:103E800034B000202DE9F74F52EA030104460C9E9E
:103E9000DDF838903DD0FFF703FF1F4F1F4B20493F
:103EA000B4F5807F08BF1F461E4C3846224600F0FE
:103EB000EBF9054600BB2468B4422AD30D9BA41B32
:103EC0009C4228BF1C46DFF86080DFF854A0C9F888
:103ED0000040B4F5007FA34628BF4FF4007B334673
:103EE0005A4651463846CDF8008000F001FB0546A1
:103EF00030B10023C9F80030284603B0BDE8F08F88
:103F000059464046FFF7BEFEB4EB0B045E44E0D1D9
:103F1000F2E76FF08605EFE704B00020ECAF002079
:103F200028B000201CB0002034B0002070B552EA48
:103F300003010646049C13D0FFF7B2FE0A4D0B485E
:103F40000B4B2A46B6F5807F08BF1846094900F09A
:103F50009BF920B92B68C4E90033AB68A36070BD3E
:103F60006FF08600FBE700BF1CB0002004B000200B
:103F7000ECAF002028B0002052EA030138B5054616
:103F800017D0FFF78DFE0E4C0E4B0F49B5F5807F15
:103F900008BF1C460D4D20462A4600F075F950B961
:103FA000AB68DB0708D42046BDE83840064900F07E
:103FB00090BA6FF0860038BD6FF08400FBE700BF59
:103FC00004B00020ECAF002028B000201CB000207E
:103FD00008B5036800209B689847002818BF6FF059
:103FE000910008BDF8B51D46036804465B680E469F
:103FF000174698470B4BC0F3410013F82020636825
:104000000699E0681D442368B1FBF2F200FB0650FC
:1040100039469B6998470028B4BF6FF09100002093
:10402000F8BD00BF585300000020704770B504462B
:104030000E460025E368AB4201D8002070BD6068E1
:1040400006FB030023682844DB69984710B9A3687E
:104050001D44EFE76FF09100F0E700002DE9F34712
:104060000A9C07469146002C57D0C26840681E182B
:104070003B6802FB01665B689847294BC0F341002F
:1040800013F82080B6FBF8FA08FB0AFA564524D04C
:104090003B68012250465B6901A99847002804DA71
:1040A0006FF0910002B0BDE8F087A6EB0A03E218BA
:1040B000904501AA02EB030104D922464846FCF7C9
:1040C0008CFC08E0A8EB060555442A464846FCF758
:1040D00084FC641B02D10020E4E700253B68A04576
:1040E0005B690DD8B4FBF8FA09EB05015246A81933
:1040F00098470028D4DB08FB0AF2A41AEBD0154439
:104100003B6801225B6901A9701998470028C7DB49
:10411000224601A909EB0500D1E72046C2E700BF0E
:10412000585300002DE9F04F03688BB002AA0446F3
:104130000D46DF6800F00FFC30BB07A800F0F1FE71
:104140000146002850D1DDE9026A202202A8DDF8EC
:104150001490FCF713FC2946204602AA00F034FD17
:1041600090B9834680462368DB8A5B450FD83B467F
:104170004A4631462046CDE900A800F0E9F918B9D1
:1041800056BB204600F0D2FB0BB0BDE8F08FAB452C
:104190001FD05946204602AA00F0DDFB0028F3D1CB
:1041A000029BB3420ED107A800F0BBFE50B9039B9F
:1041B000534507D99F4228BF1F46A3EB090303932A
:1041C000059B98445946204602AA00F0FDFC0028B1
:1041D000DAD10BF1010BC6E7204600F03DFE0028C6
:1041E000CFD06FF08300CFE76FF08B00CCE770B5D6
:1041F0000C461646054640B339B332B3098A012945
:1042000023D9032921D0E38A0229E268A08A4FEA50
:10421000431307D0904218D80C200239083300FB12
:10422000013307E0A2F11401C91A81420DD3904273
:104230000BD81433934208D8182200212846FCF7E3
:104240009DFB0020C5E9004670BD6FF08600FBE7CE
:1042500037B5054600F0A4FD044658B94FF080710B
:10426000284601AA00F0D3FB38B928460199FFF788
:1042700059FF0446204603B030BD10F18C0F18BF23
:104280000446F7E700F0B0BC70B58AB0144601AA46
:1042900006460D4600F09AFB18B16FF08B000AB08D
:1042A00070BD3046019902AA00F055FB0028F6D1F6
:1042B0000C22284607A9FCF780FB0028EDD1059BBE
:1042C0006360049B2360BDF81830A360E7E72DE925
:1042D000F04393B00DF12808154604468946202284
:1042E000002140461E461A9FFCF748FB4FF6FF731D
:1042F000CDE90533AB68B3F1807F04D36FF086005E
:1043000013B0BDE8F083236849465A8A6B6820469B
:10431000013B1344524213406B6005AA00F056FB68
:10432000002840F0908042462046059900F013FB9B
:1043300010B16FF08B00E3E7D5F808C005991CF4C5
:10434000003F06D00D9A6B689A426FD10C90CDF861
:1043500038C006914FF6FF73069A9A427CD12168C5
:104360006B68898A8B42C9D807A9CDE9028106A961
:104370000191A9682046009105998A1A18BF012267
:10438000494600F0C0FB0028BAD1002E6CD120466F
:104390000A9907AA00F077FD002851D106994246F4
:1043A000204600F011FC0146002849D1DDE9055303
:1043B0009D4228BF1D4620462A4600F0DBFC00280F
:1043C0003ED14FF6FF72059B93420FD0069A93425F
:1043D0000CD09A4238BF1A462046691C00F0CAFC2D
:1043E00070BBDDE905539D4238BF1D46236820465A
:1043F000DA8A691C00F0BEFC10BB0A9B002B62D15C
:10440000002E60D0204600F091FA00287FF478AFAB
:104410004FF6FF73059999423FF472AF069B99429C
:104420003FF46EAF2046FFF77DFE69E70E9B4246E4
:1044300043F0807320460E9300F0C6FB002889D01D
:104440006FF083005CE710F18C0F7FF459AFAB681D
:10445000DB037FF56EAF7DE720460A9907AA00F0DF
:10446000F4FA002891D0EBE723685B8A5A1E3A429F
:10447000E6D1751E1D445B421D400C9B9F42DFD858
:104480002A4639460D9800F040FD0028D8D11B9BE4
:104490004246CDE9005320463B4607A900F0CDF83F
:1044A0000028CDD10C9B37440A999F422046079D96
:1044B00088BF0C9700F035FA294607900A9A2046E3
:1044C00000F07FFB63E7204600F0C6FC002899D08F
:1044D000B6E713B501AA044600F078FA28B92046D9
:1044E0000199FFF71FFE02B010BD6FF08B00FAE7D5
:1044F000F0B58DB0164603AA04460F461D4600F0DF
:1045000065FA18B16FF08B000DB0F0BD204603992D
:1045100004AA00F020FA10B16FF08300F4E70C2237
:10452000384609A9FCF749FA0028EBD1324629465A
:10453000069800F0EAFC0028E6D1129B2A46009378
:104540002046334604A900F057F80028DCD0E3E702
:104550002DE9F04786B01646DDE90E8A03AA054626
:104560000F46994600F071FA044668BB059B394630
:1045700033442846059300F0D4F90646BAF1000FFB
:1045800016D1DDE90332424522D33A462846039943
:1045900000F017FB3946284603AA039600F073FC87
:1045A000044600B33A463146284600F00AFB0BE0C9
:1045B000014642462846CDE9009A039B00F0ACFB39
:1045C0000028DED06FF08304204606B0BDE8F087F7
:1045D000A8EB0201CDE900212846314600F09CFB02
:1045E0000028D2D0EEE7002FEED06B683146DB68B2
:1045F000286898470446E7E72DE9FF410D4616462F
:10460000096801AA04461F46DDF8288000F01DFA5B
:1046100070B901994B1C0BD062686B680A9755689A
:104620004246AC462068334404B0BDE8F0416047E0
:104630006FF0830004B0BDE8F0812DE9F347154623
:10464000DDE90AA90F4698461168044600F069F9A9
:104650006B687A689844A8EB0203CDE9002306460C
:1046600001463B68204600F057FB20BB6368CDF84D
:1046700000A0D3F808A04A46434631462068D047F8
:10468000C8B9EB686A68B9681A4423682046DB68D1
:104690005B1A9B1ACDE9002331463B6800F03CFBD6
:1046A00048B92B683BB1314663682068DB6802B0CB
:1046B000BDE8F047184702B0BDE8F08713B50C24F9
:1046C00004FB01F3416800948C6808334169006879
:1046D000A04702B010BD436810B5416904461B698C
:1046E0000068984750B923681A8A022A06D9626876
:1046F000A1681846BDE810401269104710BD008A35
:10470000022814BF03380020704708B5FFF7F7FFF1
:104710000C2300FB033303EB4110083008BD2DE9E7
:10472000F04F002405460F46904626464FF00C09F0
:104730008BB0D5F800A05046FFF7E1FF013086426C
:104740000ED300264FF02009D5F800A0BAF8163095
:104750009E421DD3002088F800400BB0BDE8F08FCA
:1047600009FB06F36A68CDF80090D2F804B0394628
:104770005046083302AAD8470028EED102AB13F8FE
:10478000012B01300C2884EA0204F8D10136D0E76D
:104790006B6831465046D3F804B0FFF7B6FF02AA63
:1047A000034639465046CDF80090D8470028D4D16A
:1047B00002AB13F8012B0130202884EA0204F8D15F
:1047C0000136C1E737B5837B01685A1CD2B28273C8
:1047D000097E04469142416904BF02338373012973
:1047E00000F10D020DD8FFF79AFF40B90822636867
:1047F00000929D6861690346A2182068A84703B02B
:1048000030BD6FF08600FAE713B50C4611462279E9
:104810000346012A09D1036862791B7E9A4214BFBC
:1048200000206FF0830002B010BD022A04D11B6883
:10483000A2791B7E9A4202D16FF08300F3E701292F
:104840000DD80DF10702FFF76AFF0028EBD162795E
:104850009DF807309A4218BF6FF09100E3E76FF0C0
:104860008600E0E70822F0B5436887B000925C68F4
:1048700000236A44054619460068A04702460028FE
:1048800032D000264FF0FF3408226B6800925F6838
:1048900001210023286804AAB84700283AD1012240
:1048A000284604A9FFF7B0FF0346002832D1002EA6
:1048B00035D02A689DF81610127E9DF80E00B2FAC7
:1048C00082F25209914218D1002914BF0223012318
:1048D0001B1A18BF01231C462C61B4FA84F4002073
:1048E00064096C6107B0F0BD284602A9FFF78CFF90
:1048F00004460028C5D10126C6E7904205D100280C
:1049000014BF022201229142E5D188422CBF00232C
:104910000123E0E7002EDFD16FF08300E2E70124FE
:10492000DAE709B9406970478068704710B50446F6
:10493000FFF748FF70B963686169DB6820689847D2
:1049400040B9D4E904232046C4E90432BDE810404C
:10495000FFF7C1BE10BDF7B5066805463046FFF744
:10496000D4FE03462020696800904F6830462969CC
:104970001446B847064640B92868FFF7C0FE2368CA
:104980000130834204D36FF09706304603B0F0BD88
:1049900004F1140000F0C5FA0028F6D12D68E26891
:1049A000AB8A9A42EFD8A3689A42ECD3D4E9003795
:1049B0002BB92846E98AFFF7A8FEB842E3D8394662
:1049C000E86800F0A2FA0028DFD0DCE7F0B5054681
:1049D0000E461746002489B02B68DB8AA34202D812
:1049E0006FF08B000CE06A4621462846FFF7B3FFC4
:1049F00050B90C22314605A8FBF7DFFF10B93C6027
:104A000009B0F0BD0134E7E76FF08300F8E7F0B5D7
:104A100005460E461746002489B02B68DB8AA34260
:104A200002D86FF08B0009E06A4621462846FFF75E
:104A300092FF38B9049B1E4202D03C6009B0F0BD21
:104A40000134EAE76FF08300F8E773B506460C20FF
:104A500000FB01F3716800904C68306831690833DD
:104A60001546A047044630B9336829681A8A91422E
:104A700004D36FF09704204602B070BDD868D5E922
:104A8000011200F042FA04460028F2D12B68012BF3
:104A900003D83068C18AFFF738FE6B688342EAD0DA
:104AA000E7E7F7B50C2606FB01F3416800964F686F
:104AB00008330169054600681446B847034630B913
:104AC0002B6821681A8A914204D36FF09703184625
:104AD00003B0F0BDD868D4E9011200F016FA03461D
:104AE0000028F2D12268012A09D82A681046FFF767
:104AF00006FED18A00FB0666490108318819626802
:104B00008242E4D0E1E72DE9F04F05468B4691461D
:104B10009846002789B0DDE9146A2868FFF7EFFDA1
:104B20000130874202D36FF08D0420E052463946AF
:104B30002846FFF78AFF044680BBDAF80820904534
:104B40002AD82B685946DB6837609B1A73600C22A1
:104B5000C6F80C8006F11400FBF73FFF129BB4600F
:104B60003361DAF80830A3EB0803CAF808300026EE
:104B70002B68DB8A9E4205D26A4631462846FFF7FB
:104B8000EAFE70B14FF6FF766FF08D042046139B5E
:104B90001E6009B0BDE8F08F0137BEE76FF08304F7
:104BA000E5E705A800F0BDF948B1B9F1000F04D060
:104BB000002C18BF6FF08D04E8E74FF001090136B3
:104BC000D6E702B18160704773B505680446284690
:104BD000FFF79BFD03462020616800908E68284601
:104BE0006169B04702B070BD70B58CB00546FFF783
:104BF00039FE002861D16E696B6831461B692868EF
:104C000098470446002878D1B6FA86F16B68286880
:104C10001B6949099847044600286ED12A68012675
:104C2000137EB3FA83F35B09AB73138AC5E90406F9
:104C3000022B14BF02230123AB6002232B73D18A02
:104C40001046FFF762FDD36821461B1A029001AAA5
:104C5000284603930196FFF731FD044600284CD106
:104C600006462B680290DB6803932B681846FFF713
:104C700046FDB04223D8002C4BD12B681846FFF7D5
:104C80003EFDA04228D82022002104A8FBF776FE92
:104C900000242B68DB8AA34232D82846FFF792FD16
:104CA00048BB6B686969DB6828689847044620BB85
:104CB000D5E90423C5E904321FE000269CE7198AE0
:104CC0006A68022914BF0321002118463144126981
:104CD000904701360443C8E71B8A2846022B14BFBD
:104CE0000323002323440134214601AA0193FFF743
:104CF000E5FC0028C1D06FF0830420460CB070BDE5
:104D00002146284604AAFFF75FFF0028F3D10134AB
:104D1000BFE76FF09104F0E72DE9F04F04468846B5
:104D200016469946C3B0DDE94CA51DB9284643B0E7
:104D3000BDE8F08FB5F5807F2F4628BF4FF4807710
:104D400063680097D3F804B049465346206802AA26
:104D5000D8470028EBD163680097D3F808B04146E4
:104D60003346206802AAD8470028E0D13E44BA441E
:104D7000ED1BDAE773B5066804463046FFF7C5FC5D
:104D80001546024629463046FFF7BFFC801ACDE99A
:104D900000202046D4E90431FFF7BEFF02B070BD09
:104DA0002DE9F041436805461B68006886B09847C6
:104DB000044628B92846FFF755FD28B16FF0830453
:104DC000204606B0BDE8F08108266B6805F10807AB
:104DD0000096D3F804803A46234629692868C047DC
:104DE0000028EBD1394628462A69FFF70DFD002837
:104DF000E4D12846FFF76FFC04460028DED12B7B68
:104E0000012B24D1014603AA2846FFF74AFE044697
:104E10000028D5D1059B2A68C3F1FF23D26803F58A
:104E20007F03F8331344CDE90063324628462B69EB
:104E30006969FFF771FF04460028C1D16B7B2846E2
:104E4000AB7302232B73FFF771FD0446B8E7022B07
:104E500018BF6FF08304B3E710B586B0002103AA32
:104E60000446FFF7F2FD60B92068049A059BD1184B
:104E7000C36820465B1ACDE90023D4E90431FFF76B
:104E80004BFF06B010BDF0B504460D4687B009B91A
:104E90004369136029462046FFF710FC0146D0B94C
:104EA000D4E904768DB90C2200212068FFF72DFC8F
:104EB00005FB02220832801ACDE900203B4631462C
:104EC0002046FFF729FF07B0F0BD204603AAFFF7F1
:104ED000BCFD014610B16FF08300F4E7204603AA41
:104EE0000396FFF7EBFB0028F5D1012DDBD00C2357
:104EF00014226B430C3B019331463B462046009203
:104F0000FFF70AFF0028CED0DDE7814206D8401A1D
:104F100090422CBF00206FF0860070476FF0860033
:104F2000704700F10C03984202D16FF08B0070477C
:104F300010F8012B002AF6D00020704708B510F0B9
:104F400097FF002008BD70B500250446A6B03C229E
:104F5000294607A8CDE90255CDE904550695FBF78A
:104F60000DFD3C22294617A81695FBF707FDE269BF
:104F7000019504F11C0312B30426E26A04F12C0328
:104F80004AB30425731E012B53D8012D51D8042395
:104F9000002160680DEB030224F01AFD04281CD0E8
:104FA0006FF08005284626B070BD002EE5D053F87E
:104FB000041D3246013E0029F7D01646DDE70326E0
:104FC000F5E7002DDED053F8041D2A46013D0029E7
:104FD000F7D01546D6E70325F5E7022E15D163690C
:104FE000402BDDD806AE32460121606824F0F0FC8B
:104FF00063699842D4D1CDE9026002A93DB92A463D
:10500000019810F047FF0546CCE70021F6E7236A38
:10501000402BC5D816AACDE90423019804AA10F0A4
:1050200039FFDDE9042305460021606824F0D8FC3F
:10503000B8E70125B6E710B58CB00C46694624F0F8
:10504000C3FC009B002B04DA02330BDA24F0D8FCFB
:105050000CE003D0A3F2F233012BF7D86846A04747
:10506000014600E00021019824F0BEFC0CB010BD08
:10507000002337B58DF80330C369044600F11C01E5
:10508000ABB10422E16A04F12C0329B3042140F2FC
:10509000F230236883423DD040F2F330834202D1A4
:1050A0002369042B1AD00125284603B030BD032301
:1050B00051F8040D1A46013B0028E3D1002BF7D12B
:1050C0001A46DFE70029E2D053F8045D08460139AB
:1050D000002DF7D00146DAE70321F5E7012AE2D1F6
:1050E0000029E0D1606801AA24F072FC23698342A0
:1050F000D9D10198A3680228D5D81B4A52F820209C
:105100009342D0D1002BCED010F06DFF051E18BFFA
:105110000125C9E72369042BC5D1012AC3D101297F
:10512000C1D10021606801AA24F052FC23698342A6
:10513000B9D10198A3680228B5D80B4A52F82020AB
:105140009342B0D1002BAED0216A0DF1030210F0D2
:1051500024FF05460028A6D10146236A60680DF1A8
:10516000030224F03DFC9FE76453000008B510F0F3
:105170007FFE002008BD000070B510F00CFF08B1E4
:1051800024F03EFC0E4C0F4D0F4E4FF000414FF0FF
:10519000FF3024F015FCC10604D531461020FFF77E
:1051A0004AFFF2E7820602D529462020F7E74306A8
:1051B00002D521464020F2E724F022FCE5E700BFBB
:1051C00071500000474F00003D4F0000FF2C0000D1
:1051D000572D0000432C0000932C0000DF2B000013
:1051E000C92C0000A72D0000F12D00003B2E00006F
:1051F000712E0000771C0000B11C0000651A000031
:10520000BB1A0000111B0000711B0000C51B000031
:10521000171C0000051F0000571F0000DD1C0000C8
:10522000411D0000A91D0000FF1D00005F1E0000C1
:10523000B31E0000C1190000131A0000CB170000B4
:105240003518000011170000731700009F180000A8
:105250000B1900006D19000041200000B52000006E
:105260002921000091210000C1220000212300001B
:105270007723000035240000CB2300004B220000E0
:105280008B240000F9210000F124000043250000D8
:105290008F250000E12500002D260000D326000008
:1052A0003127000095270000F12700004928000061
:1052B00059290000152B000005290000C529000010
:1052C000912A00008D2B0000372F0000DB2E0000FC
:1052D00028014802B001E802B001000070FF76FF2B
:1052E0007CFF79FF5369676E6174757265310000E8
:1052F000F9FFFFFF000000004372656174696E678B
:1053000020616E20656D7074792049545320666C5D
:10531000617368206C61796F75742E0D0A00437299
:10532000656174696E6720616E20656D70747920A7
:10533000505320666C617368206C61796F75742EB0
:105340000D0A0000D13F00005D400000E53F000075
:10535000294000002D400000010000000200000074
:105360000400000000010000000100000001000036
:10537000000000000000000000000000000000002D
:105380006FF47A72F0B5474B0446186003688DB02D
:105390001344042B08D8DFE803F00327486777009D
:1053A00003698668082B02D06FF0800559E0856993
:1053B000042DF9D10021406808AA24F009FB08282F
:1053C000F2D12B460221606806AA24F001FB0428D2
:1053D000EAD1069B3046019363690093DDE9082317
:1053E00000F090F805463CE00369082BDCD14569E4
:1053F000042DD9D10021406808AA24F0E9FA082830
:10540000D2D12B460121606805AA24F0E1FA0428D4
:10541000CAD106AB0293236A0193059B0093A0684F
:10542000DDE9082300F084F8DCE70369082BBBD131
:10543000076A0C2FB8D10021406806AA24F0C8FAE8
:105440000828B1D1DDE9062308AE0096A06800F077
:1054500083F8054628B901463B463246606824F089
:10546000BFFA28460DB0F0BD0369082B9CD100217E
:10547000406808AA24F0ACFA082895D1DDE9082391
:10548000A06800F07BF8ADE7056A042D8CD100F030
:1054900088F82B4608900021606808AA24F0A0FA3A
:1054A0000025DEE7401C002000F020B838B5074B8F
:1054B00002461D680C460B466868012124F088FAF4
:1054C000844214BF6FF08000002038BD401C0020D3
:1054D0000B46054910B40C680246002160685DF86F
:1054E000044B24F07DBA00BF401C002008B500F03A
:1054F00067F830B100F08AF918B9BDE8084000F04B
:105500005FB808BD30B4194604461046DDE90223F1
:1055100050EA010505D0072B07D8224630BC00F021
:1055200095B86FF0860030BC70476FF08500FAE7E1
:1055300070B4194604461046DDE9033250EA01060C
:10554000059D05D0CDE90325224670BC00F046B884
:105550006FF0860070BC7047194610B404461046C0
:1055600050EA0102019B04D022465DF8044B00F092
:10557000EBB86FF086005DF8044B7047194652EAAD
:10558000010310B50446104608D0224600F006F983
:1055900010F1950F08BF6FF0830010BD6FF086000B
:1055A000FBE70020704710B5044600F06FFB014692
:1055B00020B92046BDE81040FBF78CBD10BD0000AF
:1055C00010B5044C204600F0FBF9034B403C5C60F6
:1055D00010BD00BF901C0020441C00202DE9F047A6
:1055E000DFF864A01F46534681468846164600F001
:1055F00011FB044600BB134DDAF800002946C5E94B
:105600000898AE6200F076FC044678B92E6BBE4274
:1056100015D3089BF61B9E4228BF1E4605F140008D
:1056200031463844FFF754FF099B1E604FF4046273
:1056300000210448FBF7A2F92046BDE8F0876FF08F
:105640008604F3E7501C0020441C00202DE9F74F8E
:10565000DDF830A08046BAF5006F0F4691469B46B4
:1056600068D8364E334600F0D5FA0446002843D1B8
:10567000334D30682946C5E90887C5F8289000F001
:1056800039FC044670BBAB6BDB0750D40123C5E982
:105690000DABD6F800B051462A480193FFF706FF3C
:1056A0000446F8B9019B264D18462449C5F830A098
:1056B00000F02AFA0446A8B929463068C5E90887E7
:1056C000C5F8289000F072FC044658B94A46404696
:1056D00039461A4B00F04AFA0446E8B10021306816
:1056E000FBF7F8FC4FF4046200211548FBF746F97C
:1056F000204603B0BDE8F08F10F18C0FF2D1104CB2
:105700004FF4046200212046FBF738F9C4E90DABE1
:1057100002234FF0000BBEE7BBF1000F03D100F0F6
:10572000B5FA0446DEE75846FFF73DFFF9E76FF0AC
:105730008404D7E76FF08604DAE700BF441C00203A
:10574000501C0020901C00202DE9F047DFF848A0F5
:105750001E46534681468846174600F05BFA0446CB
:10576000A0B90C4DDAF800002946C5E90898AF62E7
:1057700000F0C0FB044618B92B6B7360AB6BB360D1
:105780004FF4046200210348FBF7F8F82046BDE817
:10579000F08700BF501C0020441C00202DE9F84376
:1057A000DFF86480074643460E46914600F032FA21
:1057B000044600BB134DD8F800002946C5E9087619
:1057C000C5F8289000F096FB044670B9AB6BDB0778
:1057D00014D44A463846314600F032FA044620B91D
:1057E000D8F80000FFF7DFFE04464FF40462002102
:1057F0000448FBF7C3F82046BDE8F8836FF0840443
:10580000F3E700BF501C0020441C002000F0C4B887
:10581000F0B500250A4CD4E912768E4208BF8742C3
:1058200005D1266D964202D100201D60F0BD0135E4
:105830000B2D04F12004EED16FF08B00F6E700BFD2
:1058400090240020002337B5054601A901200193CB
:1058500000F00EFC68B16FF08304204603B030BD49
:10586000012000F010FC04460028F6D1019B013312
:105870000193019BAB42F3D3022001A900F0F8FB96
:1058800004460028E7D1019BAB42E6D2022000F09B
:10589000FAFB18B9019B01330193F4E70446DCE7F6
:1058A00070B551F82060DCB0CB684FF4B472054697
:1058B0000C4601A806F130015B93FBF78EF84FF41C
:1058C000B672304601A900F0F3FA80B1236983B1C2
:1058D0004FF4B672304601A95B9300F0E9FA002854
:1058E0000CBF032301232C4423725CB070BD022340
:1058F000F9E70123F7E70000002070B5DEB0029061
:1059000000F0C1FB044618BB02A900F0B1FB04463D
:10591000F0B910211E4800F0C3F90446C0B91D4D6E
:10592000029E284600F012FA044678B94FF4B47289
:1059300005F1300103A85D96FBF74FF84FF4B672FE
:10594000284603A900F090FA044620B100F0EAF9D5
:1059500020465EB070BD00F0E5F904460028F7D19E
:1059600095F899612B4600904FF4CC720021701C81
:10597000FBF752FB04460028EAD195F898310298CB
:1059800085F8993185F89861FFF75CFF0446DFE7F9
:10599000201C00209024002010B5084C4FF4D07239
:1059A00020460021FAF7EAFF0123A4F8983184F891
:1059B0003030BDE81040FFF79FBF00BF90240020AB
:1059C000002270B54E4E88B002AD04904FF4CC73F7
:1059D00001200021CDE90065CDE906220396ADF84E
:1059E0001420FBF737FB10B101238DF81430049B12
:1059F0000022009302204FF4CC7300210195FBF7A5
:105A000029FB10B101238DF8153010213D4800F01D
:105A100047F9044648BB06A900F02AFB044638BBF8
:105A20002946012000F024FB044608BB022007A9F8
:105A300000F01EFB0446D8B9079A029B9A429DF8D3
:105A4000143018BF0790012B03D0002003A9FFF7E3
:105A500027FF9DF81530012B03D0012003A9FFF784
:105A60001FFF00F05FF9044628B1204608B070BD62
:105A700000F058F9F9E7039B049993F83030012BB3
:105A80001CBF01238DF8143091F83030012B1CBF5E
:105A900001238DF8153040F20113BDF814209A420D
:105AA0002AD09DF81430012B07D14FF4CC72A6F800
:105AB00098311348FAF791FF07E09DF81530022B53
:105AC00018D04FF48073A6F8983196F89901002108
:105AD0000130FBF7FFFA044610B110F18C0FC4D16E
:105AE0000698FFF7AFFE04460028BED1044800F038
:105AF00025F9BAE70123D8E76FF08304B5E700BFC3
