:020000040004F6
:10000000D00E0220BD5C040039540500915C040050
:10001000915C0400915C0400915C0400915C04001C
:100020000000000000000000000000001556040061
:10003000915C04000000000081550400915C040004
:10004000B9560400B9560400B9560400B956040064
:10005000B9560400B9560400B9560400B956040054
:10006000B9560400B9560400B9560400B956040044
:10007000B9560400B9560400B9560400B956040034
:10008000B9560400B9560400B9560400B956040024
:10009000B9560400B9560400B9560400B956040014
:1000A000B9560400B9560400B9560400B956040004
:1000B000B9560400B9560400B9560400B9560400F4
:1000C000B9560400B9560400B9560400B9560400E4
:1000D000B9560400B9560400B9560400B9560400D4
:1000E000B9560400B9560400B9560400B9560400C4
:1000F000B9560400B9560400B9560400B9560400B4
:10010000B9560400B9560400B9560400B9560400A3
:10011000B9560400B9560400B9560400B956040093
:10012000B9560400B9560400B9560400B956040083
:10013000B9560400B9560400B9560400B956040073
:10014000B9560400FFFFFFFF81F0004102E000BF4D
:1001500083F0004330B54FEA41044FEA430594EA87
:10016000050F08BF90EA020F1FBF54EA000C55EAC2
:10017000020C7FEA645C7FEA655C00F0E2804FEA93
:100180005454D4EB5555B8BF6D420CDD2C4480EA75
:10019000020281EA030382EA000083EA010180EAA5
:1001A000020281EA0303362D88BF30BD11F0004FF3
:1001B0004FEA01314FF4801C4CEA113102D0404229
:1001C00061EB410113F0004F4FEA03334CEA133364
:1001D00002D0524263EB430394EA050F00F0A7807C
:1001E000A4F10104D5F1200E0DDB02FA0EFC22FA77
:1001F00005F2801841F1000103FA0EF2801843FA6B
:1002000005F359410EE0A5F120050EF1200E012A5B
:1002100003FA0EFC28BF4CF0020C43FA05F3C01899
:1002200051EBE37101F0004507D54FF0000EDCF112
:10023000000C7EEB00006EEB0101B1F5801F1BD3BB
:10024000B1F5001F0CD349085FEA30004FEA3C0CBF
:1002500004F101044FEA445212F5800F80F09A80B5
:10026000BCF1004F08BF5FEA500C50F1000041EBB9
:10027000045141EA050130BD5FEA4C0C404141EBBD
:100280000101013C28BFB1F5801FE9D291F0000FB8
:1002900004BF01460020B1FA81F308BF2033A3F167
:1002A0000B03B3F120020CDA0C3208DD02F1140C5E
:1002B000C2F10C0201FA0CF021FA02F10CE002F199
:1002C0001402D8BFC2F1200C01FA02F120FA0CFC92
:1002D000DCBF41EA0C019040E41AA2BF01EB0451DB
:1002E000294330BD6FEA04041F3C1CDA0C340EDCD9
:1002F00004F11404C4F1200220FA04F001FA02F31C
:1003000040EA030021FA04F345EA030130BDC4F1D9
:100310000C04C4F1200220FA02F001FA04F340EACE
:100320000300294630BD21FA04F0294630BD94F07F
:10033000000F83F4801306BF81F480110134013D66
:100340004EE77FEA645C18BF7FEA655C29D094EAD7
:10035000050F08BF90EA020F05D054EA000C04BF55
:100360001946104630BD91EA030F1EBF0021002040
:1003700030BD5FEA545C05D14000494128BF41F0DF
:10038000004130BD14F580043CBF01F5801130BD43
:1003900001F0004545F0FE4141F470014FF00000CE
:1003A00030BD7FEA645C1ABF194610467FEA655C7F
:1003B0001CBF0B46024650EA013406BF52EA033521
:1003C00091EA030F41F4002130BD00BF90F0000F0F
:1003D00004BF0021704730B54FF4806404F132044B
:1003E0004FF000054FF0000150E700BF90F0000F04
:1003F00004BF0021704730B54FF4806404F132042B
:1004000010F0004548BF40424FF000013EE700BFFA
:1004100042004FEAE2014FEA31014FEA02701FBF8A
:1004200012F07F4393F07F4F81F06051704732F0BC
:100430007F4208BF704793F07F4F04BF41F4002113
:10044000704730B54FF4607401F0004521F0004171
:100450001CE700BF50EA010208BF704730B54FF0FB
:1004600000050AE050EA010208BF704730B511F0FC
:10047000004502D5404261EB41014FF4806404F134
:1004800032045FEA915C3FF4D8AE4FF003025FEABA
:10049000DC0C18BF03325FEADC0C18BF033202EB3E
:1004A000DC02C2F1200300FA03FC20FA02F001FA98
:1004B00003FE40EA0E0021FA02F11444BDE600BF3B
:1004C00070B54FF0FF0C4CF4E06C1CEA11541DBFEA
:1004D0001CEA135594EA0C0F95EA0C0F00F0DEF8B5
:1004E0002C4481EA030621EA4C5123EA4C5350EA9A
:1004F000013518BF52EA033541F4801143F48013EB
:1005000038D0A0FB02CE4FF00005E1FB02E506F07B
:100510000042E0FB03E54FF00006E1FB03569CF0D0
:10052000000F18BF4EF0010EA4F1FF04B6F5007FD6
:1005300064F5407404D25FEA4E0E6D4146EB060648
:1005400042EAC62141EA55514FEAC52040EA5E50D1
:100550004FEACE2EB4F1FD0C88BFBCF5E06F1ED87B
:10056000BEF1004F08BF5FEA500E50F1000041EBB2
:10057000045170BD06F0004646EA010140EA02005F
:1005800081EA0301B4EB5C04C2BFD4EB0C0541EA81
:10059000045170BD41F480114FF0000E013C00F396
:1005A000AB8014F1360FDEBF002001F0004170BDBA
:1005B000C4F10004203C35DA0C341BDC04F11404D3
:1005C000C4F1200500FA05F320FA04F001FA05F25F
:1005D00040EA020001F0004221F0004110EBD3702C
:1005E00021FA04F642EB06015EEA430E08BF20EA58
:1005F000D37070BDC4F10C04C4F1200500FA04F3FB
:1006000020FA05F001FA04F240EA020001F000418C
:1006100010EBD37041F100015EEA430E08BF20EAFF
:10062000D37070BDC4F1200500FA05F24EEA020E47
:1006300020FA04F301FA05F243EA020321FA04F076
:1006400001F0004121FA04F220EA020000EBD3702D
:100650005EEA430E08BF20EAD37070BD94F0000F2D
:100660000FD101F00046400041EB010111F4801F61
:1006700008BF013CF7D041EA060195F0000F18BF12
:10068000704703F00046520043EB030313F4801F4E
:1006900008BF013DF7D043EA0603704794EA0C0F08
:1006A0000CEA135518BF95EA0C0F0CD050EA41061E
:1006B00018BF52EA4306D1D181EA030101F000419B
:1006C0004FF0000070BD50EA410606BF10461946C3
:1006D00052EA430619D094EA0C0F02D150EA0136CF
:1006E00013D195EA0C0F05D152EA03361CBF104610
:1006F00019460AD181EA030101F0004141F0FE41AF
:1007000041F470014FF0000070BD41F0FE4141F432
:10071000780170BD70B54FF0FF0C4CF4E06C1CEA32
:1007200011541DBF1CEA135594EA0C0F95EA0C0FE7
:1007300000F0A7F8A4EB050481EA030E52EA0335A2
:100740004FEA013100F088804FEA03334FF08055C3
:1007500045EA131343EA12634FEA022245EA1115F0
:1007600045EA10654FEA00260EF000419D4208BFA1
:10077000964244F1FD0404F5407402D25B084FEA4E
:100780003202B61A65EB03055B084FEA32024FF4FA
:1007900080104FF4002CB6EB020E75EB030E22BF57
:1007A000B61A754640EA0C005B084FEA3202B6EB17
:1007B000020E75EB030E22BFB61A754640EA5C00C6
:1007C0005B084FEA3202B6EB020E75EB030E22BF56
:1007D000B61A754640EA9C005B084FEA3202B6EB57
:1007E000020E75EB030E22BFB61A754640EADC0016
:1007F00055EA060E18D04FEA051545EA16754FEA78
:1008000006164FEAC30343EA52734FEAC2025FEA95
:100810001C1CC0D111F4801F0BD141EA00014FF024
:1008200000004FF0004CB6E711F4801F04BF0143F5
:100830000020B4F1FD0C88BFBCF5E06F3FF6AFAE11
:10084000B5EB030C04BFB6EB020C5FEA500C50F1A1
:10085000000041EB045170BD0EF0004E4EEA113124
:1008600014EB5C04C2BFD4EB0C0541EA045170BD2B
:1008700041F480114FF0000E013C90E645EA060E6F
:100880008DE60CEA135594EA0C0F08BF95EA0C0F9D
:100890003FF43BAF94EA0C0F0AD150EA01347FF4E5
:1008A00034AF95EA0C0F7FF425AF104619462CE7BC
:1008B00095EA0C0F06D152EA03353FF4FDAE10461F
:1008C000194622E750EA410618BF52EA43067FF470
:1008D000C5AE50EA41047FF40DAF52EA43057FF400
:1008E000EBAE12E74FF0FF3C06E000BF4FF0010C0B
:1008F00002E000BF4FF0010C4DF804CD4FEA410C6F
:100900007FEA6C5C4FEA430C18BF7FEA6C5C1BD03B
:1009100001B050EA410C0CBF52EA430C91EA030FBC
:1009200002BF90EA020F0020704710F1000F91EA19
:10093000030F58BF994208BF90422CBFD8176FEAE7
:10094000E37040F0010070474FEA410C7FEA6C5CB5
:1009500002D150EA013C07D14FEA430C7FEA6C5CBC
:10096000D6D152EA033CD3D05DF8040B704700BFE8
:100970008446104662468C461946634600E000BF36
:1009800001B5FFF7B7FF002848BF10F1000F01BD08
:100990004DF808EDFFF7F4FF0CBF012000205DF8D3
:1009A00008FB00BF4DF808EDFFF7EAFF34BF012058
:1009B00000205DF808FB00BF4DF808EDFFF7E0FFF1
:1009C00094BF012000205DF808FB00BF4DF808ED42
:1009D000FFF7CEFF94BF012000205DF808FB00BFA9
:1009E0004DF808EDFFF7C4FF34BF012000205DF88B
:1009F00008FB00BF4FEA410C7FEA6C5C02D150EA71
:100A0000013C0AD14FEA430C7FEA6C5C02D152EA06
:100A1000033C02D14FF0000070474FF001007047D7
:100A20004FEA410212F5001215D211D56FF4787316
:100A3000B3EB625212D94FEAC12343F0004343EAB9
:100A4000505311F0004F23FA02F018BF4042704794
:100A50004FF00000704750EA013005D111F000401E
:100A600008BF6FF0004070474FF00000704700BFB4
:100A70004FEA4102B2F1E04324BFB3F5001CDCF1C0
:100A8000FE5C0DD901F0004C4FEAC0024CEA5070F8
:100A9000B2F1004F40EB830008BF20F00100704727
:100AA00011F0804F21D113F13872BCBF01F000402A
:100AB000704741F480114FEA5252C2F11802C2F15C
:100AC000200C10FA0CF320FA02F018BF40F00100DD
:100AD0004FEAC1234FEAD32303FA0CFC40EA0C008F
:100AE00023FA02F34FEA4303CCE77FEA625307D1CC
:100AF00050EA01331EBF4FF0FE4040F44000704703
:100B000001F0004040F0FE4040F40000704700BF9C
:100B100053B94AB9002908BF00281CBF4FF0FF3164
:100B20004FF0FF3000F00CB8ADF1080C6DE904CEC9
:100B300000F008F8DDF804E0DDE9022304B07047B6
:100B4000704700BF2DE9F04786468C460846089E50
:100B5000154674461946002B40F0C1808542B2FA12
:100B600082F245D94AB1C2F1200300FA02FC954055
:100B700094402EFA03F343EA0C0C4FEA154EA8B248
:100B8000230CBCFBFEF80EFB18CC08FB00F943EA73
:100B90000C43994528D9EB1808F1FF3704D2994541
:100BA00002D9A8F102072B44A3EB0903A4B2B3FBBB
:100BB000FEFC0EFB1C330CFB00F044EA0344A04295
:100BC00014D92C190CF1FF3304D2A04202D9ACF194
:100BD00002032C44241A43EA07401EB1D4400023E8
:100BE00034607360BDE8F0874746DDE76346F1E7B0
:100BF00092BB431B01214FEA154EAFB2200CB3FB51
:100C0000FEFC0EFB1C330CFB07F840EA034398453F
:100C100061D9EB180CF1FF3004D2984502D9ACF140
:100C200002002B44A3EB0803A4B2B3FBFEFC0EFBB3
:100C30001C330CFB07F744EA0344A7424DD92C1997
:100C40000CF1FF3304D2A74202D9ACF102032C44C9
:100C5000E41B43EA0040C0E7C2F120039540944002
:100C600020FA03F12EFA03F34FEA154E9040AFB28B
:100C70000343B1FBFEFC0EFB1C10190C0CFB07F828
:100C800041EA0041884522D969180CF1FF3004D2AD
:100C9000884502D9ACF102002944A1EB08019BB2BE
:100CA000B1FBFEFC0EFB1C110CFB07F743EA0143F2
:100CB0009F420ED9EB180CF1FF3104D29F4202D9AA
:100CC000ACF102012B44DB1B41EA004193E7604693
:100CD000E3E76146F7E76046A4E76346B8E7834287
:100CE00006D916B9002108467CE7C6E900E0F9E715
:100CF000B3FA83F78FB9834201D3724508D8BEEBAC
:100D0000020460EB030301209C461EB9002169E741
:100D10003846FAE7C6E9004CF8E7C7F1200CBB40BB
:100D20000EFA07F522FA0CF42EFA0CF1BA401C4325
:100D300020FA0CF3B8404FEA144901431FFA84FE2D
:100D4000B3FBF9F809FB18300B0C08FB0EFA43EA69
:100D500000439A4540D9E31808F1FF3004D29A4580
:100D600002D9A8F102002344A3EB0A0389B2B3FB22
:100D7000F9F809FB183308FB0EFE41EA03418E45E2
:100D80002CD9611808F1FF3304D28E4502D9A8F19D
:100D90000203214443EA0040A1EB0E01A0FB0298AC
:100DA0004145CE46434602D306D14D4504D20138D3
:100DB000B9EB020E68EB0403002EA7D0B5EB0E02D0
:100DC00061EB030101FA0CFC22FA07F3F9404CEA4B
:100DD0000303C6E9003199E74046C5E74346D9E732
:100DE00010F8012B11F8013B012A28BF9A42F7D0D5
:100DF000D01A7047034613F8012B002AFBD1181AAA
:100E000001387047000000002DE9F04F8246164679
:100E10001C4600259FB00391307810B9284600F099
:100E200085BD731C2528069306D00399D04700285A
:100E3000C0F27C8501351BE21822002110A819F0B0
:100E400097FA7378252B00F0BA80002398469E46C7
:100E50009C461846711C0F4611F8012B2B2A00F0F6
:100E6000DD8000F2D480202A00F0DB80232A00F00D
:100E7000DB802BB19DF8483043F040038DF84830BB
:100E8000B8F1000F05D09DF8483043F020038DF8ED
:100E90004830BEF1000F05D09DF8483043F01003F4
:100EA0008DF84830BCF1000F05D09DF8483043F074
:100EB00008038DF8483028B19DF8483043F004030A
:100EC0008DF848309DF8483003F04401442903D19F
:100ED0006FF386138DF848309DF848302A2A43F086
:100EE00080030E978DF8483040F0A3809DF849307C
:100EF00043F001038DF849307B1C1A782E2A0CBF71
:100F0000012100219DF8492061F341028DF849201B
:100F10000CD15A1C0E925A782A2A40F09A809DF8D9
:100F20004920023342F004028DF849201A786C2AD5
:100F300000F0BB8000F29D80682A00F0A3806A2A3E
:100F400000F0BC804C2A00F0C18013F8012B782AF5
:100F500006938DF84B2000F201816D2A00F2C380C8
:100F6000692A00F2FB80572A00F2DA80412A04D075
:100F7000A2F14503022B00F2F18004219DF84A30D2
:100F800002F0DF02A2F1410761F302037A429DF809
:100F900049107A4162F3C7110A068DF84A308DF87C
:100FA0004910CBB200F1198103F07802182A40F001
:100FB00003816FF3C6038DF849300023F2E0B21CC1
:100FC00006928DF84B309DF84930D90740F10781E2
:100FD00054F8042B002A049208DA9DF8482042F0C5
:100FE00004028DF84820049A524204925A0740F1B4
:100FF000FE8054F8047B002F80F2FD809DF849307C
:101000006FF341038DF849304FF0FF37F3E02D2A9D
:101010000DD0302A7FF42DAF01231CE74FF0010CD7
:1010200019E74FF0010E16E74FF0010813E7012012
:1010300011E70EA803F0BEFA0E9BBB423FF45DAF72
:101040009DF848201390C00F60F341028DF84820AE
:1010500053E70EA803F0AEFA9DF848301490C3F39E
:10106000400242EAD07262F341038DF848300E9B91
:101070005CE7742A26D07A2A7FF467AF06219DF8B0
:1010800049200CE05A78682A9DF8492006D10121B0
:1010900061F3C6028DF84920023356E7022161F35D
:1010A000C6028DF8492001334FE75A786C2A9DF823
:1010B000492001D10421EBE70321F0E705219DF848
:1010C0004920ECE707219DF84920E8E7BDF84820D2
:1010D00022F4F04222F0020242F4804242F0020284
:1010E000ADF84820DFE76E3AD3B201229A4040F2D1
:1010F00082431A429DF8493037D112F0240F5FD154
:10110000D1072BD503219DF84A2003F07803A3F1E2
:10111000400061F3020243428DF84A20434141E01E
:101120000120A2F15801C9B200FA01F111F4624F95
:101130007FF423AF40F6010319429DF849301AD1DC
:1011400011F4043F0AD09DF84A2060F3020203F034
:101150007803402B8DF84A207FF42FAF9DF848305C
:1011600043F001038DF8483027E702219DF84A201B
:1011700061F30202EBE702209DF84A1003F07803C6
:1011800060F30201402B8DF84A1002BF9DF8481011
:1011900041F001018DF84810632A7FF40EAF003B47
:1011A00018BF01239DF84820C2F340010B4363F3AD
:1011B00041028DF8482006E713F0380FCED1FCE647
:1011C00003219DF84A2013F0780F61F3020214BF47
:1011D000012300238DF84A20E4E70123E2E79DF98B
:1011E0004820002AACBF4FF0FF32139AFDE69F075C
:1011F0007FF50AAF149F0023CDE913339DF84A30E1
:1012000003F00702042A9DF8492007D1900705D46E
:101210009DF949100029ACBF06270D2703F00703ED
:10122000012BC2F3C30233D1D31E042B04D8DFE851
:1012300003F02146462121002368012A4FEAE37189
:10124000CDE910311CD19DF94030D917CDE91031CD
:1012500004349DF848309907079350D032465046E1
:10126000069B039913F0A9FF0028C0F25F83054491
:10127000069ED1E554F8043BD917CDE91031E8E7D3
:10128000022AE5D119B243F3C033CDE91013DFE7E9
:10129000022B24D1D31E042B04D8DFE803F018104E
:1012A00010181800012A4FF0000154F8043B14D024
:1012B000022ACDE91031CCD19BB21093C9E7073493
:1012C00024F00704F4E80201CDE91001C1E754F865
:1012D000043B109300231193BBE7DBB2CDE7042B53
:1012E00008D1073424F00704D4E900010834CDE91B
:1012F0001001AEE7032BACD154F8043BDDE79DF8B9
:101300004BB0BBF1780FB3D8BBF1570F49D8BBF145
:10131000250F00F09180BBF1240FA9D9BBF1410F3B
:1013200003D0ABF14502022AA2D8DDE91012002A4F
:10133000C0F23681079B1E0700F13581C3F3001907
:101340004FEA4919C2F30A50C2F31302002840F0D1
:101350002D8151EA020614BF01260026D20242EA7C
:101360005152C902BBF1460F40EA010E42EAE07C4D
:1013700008BF4FF0660B5EEA0C0CCDE90C1200F0D2
:101380009B81002E40F049810D9AA0F2FE3842F078
:1013900000420D920020DDE90C1206464FF0050CCC
:1013A00055E1ABF1580120293FF662AF01A050F89A
:1013B00021F000BF3F1504007112040071120400F7
:1013C0007112040071120400711204007112040001
:1013D00071120400711204002B1304007112040036
:1013E000C3140400D71404002B1304002B130400AF
:1013F0002B13040071120400D714040071120400AE
:1014000071120400711204007112040079150400B5
:101410003F15040045150400711204007112040008
:101420003F140400711204003F15040071120400FF
:10143000711204003F15040058460399F6E4002F8A
:10144000109E3ADB3946304619F088F93718002EDD
:101450003FF40EAF4FF000099DF84A3013F0100230
:10146000059200F05882023013F04003DDF84C8002
:10147000089318BF149B404418BFC018049BCDF8B4
:101480001C80002B40F362829DF848201B1A5007F5
:101490000493C2F3800B00F15982510640F1498256
:1014A000B9F1000F07D048460399D0470028C0F291
:1014B0003D82D946013530223CE23046FFF79AFCA6
:1014C000C4E7109B4FF0000901208DF85C300DF14E
:1014D0005D0717AEC0E7079B1A0754BFC3F3001997
:1014E0004FF02B09DDE9102358BF4FEA4919002BB3
:1014F00006DA4FF02D09524263EB4303CDE9102386
:10150000DDE910010DF17503009312AA17AB03F08A
:1015100067F80646002F0CDB9DF848200DF1750397
:101520009B1B6FF386129F428DF8482001D9FB1A4E
:101530001393002E3FF49CAE0DF175075BE04FF066
:101540000009DDE71098002800F0E0810DF1750337
:101550000093002117AB12AA03F042F8BDF84A30FD
:10156000064603F0EF0343F4F04343F010034FF05B
:101570000009ADF84A30CDE7109B072A3FF678AE58
:10158000DFE802F00C04060C08080C0C1D706FE676
:101590001D806DE6EA17C3E9005269E61D6067E643
:1015A0004FF02D09CEE64FF02B09CBE640F2FF7647
:1015B000B0422FD1A0480BF10103DBB2C35C0A4358
:1015C00003F003031ED1012B0BBF492369234E21D6
:1015D0006E210CBF462266228DF85C309DF84830A3
:1015E0008DF85D106FF386138DF85E208DF848300E
:1015F0000DF15F0717AEB81BB9F1000F3FF42CAF28
:10160000013029E7012B15BF6E234E2361214121B3
:101610001A46E1E70026A1E6013849185241002A9E
:10162000FADACDE90C12AFE6490841EAC271520874
:10163000B2F1333F404608F10108F5D200F102084B
:1016400001200CFB02FEA1FB0C12013E724418F1BA
:10165000020FE9DB08B1CDE90C12DDE90C21B8F18C
:10166000000F2CDCC8F10400A0F1200C08F11C08CC
:10167000C24001FA08F821FA0CFCC1400BF0DF006F
:1016800042EA0802472842EA0C0238D1F01C01DB8A
:10169000B7422ADAABF10203002F5FFA83FB7BDD4E
:1016A0009DF84800013F830676D43B1E18BF0123F6
:1016B000059307F101082CE04FF000086AE60232BA
:1016C00041F100010CA808F1FF380136CDE90C21E9
:1016D00013F044FDDDE90C2192184941002908F17D
:1016E000FF38F9DACDE90C21B7E79DF84830BF1B88
:1016F00098064FD43B1E18BF0123059304E0002336
:10170000BBF1660F0593D4D117EB06084FF0660BBB
:1017100044D4B8F1100FA8BF4FF010089FED447BE0
:1017200010208DED0E7B0B90DDE90E03B8F1000F5C
:1017300037D1121841EB0301B1F1805F41D2CDE9FD
:101740000C21079BBBF1660F03F0200240F0BD8027
:10175000002E41DC30218DF85C10002A6ED1002F64
:1017600040F3B5812E228DF85D2086B17242BA42D7
:10177000A8BF3A46002A1392A7EB0207D4BF002263
:1017800001229DF84A1062F345118DF84A100DF1BF
:101790005E0839E00023B0E7002389E74FF0000836
:1017A000BCE7400840EAC3705B08CDE90E030EA811
:1017B000CDE9082108F1FF3813F0D0FCDDE908215C
:1017C000B2E7520842EAC1720CA84908CDE90C21DF
:1017D000013613F0C3FCB4E70DF15C080B99002946
:1017E00009DD0BA90CA8079213F0D0FC013E079A63
:1017F00008F8010BF2D113969AB9002F40F36581D6
:101800002E2108F8011B0026002F20DD0B9A002A4C
:101810001DDD0BA90CA813F0B9FC013F08F8010B62
:10182000F2E72E2208F8012BEDE700BFAFF30080AE
:10183000000000000000000881FC05002E228DF849
:101840005D20002EA3D0002F90DC0DF15E08059BDB
:10185000002B4ED1149747460BF0DF02452A23D1C7
:10186000002EBABF76422D232B23632EC8BF6421DE
:101870007B70C4BFB6FBF1F301FB13664FF00A01A6
:10188000C8BF03F13000B6FBF1F3D2BFBA1CFA1C9B
:10189000B87087F800B0174603F1300001FB1363FE
:1018A000303307F8020B5370139B002B2CDC149B76
:1018B000002BD4BF002301239DF84A2063F3861236
:1018C00000238DF84A203B7094E60BA90CA80792E0
:1018D00013F05CFC079A30288DF85C0018BF06F105
:1018E000FF3612B9002F40F3F2802E228DF85D20D2
:1018F0004DE7474617F8012C08F1FF38302AF8D099
:101900002E2A08BF4746A7E70123D5E7714F814636
:101910007E1F0520A0E51A0748BF0130A4E5104648
:1019200009920399D0470028099A05DA1FB0BDE84B
:10193000F08F2022DDF810B0594600290BF1FF3B53
:10194000EDDC049BCDF810B02B445D1AB9F1000F0B
:1019500005D048460399D0470028E7DB0135089BAE
:10196000002B77D09DF94930002B28DB3346DFF878
:10197000689118789B4619F80020013352073FD42C
:101980009DF84A30AE1B98065E4407D44246002AB2
:1019900008F1FF383BDC079B33449E1A9BF800009C
:1019A0002E280AD10399D0470028BFDBB8F1000FD9
:1019B00006F1010631DC0BF1010B5D4638E0B14662
:1019C00099F80000C846702809F1010913D1AE1B2F
:1019D000149D46443544AB1B002B33DC3B4642464A
:1019E0005046039913F0E9FB00289FDB3044049E26
:1019F0000546064464E00399D0470028E0DA95E7FD
:101A000005930399D0470028059BB2DA8EE7302072
:101A10000399D0470028B9DA88E730200399D047E6
:101A200008F1FF38C0E70399D0470028FFF67EAFE2
:101A30002878A84619F8003001355907F3D4A6EBE9
:101A40000B06C5E730200399D0470028FFF66EAF9C
:101A50000136C0E79DF84A30DA0601D41B0706D5E7
:101A600030200399D0470028FFF660AF0135059B71
:101A70003BB103999DF84B00D0470028FFF656AFC5
:101A80000135A84406E030200399D0470028FFF62E
:101A90004DAF0135A8EB0503002BF4DC3B46324685
:101AA0005046039913F089FB0028FFF63FAF284406
:101AB0009DE720200399D0470028FFF637AF013576
:101AC000731B002BF5DCFFF7D3BB1646BFE60DF109
:101AD0005D08BCE6DACA050082FC050000000000D3
:101AE000F0B52DED028B002504238BB00E46074682
:101AF000CDE908550593002800F0C080002900F0CA
:101B0000BD80062108A815F066F8044678B1604B40
:101B10000390CDE9015301222B4628465D490095EB
:101B200015F0B2F920460BB0BDEC028BF0BD0146BA
:101B300008AA384615F036F8044670B1564B0390A3
:101B4000CDE901532B46009501221846514915F065
:101B50009BF908A815F069F8E4E7032105AB06AA8C
:101B600008A815F040F9044610B14C4B0390E7E784
:101B7000059B014628336B4403F8100C022206A88B
:101B800011F01EFC0121C7B204AA08A815F0FFF845
:101B9000044610B1424B0390D2E7049B042B22D0A1
:101BA000052B0CD03F4B30700222CDE9010339499F
:101BB0000346009015F068F96FF07F04C9E7092328
:101BC0000F2F337033D96FF015030393364B029305
:101BD0000023CDE90033012218462E4915F054F9AF
:101BE0006FF01504B5E707230F2F3370EBD89FED87
:101BF0002F8A2F4B33F81700F8B1FEF7F7FB22A31B
:101C0000D3E90023FEF75CFCFEF732FF042170608D
:101C100005AB06AA08A8059115F0E5F8044670B1D1
:101C2000244B039002930023CDE900338CE7224B31
:101C30009FED228A33F81700DEE72148E6E7059B8F
:101C4000014628336B4403F8100C022206A811F059
:101C5000B7FBC0B20F2806D91A4B0390CDE9014358
:101C600000942346B7E70130C0B207EE900AF8EEC1
:101C7000E77A67EE887AC6ED027A6AE76FF01504B4
:101C800050E700BFAFF300807B14AE47E17A2440F9
:101C900058E70500ACB3050081E70500ADE7050096
:101CA000D9E70500FBE7050023E805000AD7A33FB5
:101CB00060BD050047E8050040BD05000AD7234088
:101CC0000AD7A34072E805002DE9F0472DED028BFD
:101CD00004469FED498B4A4E84B04FF02003EFF34A
:101CE000118783F31288BFF36F8FD4F8C8508DB972
:101CF000022104F1E00018F07BF8002843D1002312
:101D00008DED008B3946029304F1D0023D4810F06E
:101D1000A1FBE2E7D4F8CC202B689542C4F8C83088
:101D200008BFC4F8CC30D4F8E03043F00203C4F864
:101D3000E030EB6823F0040343F00103EB606B68D1
:101D400087F31188BFF36F8F284698474FF0200321
:101D5000EFF3118983F31288BFF36F8FEB68990754
:101D600023F0010219D4EA60D4F8E03023F0020332
:101D7000C4F8E03089F31188BFF36F8FDB05ACD472
:101D800010F066FAA9E704F1D805002201212846DF
:101D900018F069F90028F8D1B1E7306823F003039F
:101DA000EB600028E0D00027BA46D0F80080002879
:101DB000DAD04268014695420BD1016897B9726842
:101DC0003160824200D1716040F808AB0FF0B0FE84
:101DD0003946B8F1000F0BD0D8F8002040460F4626
:101DE0009046E4E739607268824208BF7760EBE7AB
:101DF0004246F3E7AFF30080FFFFFFFFFFFFFFFF67
:101E000084BC01208EEF01202DE9F04F476A97B086
:101E10008346209E08910C92129355EC104B8DED49
:101E2000000B7FB9102010F00DFD0246CBF8240006
:101E300020B9A74BEA21A74812F06AFAC0E9017756
:101E40000760C760DBF82430196859B15A6801236C
:101E5000584693404A608B6011F09CFBDBF82430BD
:101E600000221A602B1EB7BF23F00043002301227B
:101E70000193A8BF3360019F974BB8BF3260BB434B
:101E800019D142F20F73129A1360C7F3130323435D
:101E900000F0DB85219B53B9904B21E0904B0393DD
:101EA0000833219A1360039817B0BDE8F08F8B4B6D
:101EB00003930333F5E79DED007B0022002351ECF3
:101EC000170B8DED0A7BFEF763FD804650B10123B1
:101ED000129A1360219B13B1824B219A1360824B9B
:101EE0000393E0E7C7F30A5614AA15A958469DEDD7
:101EF0000A0B11F0D7FD0290002E76D00B9BA6F2B4
:101F0000FF36CDF84C80C3F3130343F07F53DDE974
:101F10000A0143F4401319460022744BFEF718F9E6
:101F200065A3D3E90023FEF7CBFA65A3D3E9002329
:101F3000FEF710F904460D463046FEF757FA62A345
:101F4000D3E90023FEF7BCFA02460B462046294699
:101F5000FEF700F904460D46FEF762FD0022074633
:101F6000002320462946FEF71DFD40B13846FEF706
:101F70003DFA22462B46FEF70BFD00B9013F162F16
:101F800052D85B4B03EBC703DDE90A01D3E9002319
:101F9000FEF708FD002849D0013F00231193149B50
:101FA0009B1B5A1E4CBFC3F101030023079245BF80
:101FB0000693002306930793002F39DB079B1097A6
:101FC0003B44079300230993089B092B66D8052BF4
:101FD000C5BF043B002401240893089B023B032B4C
:101FE00067D8DFE803F02D3A3859DDE914631E4461
:101FF00006F23243202BC9BFC3F14003C3F12003D3
:102000009F4006F21243D8BF04FA03F006F1FF36F0
:10201000C4BF24FA03F347EA0300FEF7D7F901220D
:10202000A1F1F873139276E70123B7E71190B6E7B1
:10203000069BDB1B06937B42099300231093C3E7A7
:1020400000230D930C9B002B56DC012399461A4666
:1020500004930C920CE00123F3E700230D930C9BF7
:10206000FB1803F1010904934B46012BB8BF012370
:10207000DBF824000021042202F114059D423FD91F
:102080004160584611F046FA039000283BD1194BA5
:1020900002464FF4D571CEE60123DFE70124002389
:1020A0000D9408934FF0FF330022994604931223B6
:1020B000CFE701230D93F5E761436F63A787D23F15
:1020C000B3C8608B288AC63FFB799F501344D33F27
:1020D000BDFD0500D4FD05000000F07FB9FD050041
:1020E000B0FD0500E7E60500E6E605000000F83F64
:1020F000F0B4050030FE05000C9B99460493B7E749
:1021000001315200B8E7DBF82430B9F10E0F039A21
:102110001A606FD8002C6DD0002F36DD07F00F024B
:10212000A04BF8054FEA271403EBC20393ED007BA5
:102130008DED0E7B17D59C4B04F00F044FF0030878
:10214000D3E90823DDE90A01FEF7E4FACDE900014D
:10215000954D5CB9DDE90E23DDE90001FEF7DAFA01
:10216000CDE900012BE04FF00208F1E7E10709D5C6
:1021700008F10108DDE90E01D5E90023FEF7A0F919
:10218000CDE90E0164100835E3E700F007817C42D9
:10219000844B854D4FF0020804F00F02241103EB2D
:1021A000C203DDE90A01D3E90023FEF789F9002320
:1021B000CDE90001002C40F0E580002BD0D1119B2F
:1021C000DDE90045002B00F04C810022774B2046D2
:1021D0002946FEF7E7FB002800F04381B9F1000F24
:1021E00000F03F81049B002B00F3E480DDE90A341A
:1021F000CDE90034159B002B02DB0E2F40F3428209
:102200000D9A002A40F06782099C0025DDF81880AD
:10221000B8F1000F0DD0079B002B0ADD4345069A4D
:10222000A8BF4346D21AA8EB03080692079AD31A0E
:102230000793099B0BB30D9B002B00F0A682002C8B
:1022400000F0A18229462246584611F0CDFA029AA2
:1022500001460546584611F01DFA029906465846B1
:1022600011F098F9099B1B1B099300F09182099AC0
:102270003146584611F0B8FA02900121584611F043
:10228000F3F9109B0446002B00F084821A460146A5
:10229000584611F0A9FA089B0446012B03DC009B69
:1022A000002B00F07C820026236904EB830318696D
:1022B00018F044FBC0F120001096079B184410F062
:1022C0001F0000F09182C0F12003042B40F38182B3
:1022D000C0F11C00069B034480440693079B034403
:1022E0000793069B002B05DD1A460299584611F00C
:1022F000D5FA0290079B002B05DD21461A46584669
:1023000011F0CCFA0446119B002B00F07682214696
:10231000029818F062FB002880F26F8200230A22E4
:102320000299584611F058F90D9B7E1E0290002B21
:1023300000F05C82002329460A22584611F04CF92D
:10234000049B0546002B03DC089B022B00F35E82F6
:10235000B8F1000F05DD29464246584611F09EFAB5
:102360000546109B002B00F0D0826968584611F09A
:10237000D1F80746002840F07F820D4B024640F21C
:10238000EA2158E5E20706D508F10108D5E900235E
:10239000FEF796F80123641008350BE74FF00208AA
:1023A0000DE700BFF0B40500C8B405000000F03F21
:1023B00030FE050020460022AC4B2946FEF780F88F
:1023C0007E1E08F10108049CCDE900014046FEF79D
:1023D0000DF8DDE90023FEF773F8A54B0022FDF7A9
:1023E000B9FEA1F15073CDE90E010F93002C3BD142
:1023F0000022A04BDDE90001FDF7AAFE02460B46D4
:10240000CDE90023DDE90E23FEF7EAFA002840F0CB
:102410005781DDE90E2101F10043DDE90001FEF7FE
:10242000C1FA00283FF4E2AE002425460C9BDDF8FB
:102430000CA0DE434FF000082146584611F0AAF8E0
:10244000002D00F0A980B8F1000F05D0A84503D0F9
:102450004146584611F09EF82946584611F09AF820
:102460009AE03E464C46B1E7834B03EBC40353E985
:102470000201039B1C440D9B002B4AD002460B46D5
:1024800000207E49FEF746F9DDE90E23FDF760FEE8
:10249000DDF80CA0CDE90E01DDE90001FEF7C0FA80
:1024A0000546FDF7A3FF024630350B46DDE9000186
:1024B000FDF74EFE0AF8015B02460B46CDE900012E
:1024C000DDE90E01FEF78CFA002865D100206C4989
:1024D000DDE90023FDF73CFE02460B46DDE90E0177
:1024E000FEF77EFA002840F00D81A24500F0EA8058
:1024F00000225E4BDDE90E01FDF7E2FF00225B4B9F
:10250000CDE90E01DDE90001FDF7DAFFCDE90001BB
:10251000C2E7DDE90E23FDF7D3FFA046DDF80CA0EE
:10252000CDE90E01DDE90001FEF77AFA0546FDF777
:102530005DFF024630350B46DDE90001FDF708FE80
:102540000AF8015B02460B46A245CDE900234FF095
:10255000000223D1494BDDE90E01FDF7FBFD0246E8
:102560000B46DDE90001FEF73BFA002840F0CA8087
:1025700000204249DDE90E23FDF7EAFD02460B4645
:10258000DDE90001FEF70EFA70B1C24608F1FF382E
:102590001AF8013C302BF8D0374655E0334BFDF7A5
:1025A0008FFFCDE90001BDE7DDE90A34CDE9003454
:1025B000159B002BFFF628AE0E2F3FF725AE2E4BB6
:1025C00003EBC70393ED007B0C9B002B8DED047B8D
:1025D00002DAB9F1000F64D0DDF80CA0DDE90045A6
:1025E000DDE9042320462946FEF794F8FEF718FAA1
:1025F0000646FDF7FBFEDDE90423FDF761FF024619
:10260000204606F130040B462946FDF7A1FD0AF8E5
:10261000014B039C02460B46AAEB0404A14540F083
:102620008280FDF797FD04460D46DDE90423FEF7A1
:10263000D7F9002865D120462946DDE90423FEF7B5
:10264000A7F908B1F3075CD40299584610F0A2FF2D
:10265000002301378AF80030129B1F60219B002B5A
:102660003FF421ACC3F800A01DE400BF00002440EB
:1026700000001C4000001440F0B405000000E03FE2
:102680000000F03FA24B03EBC70393ED007B0C9BD4
:10269000002B8DED047B9FDAB9F1000F9CDC7FF4F9
:1026A000C3AE00229B4BDDE90401FDF709FFDDE924
:1026B0000023FEF78BF9044600287FF4B5AE3E46B2
:1026C0002546B4E0DDE90A34CDE90034159B002B42
:1026D00001DB0E2FD6DD089A012A36DC139A82B36D
:1026E00003F23343099CDDF81880069A012158460D
:1026F0001A440692079A1A44079210F0B5FF05464D
:1027000086E53E4653469A4613F8012D392A06D1EE
:10271000039A9A42F7D13022039901360A701A7847
:1027200001321A7038E700227B4BFDF7C9FE002208
:10273000002304460D46FEF72BF900283FF450AF66
:1027400082E7149BC3F13603CCE709F1FF34099B00
:10275000A34208DBB9F1000FA3EB04040EDBDDF8A4
:1027600018804B46C1E7099B109AE31A0994DDF8DB
:10277000188000241A444B461092B6E7069BA3EB40
:1027800009080023B1E7029E71E5099A029970E5F4
:10279000029672E5089B012B17DC009BABB9019BED
:1027A000C3F313039BB9019B23F00046360D360596
:1027B00036B1069B012601330693079B013307932D
:1027C000109B002B7FF470AD1096012075E500265C
:1027D000F6E73FF486AD1C33069A1A4498440692F5
:1027E000079A1A4407927CE50346F4E7049B002B02
:1027F0002BDC089B022B09DC27E0B9F1000F1DDC64
:10280000089B022B1ADD3E46CDF81090049B002B4E
:102810007FF40CAE21460522584610F0DDFE01463D
:102820000446029818F0D9F800287FF7FFADDDF8CC
:102830000CA0312301360AF8013BFBE50D9B3E4617
:10284000CDF81090002B7FF483AD039F21460298B2
:1028500017F0D5FF039B00F13009049A07F8019B9C
:10286000FB1A9A4240F3CB8000230A220299584671
:1028700010F0B2FE0290E9E72A6905F10C010C3074
:102880000232920017F03AFD01223946584611F003
:1028900005F8039BA846054603F1010ADDE9032379
:1028A00013440793009B03F0010309930AF1FF33DC
:1028B00021460298049317F0A2FF4146069000F1CA
:1028C0003009029818F089F82A46214607465846EA
:1028D00011F050F8C268014602B3584610F05AFE93
:1028E000002F3ADA01220299584610F0D7FF21460C
:1028F000029018F072F8002803DC29D119F0010FBA
:1029000026D0B9F1390F1DD132E02846C1E700BF0A
:10291000F0B4050000001440000024400A90029822
:1029200018F05BF80A990C90584610F033FE0C9A98
:102930005ABB089B53B9099B43B9B9F1390F17D05A
:10294000002F05DD069B03F1310901E0002F2ADA93
:10295000DDF810A00AF8019B6EE5089B3B4304D10B
:10296000009B03F00103002BBCD0B9F1390F36D125
:10297000049F392307F8013BBA46013F1AF8013C8E
:10298000392B5AD001333B7056E5002F06DB089BEC
:102990003B4306D1009B03F0010313B9002AA1DCDD
:1029A000D6E7002AE1DC079B57460AF8019C53450D
:1029B0002ED000230A220299584610F00DFEA84599
:1029C00002904FF000034FF00A02414658460BD1E7
:1029D00010F002FE804605460AF1010A66E7DDF8BE
:1029E00010A009F10109B5E710F0F6FD294680466F
:1029F00000230A22584610F0EFFD0546ECE7049B41
:102A00004FF00008002BCCBF1F460127039B1F443B
:102A100001220299584610F041FF2146029017F01A
:102A2000DCFF0028A8DC02D119F0010FA4D1BA46BE
:102A300017F8013D302BFAD0FEE4039BBB429BD13B
:102A40003123039A01361370F6E4219B002B7FF4A7
:102A500025AA014BFFF744BAB0FD05001FB50023BE
:102A600004460146222201A8CDE90133039303F075
:102A700037FC18B12146134812F09EF80A230122B0
:102A80000DF1030101A88DF8033003F0B9FC002813
:102A90000DDA21460C4812F08FF801A803F08CFCE7
:102AA00018B12146094812F087F804B010BD092872
:102AB00002D121460648EEE78628EED12146054898
:102AC000E9E700BF4AC1050059C10500B2C10500D0
:102AD0006FC105008DC105001FB50B4BD3E8AF3F9B
:102AE00073B1002008F058FD50B1084B03900293D9
:102AF000002301221846CDE90033054911F0BBFF40
:102B000005B05DF804FB00BF68B20120C2C105003A
:102B1000B4B30500F0B50378044697B0072B2CD862
:102B2000DFE803F0041D2D4B686E2B7E037A012B2A
:102B300003D0052B21D1574B00E0574B0393574B44
:102B400003220293002356491846CDE9003311F0C1
:102B500092FF544817B0BDE8F0400EF0E9BFC368DB
:102B6000049383680393504B029300230322184677
:102B7000CDE900334A4911F07EFF17B0F0BD00697E
:102B8000FDF746FCCDE90201E068FDF741FC07AD29
:102B9000CDE90001454A3C21284612F01AF80028E8
:102BA000EBDD434B03950293002303221846CDE946
:102BB00000333B4911F05FFFDFE7017A3D4A3E4BAE
:102BC000012908BF134603933C4B032202930023C1
:102BD00033491846CDE9003311F04DFF237A0BB984
:102BE0003748B7E700220023354817B0BDE8F0406A
:102BF0000EF0C4BF4369049303690393314BB3E7F9
:102C0000027A4AB1072A09D02F4B3049092A08BF56
:102C10000B4603932E4BC6E72E4BFAE72E4BF8E7F5
:102C20002E4B0322029300231D491846CDE90033A1
:102C300011F021FF236901339FD0294A04F10803D1
:102C4000164604F13807154618685968083303C555
:102C5000BB422A46F7D194F838204AB1E16BB1B1B2
:102C600012014FF488731F4817F055FB94F8382071
:102C70001D4B86F83020029300230392184603224E
:102C8000CDE90033064911F0F6FE184862E70A461E
:102C9000EEE700BF14C20500FBC1050051C20500EC
:102CA000B4B30500DCAB012071C20500A0C2050071
:102CB00061C6050028C2050032C20500C9C2050070
:102CC000F4AB0120D6C2050042C205004AC205008D
:102CD00007C305003DC2050037C2050023C3050038
:102CE00000A5012058B1012047C30500C4AB012055
:102CF00008B50E4816F0F1FE20B90D48BDE80840B1
:102D000011F05ABF0B4811F09CFE002801DA0A4866
:102D1000F4E70121074811F0BDFE11F0CFFEBDE838
:102D200008400021034811F0B5BE00BF34B00500D3
:102D300060C30500C8B5050083C3050008B50E488B
:102D400016F0CBFE20B90D48BDE8084011F034BFA5
:102D50000B4811F076FE002801DA0A48F4E7012159
:102D6000074811F097FE11F0A9FEBDE808400021C8
:102D7000034811F08FBE00BF34B00500ABC305009F
:102D8000C0B50500CBC305001FB5174C204616F093
:102D9000A4FE30B92168154804B0BDE8104011F018
:102DA0000BBF134811F008FF0C22124B1248C3F856
:102DB0002422D3F8242242F44032C3F8242211F012
:102DC000FBFE0020062301A9CDE9010003908DF848
:102DD000043002F0DDF84FF4803000210FF0BAFA31
:102DE000064811F0E9FEFEE76CB00500F0C30500EF
:102DF00007C405000025844024C4050057C405000D
:102E000007B51C4812F082FA70B11B4811F0D4FECD
:102E10001A481B4BC36003F02FFC40BB194803B09A
:102E20005DF804EB11F0C8BE6A460121114812F0AA
:102E3000B7FA08B11448E9E70099144811F0BCFE4C
:102E400002210C4801AA12F0ABFA08B11048DDE7E4
:102E50000199104811F0B0FEDDE90031A3FB01310A
:102E60001B0D0D4843EA013111F0A6FED0E70B48D7
:102E7000D5E700BF71C4050074C4050040A501205A
:102E8000F1C40500F6C4050088C40500A3C405000C
:102E9000B3C40500CDC40500DDC4050005C50500AB
:102EA0002DE9F0471646002284B000AF044689465B
:102EB0001D46C7E90122FA6006F107089BB90146E1
:102EC0002222381D03F00CFA18B121463F4811F0B8
:102ED00073FE28F00708ADEB080D49466846E84642
:102EE00017F0F3FB26E03A4811F066FE2222214655
:102EF000381D03F0F5F918B12146344811F05CFE95
:102F0000344811F059FE3146334811F055FE28F08F
:102F10000708324811F050FEADEB080D49466846EF
:102F200017F0D3FB2E48694611F046FE2D48E846BF
:102F300011F042FE4FF00009DFF8C0A0B1451FDBE1
:102F40001DB14146264811F037FE4146721C381D1E
:102F500003F056FA00282FDA2146234811F02CFE00
:102F6000381D03F029FA18B12146204811F024FE3B
:102F700015B11F4811F020FE1037BD46BDE8F0879F
:102F800018F8091021F02003413B192B09D9A1F1B0
:102F90002F030B2B05D90A2903D0A1F12A03012BFA
:102FA00006D815B1504611F007FE09F10109C5E731
:102FB0005F2308F80930F8E7092802D121460D48B7
:102FC000CCE78628CCD121460B48C7E74AC105008B
:102FD0001BC5050031C5050040C505004CC50500F1
:102FE00064C5050078C5050059C10500B2C10500DA
:102FF00091C505006FC105008DC105008DC5050097
:10300000F8B50F24234F244E22460021384617F0EE
:10301000AFF9224D22460021304617F0A9F9224689
:103020001F4C0021284617F0A3F92146384617F017
:103030004CFB2146304617F048FB2146284617F046
:1030400044FB1849184817F040FB1849184817F076
:103050003CFB1849184817F038FB1849184817F076
:1030600034FB1849184817F030FB1849184817F076
:103070002CFB1849184817F028FB1849184817F076
:1030800024FB1849184817F020FBBDE8F840174802
:1030900011F092BD39C5012007C30120D5C0012020
:1030A000ABC50500B1C50500F0C40120B9C50500D8
:1030B000BEC20120C1C505008CC00120C9C50500E4
:1030C00048C30120D0C5050016C10120D7C50500A1
:1030D000E4BE0120DEC5050016C30120E6C50500DB
:1030E000E4C00120EEC50500B2BE0120F6C5050012
:1030F000F0B599B001AA06461546154B03F108072D
:10310000144618685968083303C4BB422246F7D1F5
:1031100018689B882060A380002331461922284626
:10312000CDF81630CDF81230CDF8193017F0A8FAD6
:1031300019222846074917F0A3FA2A46402108A871
:103140000DF094FC044808A911F036FD19B0F0BD4B
:103150009CB4050013E1050051C6050030B5A1B0CF
:103160004021194A68460DF081FC402269460DEB6A
:10317000020017F0B2FA10A8FDF73CFE5F24002110
:1031800010AA81420ADB322210A9104817F0A5FAD2
:103190000E490F4811F010FD21B030BD1378A3F196
:1031A0006105192D0CD93A2B07D82E2B08D80A2BDC
:1031B00006D02B2B04D0147002E0413B192BFAD817
:1031C00001310132DDE700BF64C6050048C50120BA
:1031D0006DC6050030B5A1B040212A4A68460DF001
:1031E00045FC402269460DEB020017F076FA10A864
:1031F000FDF700FE5F24002110AA814217DB22495F
:103200002248FDF7EDFD38BB3222204810A917F007
:1032100064FA1E491E4811F0CFFC1E491E4811F0E9
:10322000CBFC1E491E4811F0C7FC21B030BD1378FD
:10323000A3F16105192D0CD93A2B07D82E2B08D8EC
:103240000A2B06D02B2B04D0147002E0413B192B23
:10325000FAD801310132D0E712490E48FDF7C0FD1E
:1032600018B932220B4810A9D1E70F490B48FDF7D6
:10327000B7FD18B93222094810A9C8E70B4811F068
:103280009BFCC6E776C60500DEC5050016C3012017
:1032900091C60500E4C00120A3C60500B2BE01200E
:1032A000B5C60500E6C50500EEC5050081C60500EA
:1032B0001FB501EA0004E1072CD50A4811F07CFC97
:1032C000094BD3E8AF3FABB9084A1846CDE9013204
:1032D00007490322009311F0CEFB04B0BDE8104073
:1032E000FFF706BDC7C6050068B20120D2C60500BB
:1032F000B4B30500BA4B032202930023B949184620
:10330000CDE9003311F0B7FBFFF7E6FBFFF726FF2F
:10331000FFF760FFA20740F1D781B34811F04CFCE2
:10332000B249B34811F048FCB249B34811F044FC2B
:10333000B249B34811F040FCB249AC48FDF750FD2A
:1033400018B9B149A94817F0C0F9AE49A948FDF725
:1033500047FD18B9AC49A74817F0B7F9A949A748DC
:10336000FDF73EFD18B9A849A44817F0AEF9FFF7DC
:10337000F5FEA648FDF73EFD00230246A349A448FA
:10338000FFF78EFD9948FDF735FD0023024697496A
:103390009F48FFF785FD9E48FFF760FB9D48FDF7BE
:1033A00029FD002302469B499948FFF779FD98487B
:1033B000FFF754FB9848FDF71DFD00230246964990
:1033C0009348FFF76DFD9248FFF748FB9348FDF7E0
:1033D00011FD0023024691498D48FFF761FD8C489D
:1033E000FFF73CFB8E48FDF705FD002302468C49A4
:1033F0008748FFF755FD8648FFF730FB8948FDF702
:10340000F9FC0023024687498148FFF749FD8048BF
:10341000FFF724FB8448FDF7EDFC002302468249B8
:103420007B48FFF73DFD7A48FFF718FB7F48FDF723
:10343000E1FC002302467D497548FFF731FD7448E1
:10344000FFF70CFB7A48FDF7D5FC002302467849CC
:103450006F48FFF725FD6E48FFF700FB6548FDF755
:10346000C9FC0023024663496948FFF719FD684813
:10347000FFF7F4FA6F48FDF7BDFC002302466D49E3
:103480006348FFF70DFD6248FFF7E8FA6A48FDF769
:10349000B1FC0023024668495D48FFF701FD5C4826
:1034A000FFF7DCFA6548FDF7A5FC002302466349F7
:1034B0005748FFF7F5FC5648FFF7D0FA6048FDF78C
:1034C00099FC002302465E495148FFF7E9FC504849
:1034D000FFF7C4FA5B48FDF78DFC0023024659490B
:1034E0004B48FFF7DDFC4A48FFF7B8FA5648FDF7AE
:1034F00081FC0023024654494548FFF7D1FC44486B
:10350000FFF7ACFA5148FDF775FC002302464F491E
:103510003F48FFF7C5FC3E48FFF7A0FA4C48FDF7CF
:1035200069FC002302464A493948FFF7B9FC38488C
:10353000FFF794FA3148FDF75DFC002302462F495E
:103540003348FFF7ADFC3248FFF788FA4148FDF7F2
:1035500051FC002302463F492D48FFF7A1FC2C48AF
:10356000FFF77CFA3C48FDF745FC002302463A4948
:103570002748FFF795FC2648FFF770FA3748FDF714
:1035800039FC0023024635492148FFF789FC2048D1
:10359000FFF764FA3248FDF72DFC0023024630495C
:1035A0001B48FFF77DFC1A48FFF758FA2D48FDF736
:1035B00021FC002302462B491548FFF771FC1448F3
:1035C000FFF74CFA2848FDF715FC00230246264970
:1035D0000F48FFF765FC0E48FFF740FA46E000BFD2
:1035E00002C70500B4B305002FC7050039C5012087
:1035F0003AC7050007C3012047C70500D5C0012011
:1036000054C70500ABC5050061C7050007C6050026
:1036100068C705002DC5012021C5012015C5012061
:1036200009C50120E4C40120D8C4012048C30120F9
:1036300016C30120FBC20120EFC20120E3C201201A
:10364000D7C20120B2C20120A6C2012016C10120AA
:10365000E4C00120C9C00120BDC00120B1C00120CB
:10366000A5C0012080C0012074C001201B48FDF7C7
:10367000C1FB0023024619491948FFF711FC1848FD
:10368000FFF7ECF91748FDF7B5FB00230246154993
:103690001348FFF705FC1248FFF7E0F91248FDF761
:1036A000A9FB0023024610490D48FFF7F9FB0F481C
:1036B000FDF7A0FB002302460C490948FFF7F0FB89
:1036C000FFF79EFCFFF760FB630705D5084804B0D1
:1036D000BDE8104011F070BA04B010BDE4BE012086
:1036E00068C70500B2BE012048C5012007C6050015
:1036F00076C70500F0B59FB0FFF782FB00217E483A
:1037000011F0C8F900217D4811F0C4F900217C486E
:1037100011F0C0F900217B4811F0BCF900237A496F
:1037200017A8CDE9173302F08DFE7749024660B342
:10373000764811F041FA0024FFF762FC744975489D
:1037400016F0C3FF7449754816F0BFFF74497548F9
:1037500016F0BBFF744B0322204674490293CDE957
:103760000044234611F087F9204609F00BF805467E
:1037700058B36F4B0122CDE90143204623466B49E4
:10378000009411F078F91FB0F0BD6A4811F014FAF6
:10379000694C6A4E651C684917A802F0CBFE80B9D7
:1037A000637873B12378012B04D12946644811F062
:1037B00003FAF0E729463046D4F8042111F0FCF969
:1037C000E9E717A802F032FFB5E75E4806F04CFAC9
:1037D00050B15D4B0390CDE9015301222B462846A1
:1037E0005249009511F047F9002007F0CFF950B188
:1037F000564B03900293002301221846CDE9003373
:103800004A4911F038F9002007F058FB50B1504BED
:1038100003900293002301221846CDE90033434967
:1038200011F029F94B4813F022FB044600284BD134
:10383000494B0322CDE901033C490346009011F0B6
:103840001AF94FF0FF334FF0FF3244480EF096F96B
:103850000123434FD7E8EF2FC7E8E13F0029F9D113
:10386000404B0322CDE90143204623462F490094D3
:1038700011F001F94FF0FF324FF0FF333A480EF0EC
:103880007DF9FFF729F92546384E394C4FF0FF32C4
:103890004FF0FF3330460EF071F9002D00F06E82CC
:1038A000344811F089F9A36801336BD10025324BFC
:1038B000022228461D490293CDE900552B4611F0FE
:1038C000DAF8FFF715FAE1E700252C4B0390029395
:1038D00028462B460122CDE90055144911F0CBF8BA
:1038E000274B0122CDE9015328462B460F4903946B
:1038F000009511F0C0F846E7D0B50500C8B5050041
:10390000C0B50500B8B50500F1C4050081C70500C4
:10391000B1C50500F0C40120B9C50500BEC2012033
:10392000C1C505008CC00120D3C70500B4B3050094
:10393000E8C705009CC7050050B00120BBC70500C3
:10394000B1C70500B13204001DC8050048C8050014
:1039500069C80500152B04008BC80500DCAB0120ED
:1039600068B20120C7C80500F4AB0120C4AB012038
:1039700000A5012035C905004DC90500E0C80500B6
:1039800009C905009D4811F017F921689C4811F0FC
:1039900013F961689B4811F00FF9A1689A4811F07A
:1039A0000BF9E168994811F007F92169984811F07D
:1039B00003F9A18A974811F0FFF8D4E90823964843
:1039C00011F0FAF8218D954811F0F6F8B4F92A10A3
:1039D000934811F0F1F8B4F92C10924811F0ECF87A
:1039E000A3681422002100930DA88F4B16F0E9FD67
:1039F000A38A14220021009312A88B4B16F0E1FD3C
:103A000023680D220021009305A8884B16F0D9FDEC
:103A100063680D220021009309A8844B16F0D1FDA4
:103A2000192205A917A816F058FE192209A917A8E6
:103A300016F026FE4FF6FF73A28A9A4200F08E819E
:103A40007B497C4816F096FE002800F08480A3682D
:103A50000F22002100937748734B16F0B2FD2368C4
:103A60000C22002100937448704B16F0AAFD636885
:103A70000C220021009371486C4B16F0A2FDE36804
:103A80000C22002100936E48674B16F09AFDA38A22
:103A90000C22002100936B48634B16F092FDB4F9A1
:103AA0002A300C220021009367485F4B16F089FDF5
:103AB000B4F92C300C220021009364485A4B16F0C4
:103AC00080FD19225C49624816F007FE19225B4905
:103AD0005F4816F0D5FD5F4811F06EF855495E4815
:103AE00011F06AF85D495E4811F066F85D495E487C
:103AF00011F062F856495D4811F05EF85C495D4886
:103B000011F05AF85C495D4811F056F848494948A7
:103B100016F030FE58B94649504816F02BFE30B921
:103B20004349504816F026FE08B9FFF707F95449F3
:103B3000474816F01FFE5349002800F032814C48D8
:103B400016F018FE002800F00B814F48FDF752F9DF
:103B500001464D4809E13649404816F00BFE002861
:103B600000F0A0803A4817A916F004FE0546002888
:103B700040F09880A36801460F22009337482A4BF3
:103B800016F01FFD23680C22294600933F48274B5F
:103B900016F017FD63680C22294600933C48234B1E
:103BA00016F00FFDE3680C222946009339481E4B9E
:103BB00016F007FDA38A0C222946009336481A4BBB
:103BC00016F0FFFCB4F92A300C2229460093334842
:103BD000154B16F0F6FCB4F92C300C222946009354
:103BE0002F48114B16F0EDFC19222849204816F0F9
:103BF00074FD192226491E486BE700BF61C9050004
:103C000070C905007CC9050088C9050096C9050072
:103C1000A0C90500ADC90500C2C90500DBC9050082
:103C2000F2C90500FDC90500F4F0050008CA050049
:103C3000ABC5050039C501202DC5012021C50120D6
:103C400015C5012009C50120E4C40120D8C4012004
:103C5000F0C4012041CA05003AC7050007C301208E
:103C600047C70500D5C0012054C705005BCA050041
:103C7000BEC201206DCA05008CC001207FCA0500AC
:103C800091CA050098CA05009FCA0500FBC2012021
:103C9000EFC20120E3C20120D7C20120B2C201203D
:103CA000A6C201205649574816F064FD00284FD09F
:103CB000554817A916F05EFD002849D1534817A9A9
:103CC00016F058FD0546002842D1A36801460F2290
:103CD00000934C484E4B16F074FC23680C22294686
:103CE00000934C484C4B16F06CFC63680C22294640
:103CF00000934A48484B16F064FCE3680C222946BE
:103D000000934748424B16F05CFCA38A0C222946DC
:103D1000009344483E4B16F054FCB4F92A300C2270
:103D20002946009340483A4B16F04BFCB4F92C302E
:103D30000C22294600933D48354B16F042FC1922CF
:103D400034493B4816F0C9FC192234493848C0E6CA
:103D5000384810F031FFFEF7CBFFBCE63648F8E7F5
:103D60003648FDF747F801463448FFF7C1F94FF0F0
:103D7000FF324FF0FF3330460DF000FF304810F0B7
:103D80001BFFD7E8AF3F43B92E4A1846CDE90132B1
:103D90002D490322009310F06EFEFEF79DFE0125D3
:103DA00074E5194816F0E6FC60B12849174816F08A
:103DB000E1FC00287FF4C9AE2448FDF71BF801465A
:103DC0002248D2E72249104816F0D4FC88B11F4996
:103DD0000E4816F0CFFC60B11848FDF70BF801460D
:103DE0001648FFF785F94FF0FF324FF0FF331948BF
:103DF000C2E71648FCF7FEFF01461448F1E700BF92
:103E0000ABC50500D5C00120F0C40120BEC2012011
:103E1000F4F00500C9C0012008CA0500BDC001209A
:103E2000B1C00120A5C0012080C0012074C00120C4
:103E30008CC001200DCA050028CA050098CA0500DB
:103E4000A6CA0500D2C60500B4B3050091CA050094
:103E50009FCA0500C4AB01202DE9F04F91B000933B
:103E600002F004030293C2F3C20301338407054640
:103E70000E46DDF868800392059340F0BD81041D75
:103E800030B1072909D86FF01B0011B0BDE8F08FE1
:103E900001F00706341DC6F10806009B4FF000092B
:103EA0004FF0040A591E4FF0FF334F460193CB46A3
:103EB0005346CDF810900DB1009820600598002869
:103EC00000F3EB809948009A824203D398488242DB
:103ED000C0F0E380039AA4EB050E92074FEA9E0020
:103EE00000F106810F2F00F2B480002D00F0088150
:103EF00007F140020DEB020C019A0CF8200C0CF8B3
:103F0000102C049801300490EAE07A2860D84B28FD
:103F10000ED847285CD829282FD8252855D057D81F
:103F200020287DD02338D0F1000B4BEB000B77E03D
:103F3000A0F14C0CBCF12E0F4AD8DFE80CF071490F
:103F4000494949494949494949494C4949494949DE
:103F50004949495A494C4C5A5A5A714C6E4971490F
:103F6000184C18494983804C49494C49800000202D
:103F70004FF0000B4FF0040A39E00122A0F12A0CA7
:103F80005FFA8CFC02FA0CFC1CEA0E0F48D11CF004
:103F900062502ED11CEA020B42D0013C5444CAF1BB
:103FA000000C04EA0C04002D61D0A3EB050CA44422
:103FB0006645FFF468AF002868D1042B47D158F854
:103FC000043B2360042304342AE0019A013A01925D
:103FD0004FF0000B24E011F8010C6C2834D10020C4
:103FE00011F8023C83466C2BC4D14FF0080A5346AB
:103FF000D3E708F1070828F00708073424F007047E
:10400000F8E802AB35B106982044B0423FF63BAF2A
:10401000C4E900AB4FF0000B08344FF0080A5346D8
:1040200011F8010F002878D0BBF1000F7FF46DAFBD
:104030002528F5D14FF0010B019B013301934FF07F
:10404000040AECE7584693E700208346A5E7082BCF
:1040500002D06FF0150018E708F1070828F00708EC
:10406000B8EC027B84ED007B08230834D8E768B9FC
:10407000042B02D108F10408A4E7082BE9D108F1C8
:10408000070828F0070808F10808EDE70598013847
:10409000059058F8040B00900DE7039A900720D57F
:1040A0004FF0010CA4EB050E4FEA9E00BEF5007F19
:1040B000CFD20F2FCDD8F5B107F140020DEB020E94
:1040C000019AC0B20EF8200C0EF8102CBCF1000FB3
:1040D0003FF417AF60F07F000EF8200C09F10109E2
:1040E0000137C5F108024FF6DA7E0434069297E7ED
:1040F0004FF0000CDAE7BCF1000F01D00136EFE71A
:10410000029A0236002AEBD10098CDE90631FCF77D
:1041100071FEDDE906310644E2E7631BB3F5806F0B
:1041200097D23DB9A6F10804E018AEE640AF05000D
:104130002CFF0500029A9B0828602B709DF8103018
:10414000C2B1EB7085F80290B9F1000F05D00022E2
:1041500008A8C5F1010C97420ED14FF0000AC5F135
:1041600001030DF1200801930DF1300B574512D1D9
:10417000601B8AE66B70E5E710F8013B190608D56D
:1041800004EB0C0E764503F07F03FFF47CAE04F8DD
:10419000013B0132DFE7B9F1000F03D098F90020AD
:1041A000002A17DB029BD3B11AF80B2004F8012B6D
:1041B0000022019B981820448642FFF464AE98F8D0
:1041C0000000009904F8010B2046039216F096F8BF
:1041D000039A14440AF1010A08F10108C6E798F8A5
:1041E000002055F822300093029B009845F82230B9
:1041F000FCF700FE421CDCE76FF00D0045E600BF57
:10420000032808B506D911F0C6F9092303604FF059
:10421000FF3008BD044B03EB4013D3E8AF3F002B46
:10422000F1D00020F5E700BFB0B4012070B504461E
:104230000D461646FFF7E4FF002809DB064B600138
:1042400045B11A185268AA4204D011F0A4F90660C8
:10425000002070BD1858FCE7A8B4012010B5002458
:104260004FF0FF334FF0FF3214480DF077FB144B43
:10427000D3E8AF2F7AB10134042C03F12003F7D136
:1042800011F089F917234FF0FF3403600B480DF04C
:10429000DFFB204610BDD3E8EF0F0130C3E8E10F8C
:1042A0000029F8D10748630100EB4411C2504A606D
:1042B0000C33184415F008FDE8E700BF4CAB0120B3
:1042C000B0B40120A8B4012010B4044610460A4B33
:1042D000620103EB44149950606048B1C4683CB17A
:1042E0000C3213445DF8044B40F2051210F040BC50
:1042F0005DF8044B704700BFA8B4012030B50D49EC
:10430000400100F108030B44D3E8AF2F82B1541EE3
:10431000D3E8EF5F954204D1C3E8EC4FBCF1000F46
:10432000F6D1F1D1012A01BF00230A180B505360C6
:1043300030BD00BFA8B40120014B1B68184700BF67
:1043400064A50120014B1860704700BF64A50120DF
:1043500007B50B460021024600910348FCF754FDC7
:1043600003B05DF804FB00BF3943040030B50025FD
:1043700087B0CDE903010446009503A905480595DA
:10438000FCF742FDDDE904309842B8BF255407B080
:1043900030BD00BF934B05002DE9F047058B044667
:1043A0002807904611D4022905F0070540F0CD807A
:1043B000204610F0EAFD78B10138218B042811D88D
:1043C000DFE800F0C3106D85950001290CBF45F0B2
:1043D000100545F02005258388F31188BFF36F8F02
:1043E000BDE8F08701F0070AAA4500F0A680002783
:1043F000B9463E46A368002B00F0BD8041F008019D
:10440000218388F31188BFF36F8FA168002900F022
:10441000BB800D68002900F0B78033465246204625
:10442000D1F80480C047002D76D02B6829461D4660
:10443000F0E701F007035A1F012A1BD8002221F0E0
:104440000701062B276889B2C4E9002209D13B463F
:1044500003E0628B013262831B68002BF9D141F0CB
:1044600002012046218310F090FD00287BD041F00E
:10447000200177E0042B0AD121F0070189B2204600
:10448000218310F082FD10B141F020012183218BA6
:1044900001F0070AAA4550D00027B946AAE72369C8
:1044A00021F0070141F00601062DD3F80090218389
:1044B0002DD1B9F1000F40D041F00801218388F3DC
:1044C0001188BFF36F8F20463949C84729E021F092
:1044D0000701236941F0040189B2042DD3F8049047
:1044E0002183E6D000274FF0040A3E4682E721F000
:1044F0000701236941F0050189B2052DD3F8089021
:104500002183D6D000274FF0050A3E4672E70027E8
:104510004FF0060A3E466DE72B4687E7B9F1000FDC
:10452000D1D14FF02003EFF3118883F31288BFF34A
:104530006F8F238B23F008032383258BEA062ED568
:1045400025F01003238305F007056669218B002EF3
:10455000BFF66FAF00232768C4E9003321F00701DD
:1045600041F001012183218B4FF0000901F0070A7E
:10457000AA457FF43FAF002F9BD041F00801218373
:1045800088F31188BFF36F8F002FC7D03D6839467D
:1045900033465246204610F024FD2F46F4E7AB0682
:1045A0007FF51AAF25F02003238305F00705FFE60A
:1045B0000F500500F0B5024601680A270020074E9B
:1045C0000B461C780131355D6D0701D41360F0BDD9
:1045D00007FB0043A3F13000F2E700BF82FC0500B7
:1045E0002DE9F84F15469A46D378224A6F2B12F8D8
:1045F00003B080460F460BF0030B29D024D8582B6C
:104600000CBF10260A26DDF82890324600234046CB
:104610003946FCF77DFA092AD4B21ED83034B045A9
:10462000E4B277F1000709F8014D01D3D14511D863
:104630002B789B0605D5082E15D1AB7843F00803DF
:10464000AB704846BDE8F88F03F0F703702BD7E74F
:104650000826D8E780460F46D7E7BBF1010F0CBF0D
:1046600037345734DBE7102EEBD1AB7843F010032F
:10467000E6E700BF82FC05004FF02002EFF3118354
:1046800082F31288BFF36F8F0121044AC2F84015EC
:1046900083F31188BFF36F8F0020704700900340B1
:1046A00020B1034B800143F001031847704700BF5E
:1046B000C0B405000AF028B82DE9F84F81462F480C
:1046C0000F4610F0A8FD064670B92D4C0546A046D1
:1046D0004FF0010BDFF8ACA0544507D3B9F1000F40
:1046E00002D04FF0010AE5B9BDE8F88F237B73B122
:1046F0002368DB680BB12046984723681B6943B9E0
:10470000636804222046196800F0C0F801361034AE
:10471000E2E7204698470028F2D00BFA06F31D4343
:10472000F4E7A94695FAA5F4B4FA84F40AFA04F376
:10473000260108EB04146FEA030B25EA0305237B2B
:1047400063B158F806301B6993B946447368042274
:104750002046196809EA0B0900F098F8002DE1D10C
:1047600027B14FF4A47000210DF0F4FD4D46BAE7D7
:10477000204698470028F1D1E7E700BF30B5012077
:104780006CB405007CB40500014B53F82000704761
:10479000D8B5050008B5034608462BB1044A136096
:1047A00000F07CFA002008BD6FF01500FBE700BFA9
:1047B00068A501200023044A4FF400411370034A06
:1047C00003481360FFF7E6BF7AC5012028B5012032
:1047D0001352050070B50B4D297841B90120FFF740
:1047E0006BFF094C094EB44202D301232B7070BDFC
:1047F00063685B791BB1236820469B689847103437
:10480000F1E700BF7AC501206CB405007CB4050057
:1048100010B50446064810F0FEFC3CB1054BD3E849
:10482000EF1F0139C3E8E21F002AF8D110BD00BF15
:1048300028B501202CB5012070B50A4B05461B6830
:104840009847094C094EA860B44200D370BD636814
:104850005B7923B12368294620461B6898471034AA
:10486000F2E700BF68A501206CB405007CB4050028
:10487000044A054B9B1AB1EBD30F34BF52F83100F9
:10488000002070474CB305006CB40500084B10B411
:10489000C31A44681B110133237143689A710122C2
:1048A0004368196043685A715DF8044B10F0C3BC4B
:1048B0006CB405002DE9F04F85B002AF0446D7E98E
:1048C0000EA90E46934698463D6BBAF1000F35D0BF
:1048D000C7F80490CDF800901021534600207A6B61
:1048E000FFF7BAFA0146164A04F007040BF0070B6B
:1048F000E40002EA412244EA8B141443114A02EA1A
:10490000C54217350D4425F00705ADEB050D1443E1
:1049100002ADBAF1000F07D0CDF8009053467A6B84
:1049200005F11000FFF798FA434622463146284623
:1049300010F084FC0C37BD46BDE8F08F5146D2E73D
:1049400000FE07000000F87F0EB403B503AB53F878
:10495000042B01460448019310F0B3FC02B05DF84B
:1049600004EB03B0704700BF71520500CA0605D4BE
:104970008B064CBF02490349FFF7E6BF704700BFF3
:10498000C2EF0500C1EF05002DE9F04F8BB09A464C
:10499000DDE915739DF850B00693179B04460D464C
:1049A000189E08920593BBF1000F00F0858006F079
:1049B0000103099306F00803079310F03DFC06F08D
:1049C00002090246002847D020468449FFF7BCFF71
:1049D0008046B9F1000F08D016F0440F3ED12A46A8
:1049E00020467F49FFF7B0FF8044099B53B17D4BC0
:1049F000204653F82B207C4B7C49002A08BF1A46DE
:104A0000FFF7A2FF079B002B54D0794B204653F8A9
:104A10002B207849FFF798FF0546089B2BB11A46D3
:104A200020467549FFF790FF0544BAF1000F05D005
:104A3000524620467149FFF787FF05444544002F41
:104A400048D1059B002B4ED1F30700F1C0803146C1
:104A50002046FFF78BFFB4E08046BAE7684B186842
:104A60000028C1D0674B4FF47A791B684FF461611D
:104A7000B5FBF3F5B5FBF0F300FB135509FB05F5AA
:104A8000B3FBF1F2B5FBF0FE4FF03C0C01FB123131
:104A900000FB1E55B1FBFCF309FB05F5B5FBF0F57A
:104AA0000CFB131120460091CDE901E55649FFF7B3
:104AB0004BFF99E7079DB0E7BAF1010F06D1002F30
:104AC00065D1059B002B7CD000250CE0002FF8D091
:104AD0004E485DE04E483B4622464E490FF0F3FFFC
:104AE000059B002B69D0DFF84081DFF84091059FDE
:104AF0003146102F204628BF10274FF0000AFFF73D
:104B000035FF554546DC069B494620461A78FFF797
:104B10001BFF4FF0010A1AF0070F03D14146204650
:104B2000FFF712FF57453CD9069B4946204613F82C
:104B30000A20FFF709FF0AF1010ABAF1100FEAD1C2
:104B40004FF0000A20463449FFF7FEFE5246069B0E
:104B500020469A5C314B995C11F0970F08BF2E22CA
:104B60002F49FFF7F1FE0AF1010ABAF1100F1DD02B
:104B70001AF0070F03D141462046FFF7E5FE5745DF
:104B80005246E4D841462046FFF7DEFEEBE72048D8
:104B90005D46A0E741462046FFF7D6FE0AF1010A2E
:104BA000AFE720461F49FFF7CFFEC4E7069B3B4413
:104BB0000693059BDB1B059399D1BBF1000F7FF496
:104BC00043AF20460BB0BDE8F04F10F081BB20464C
:104BD000054A0649FFF7B8FE39E700BFF1CA0500EC
:104BE000F5CA0500E8B50500ECCA050061C6050078
:104BF000FCB505001ACB050020CB050024CB050031
:104C000038B5012034B50120FECA05008D520500DB
:104C100071520500C35205002FCB050082FC050030
:104C200090E30500B7FA05003EC5050029CB050055
:104C30002DE9F0410F884B6805460C4690468E687A
:104C400086B0C7F382175BB1134A9B1A43F3CF01B7
:104C500000291FDB2078C0F3C200FFF709FE0346DE
:104C6000214651F8102B6088C2F34922002A01EB3B
:104C7000020408BF0021C0F3CB00CDE90308CDE951
:104C800001140022314628460097FFF77DFE06B04A
:104C9000BDE8F0810023E3E74CB3050000210123C8
:104CA000064A904206D8064A01B901231360054B13
:104CB00018607047012140085B00F2E740420F0096
:104CC00034B5012038B50120014B00201960704730
:104CD00050B501200122024B02481A7010F0F8BAB8
:104CE0007CC501202CB6050010B5064B0C46186893
:104CF000FFF74AFD2146BDE8104003460F22024857
:104D0000184700BF50B501202CB60500F8B50D4678
:104D10000446064F4618B44201D12846F8BD14F89F
:104D2000011BBB6801485B689847F4E76CB005005D
:104D300008B5044814F0C8FF034B0020C3E9003352
:104D400008BD00BF54B5012068B50120F8B506467E
:104D5000FCF750F80546124F4FF0FF324FF0FF338B
:104D600010480CF0FBFD3C68BC420AD1002412E064
:104D7000A068FCF73FF8A84206D07B689C42F5D0BB
:104D80002468002CF4D1F1E72A463046A16815F0DA
:104D9000C0FC0028F1D103480CF05AFE2046F8BDB3
:104DA00068B5012054B501201FB504464FF0FF320D
:104DB0004FF0FF3312480CF0D1FD0CB1A06888B958
:104DC000104B0293002301221846CDE900330E490F
:104DD00010F08CFA6FF0150409480CF039FE2046EB
:104DE00004B010BDFFF7B2FF08B1084BE9E7084B6C
:104DF0005A68C4E9003214605C600446ECE700BF06
:104E000054B501206BCB05006CB3050084CB0500C5
:104E100068B501202DE9F04105460E461746104CB5
:104E2000DFF84080444507D310F0B5FB6A230360E8
:104E30004FF0FF30BDE8F0812368AB4200D063B98A
:104E40003A4631462846A368984730B13A4631463B
:104E50002846E368BDE8F04118471034E2E700BF98
:104E60003CB305004CB30500014B1860704700BF10
:104E700070B501202DE9F84305464FF02003EFF30C
:104E8000118683F31288BFF36F8F4FF00C090D4B1F
:104E90000D4F1C68DFF834802CB986F31188BFF3FE
:104EA0006F8FBDE8F883D4E90123002D18BF1346A6
:104EB0002BB198F8142009FB02F2B85C98472468DB
:104EC000EAE700BF90B5012084B5012054BC012061
:104ED00070B5084D084E2C68013C002C02DA002306
:104EE0002B6070BD56F82400012100F0BDF9013C93
:104EF000F3E700BF74B5012090AA01207FB50BAB8A
:104F000005930393054B0122029300231846CDE934
:104F10000033FFF7CFFC07B05DF804FBADCB050015
:104F2000012270B5164B1C7D04F01F039A40D0433C
:104F3000144B610903EB8103D3E8EF1F01EA00057D
:104F4000C3E8E65F002EF7D10A4213D00E4B0F4D97
:104F50008BB10C236343EA185178E85C10F051F9E7
:104F60000020FFF787FF0C235C4300232A192B51F5
:104F7000C2E9013370BD83F31188BFF36F8FEFE790
:104F800054BC012098B501200352050084B50120CE
:104F900010B54FF02003EFF3118483F31288BFF3B1
:104FA0006F8F0C22054B02FB003307C983E8070013
:104FB00084F31188BFF36F8F012010BD78B50120F5
:104FC0002DE9F0476D4B06461C7D88B04FF020035D
:104FD000EFF3118783F31288BFF36F8F0C256543BE
:104FE000674BDFF8C081595D5A19002972D007CA92
:104FF00008EB050C8CE8070000225A5587F311884E
:10500000BFF36F8F0C23634308EB030218F80330E0
:10501000002B00F0A580731C0FD04FF4004000213E
:105020009768584D0023E7FB0051574A2846FBF785
:105030006FFD0121301A15F05FF80C23634318F857
:105040000330524F012B16D0D7E8EF5F013DC7E880
:10505000E35F002BF8D175B907A80CF0F3F91C2316
:105060005843DFF844A11C38CAF80050079D054496
:10507000079B9D4239D20DF0AFF80120FFF7FAFEF1
:10508000434B620903EB8203012204F01F018A40B3
:10509000D3E8EF0F1043C3E8E10F0029F8D13D4BEF
:1050A00043B10C235C4308EB0403597818F804005F
:1050B00010F09BF8D7E8EF3F5A1CC7E8E12F002912
:1050C000F8D10BB9FFF704FFFFF72AFF0DF098F8AE
:1050D000012046E00146204600F068F800288DD007
:1050E00007C8454485E8070088E7284610F074F9AA
:1050F000002841D1284610F07FF900283CD12846ED
:1051000010F072F90646B8BB0146284600F0ACF82C
:1051100020F02003783381462ED010F1860F2BD05B
:10512000002821DA01202D6800F092F81A4B0122A4
:10513000CDE90409CDE901633046334617490395AB
:105140000096FFF7DBFEFFF7C3FE0C23634308F86E
:105150000360D7E8EF3F0133C7E8E23F002AF8D108
:10516000002008B0BDE8F087DAF800300C4A42F8B9
:1051700023500133CAF800301C3D79E754BC0120AC
:1051800078B501203F420F0040420F006CA501207E
:1051900098B50120EB510500ADCB05002CB40500FE
:1051A00090AA012084B5012074B501202DE9F04FAB
:1051B00085B00E4603A900F043F84FF400470446BB
:1051C0004FF0000B1B4B039DD3F800A0431E1BB2F6
:1051D00003EB4303DFF8648005EB830524B9A146A4
:1051E000484605B0BDE8F08FC446594668680023BC
:1051F000E0FB07C1104A6046FBF78AFCC4465946EB
:105200000190A8680023E0FB07C10B4A6046FBF74A
:105210007FFCBAF1FF3FA94601D0824505D9731C36
:10522000DED0019B1844B042DAD9013CA4B20C3D57
:10523000D4E700BF70A5012040420F003F420F009D
:1052400008B9024B0B600020704700BF3CB6050058
:1052500003289ABF024B53F820000248704700BF52
:105260003CB60500C3EF050070B5846903460D46E2
:105270008CB310F0C1F888BB1D48227A465CB2425C
:105280002FD01C48405C90422ED11846E2689047CF
:10529000002811DA022D0DD0032D0CD110F1860F4C
:1052A00008D0231DD3E8EF1F41F00201C3E8E21F3D
:1052B000002AF7D1267270BD022D267201D000207F
:1052C000F9E70434D4E8EF3F23F00203C4E8E23FF7
:1052D000002AF4D0F6E76FF05700ECE74FF0FF300C
:1052E000E9E76FF07700E6E76FF08500E3E700BFDE
:1052F000F2CB0500EECB0500014910220A60704791
:1053000010ED00E072B6404080F31188BFF36F8F5C
:10531000BFF34F8F30BF62B6BFF36F8F704700BFD0
:1053200072B6494081F3118820BF80F3118862B6BC
:10533000704700BF2DE9F04780460D468CB000292C
:1053400077D000248B68012205934B682046049394
:105350000B683B4903933B4BCDE900440293234642
:1053600010F052F86B69012205932B6920460493D3
:10537000EB6833490393344B0094CDE90143234652
:1053800010F042F8EB6901220393304B2046CDE93F
:1053900001432B492346009410F036F82F46264649
:1053A000DFF8B490DFF898A0D7ED0B7AFCEEE77A3F
:1053B000E31C0993CDED0A7AD7ED0A7AFCEEE77A81
:1053C000A31C0793CDED087AD7ED097AFCEEE77AB6
:1053D000631C0593CDED067AD7ED087A0023FCEE29
:1053E000E77ACDE90294CDED047A012251461846C0
:1053F000CDE90066043410F007F8102C07F110070F
:10540000D2D12B6E01220393114B0D49CDE90163DB
:105410000023009618460FF0F7FFAB6901220393B3
:105420000C4B0749CDE901630023009618460FF0A5
:10543000EBFF294640460CB0BDE8F0470CF016B82B
:1054400024B40500F6CB050025CC050054CC05009E
:10545000A6CC0500B5CC050063CC050040B2002801
:1054600007DB01234109034A00F01F00834042F893
:105470002130704700E100E040B200280CDB01223F
:105480000649430900F01F008240203341F82320E1
:10549000BFF34F8FBFF36F8F704700BF00E100E095
:1054A000054B420953F82220012300F01F0003FAA4
:1054B00000F01040704700BF00E100E040B200285B
:1054C00001F10101ACBF00F16040064B4FEA411110
:1054D000C9B2ABBF00F5614000F00F0080F80013C7
:1054E0001954704714ED00E030BFFFF7FDBF00BF57
:1054F000144A08B5144B22F07F029A60BFF34F8F15
:10550000BFF36F8FD3F8882022F47002C3F888208D
:10551000D3F8882042F4A002C3F888204FF040421C
:10552000C3F83422BFF34F8FBFF36F8F0023E1EE38
:10553000103A0CF03BF80CF09FFF00F0B3FB0CF0BE
:1055400075F800BF0000040000ED00E0094A0A49B8
:10555000936809689867D96708494B6843F0805396
:105560004B60002383F31188BFF36F8F9368D86F6C
:10557000704700BF54BC0120A0BC050000ED00E056
:1055800022498A6882F8C1E04FF030001044EFF3FE
:10559000098C80E8F01F1EF0100F03D102F180008B
:1055A00080EC108A202080F31288BFF36F8F184F91
:1055B0004FF000660A6A8A603E6092F9C1E0906F1F
:1055C0000023936780F311881EF0100F03D000238F
:1055D000E1EE103A03E002F1800090EC108AEFF364
:1055E000148323F0040383F31488BFF36F8F02F155
:1055F000300090E8F01F8CF3098802F1000004B538
:105600000FF021FFBDE804407047000054BC0120AA
:1056100004ED00E01EF0040F0CBFEFF30880EFF381
:105620000980816911F8021C0229FFD001B50FF031
:10563000FBFE01BD42F8203C009B0D4942F81C3C9A
:10564000019B21F0010142F8183C029B42F8081C22
:1056500042F8143C4FF0807342F8043C0023836707
:105660004FF43C43203A0265C0F8C030704700BF99
:10567000ED4B05000023E1EE103AEFF3148323F025
:10568000040383F31488BFF36F8FBFF36F8F094B4D
:105690009860836E83F30B88104681F3098800219C
:1056A00063B681F31188BFF36F8F002200230FF0E0
:1056B0009DFA00BF54BC012001B572B60B4AD069F7
:1056C00000281EBF0021D16114F0EFFA62B6EFF39B
:1056D0000580A0F110004FEAC0000549014409C946
:1056E0009847BDE8014003490847000054BC012029
:1056F000F8B00500F9560400044B9968186A88420E
:1057000003D003494FF080520A60704754BC012017
:1057100004ED00E0F0B500243D4B85B00293074650
:1057200023460E4601222046CDE9004439490FF0B8
:105730008EFE394B9B6ADD0609D5384B0122CDE937
:10574000014320462346334900940FF080FE324B3C
:105750009B6A180709D5324B0122029300232D4979
:105760001846CDE900330FF072FE2B4DAB6A990756
:105770001ED500242B4B0122029320462346CDE95F
:10578000004424490FF063FE6B6BAA6A12060FD522
:105790000393254B0122CDE90143204623461D49B1
:1057A00000940FF054FE1FB1AB6A23F08003AB628C
:1057B000194B9B6ADC0709D51C4B0122029300237D
:1057C00014491846CDE900330FF041FE124B9B6A95
:1057D000980609D5164B0122029300230D4918465D
:1057E000CDE900330FF033FE00200B4B9A6AD1064F
:1057F00058BF9A6A9A6A920642BF5A6A22F40052C5
:105800005A629A6A42F0FF029A62307005B0F0BDA7
:10581000E3CC050024B4050000ED00E0F9CC050060
:105820002CCD05003FCD050057CD05006DCD050001
:105830008CCD0500F0B500243B4B85B002930746A4
:1058400023460E4601222046CDE9004437490FF099
:10585000FEFD374B9B6ADB0409D5364B0122CDE9AF
:10586000014320462346314900940FF0F0FD304BB0
:105870009B6A1D0509D5304B0122029300232B4959
:105880001846CDE900330FF0E2FD294DAB6A9C05C7
:105890001ED50024294B012220460293CDE9004465
:1058A000234622490FF0D3FDAB6BAA6A10040FD533
:1058B0000393234B0122CDE90143204623461B4994
:1058C00000940FF0C4FD1FB1AB6A23F40043AB6238
:1058D000174B9B6A590509D51A4B012202930023E5
:1058E00012491846CDE900330FF0B1FD104A936A12
:1058F00013F4807312D0144B029300230122184634
:10590000CDE9003309490FF0A2FD0020084A936A4F
:1059100043F47F439362307005B0F0BD926A920405
:10592000F3D50A4A0292E9E7BBCD050024B405008D
:1059300000ED00E0D1CD05002CCD0500E2CD050045
:10594000FBCD050010CE05002BCE05008CCD05004B
:105950001FB500243B4B0122029320462346CDE98C
:10596000004439490FF073FD384B9B6A9B0109D500
:10597000374B0122CDE901432046234632490094AA
:105980000FF065FD314B9B6ADC0109D5314B0122DB
:10599000029300232C491846CDE900330FF057FD40
:1059A0002A4B9C6A14F480140AD02B4B01220293D8
:1059B000002325491846CDE900330FF048FD0224A5
:1059C000224B9B6A180309D5244B01220293002322
:1059D0001D491846CDE900330FF039FD1B4B9B6A7A
:1059E000590309D51E4B012202930023164918467C
:1059F000CDE900330FF02BFD144B9B6A9A0309D5B8
:105A0000184B0122029300230F491846CDE90033B9
:105A10000FF01DFD0D4B9B6ADB0309D5124B0122D4
:105A20000293002308491846CDE900330FF00FFD1B
:105A3000064A2046936A6FEA03436FEA1343936270
:105A400004B010BD43CE050024B4050000ED00E015
:105A50005BCE05006ECE050088CE0500B2CE0500F7
:105A6000D0CE0500F5CE05000FCF05002DE9F0439F
:105A7000754B0546D3F80480894614460026A3B02A
:105A8000C8F3080786F31188BFF36F8F02F07F43D6
:105A9000B3F17F4F25D112F0010322D1510603D477
:105AA00022070DD401260DE0684A1846CDE90132DF
:105AB0006749012200930FF0CAFC14F0040400D0DF
:105AC0004D4600264FF00009FB1E8DF81F90092B54
:105AD00000F2A080DFE803F0079498909E9E9E9EBF
