:020000024000BC
:10000000380E02204D5B0400C9520500215B04003C
:10001000215B0400215B0400215B0400215B0400E0
:10002000000000000000000000000000A5540400D3
:10003000215B04000000000011540400215B040057
:100040004955040049550400495504004955040028
:100050004955040049550400495504004955040018
:100060004955040049550400495504004955040008
:1000700049550400495504004955040049550400F8
:1000800049550400495504004955040049550400E8
:1000900049550400495504004955040049550400D8
:1000A00049550400495504004955040049550400C8
:1000B00049550400495504004955040049550400B8
:1000C00049550400495504004955040049550400A8
:1000D0004955040049550400495504004955040098
:1000E0004955040049550400495504004955040088
:1000F0004955040049550400495504004955040078
:100100004955040049550400495504004955040067
:100110004955040049550400495504004955040057
:100120004955040049550400495504004955040047
:100130004955040049550400495504004955040037
:040140004955040019
:04014400FFFFFFFFBB
:1001480081F0004102E000BF83F0004330B54FEA80
:1001580041044FEA430594EA050F08BF90EA020FED
:100168001FBF54EA000C55EA020C7FEA645C7FEA80
:10017800655C00F0E2804FEA5454D4EB5555B8BFA3
:100188006D420CDD2C4480EA020281EA030382EA14
:10019800000083EA010180EA020281EA0303362DA6
:1001A80088BF30BD11F0004F4FEA01314FF4801C79
:1001B8004CEA113102D0404261EB410113F0004F8B
:1001C8004FEA03334CEA133302D0524263EB430342
:1001D80094EA050F00F0A780A4F10104D5F1200EE0
:1001E8000DDB02FA0EFC22FA05F2801841F100013B
:1001F80003FA0EF2801843FA05F359410EE0A5F10F
:1002080020050EF1200E012A03FA0EFC28BF4CF03F
:10021800020C43FA05F3C01851EBE37101F00045F5
:1002280007D54FF0000EDCF1000C7EEB00006EEB02
:100238000101B1F5801F1BD3B1F5001F0CD349088C
:100248005FEA30004FEA3C0C04F101044FEA4452E3
:1002580012F5800F80F09A80BCF1004F08BF5FEA6A
:10026800500C50F1000041EB045141EA050130BD4A
:100278005FEA4C0C404141EB0101013C28BFB1F55C
:10028800801FE9D291F0000F04BF01460020B1FAA7
:1002980081F308BF2033A3F10B03B3F120020CDA7A
:1002A8000C3208DD02F1140CC2F10C0201FA0CF058
:1002B80021FA02F10CE002F11402D8BFC2F1200CBD
:1002C80001FA02F120FA0CFCDCBF41EA0C01904073
:1002D800E41AA2BF01EB0451294330BD6FEA0404BC
:1002E8001F3C1CDA0C340EDC04F11404C4F12002A7
:1002F80020FA04F001FA02F340EA030021FA04F3B9
:1003080045EA030130BDC4F10C04C4F1200220FA0F
:1003180002F001FA04F340EA0300294630BD21FA4D
:1003280004F0294630BD94F0000F83F4801306BF13
:1003380081F480110134013D4EE77FEA645C18BF07
:100348007FEA655C29D094EA050F08BF90EA020F9E
:1003580005D054EA000C04BF1946104630BD91EA96
:10036800030F1EBF0021002030BD5FEA545C05D199
:100378004000494128BF41F0004130BD14F58004D8
:100388003CBF01F5801130BD01F0004545F0FE414C
:1003980041F470014FF0000030BD7FEA645C1ABF81
:1003A800194610467FEA655C1CBF0B46024650EAB8
:1003B800013406BF52EA033591EA030F41F40021E4
:1003C80030BD00BF90F0000F04BF0021704730B56A
:1003D8004FF4806404F132044FF000054FF000013F
:1003E80050E700BF90F0000F04BF0021704730B500
:1003F8004FF4806404F1320410F0004548BF4042D5
:100408004FF000013EE700BF42004FEAE2014FEA29
:1004180031014FEA02701FBF12F07F4393F07F4F04
:1004280081F06051704732F07F4208BF704793F007
:100438007F4F04BF41F40021704730B54FF460741A
:1004480001F0004521F000411CE700BF50EA01021D
:1004580008BF704730B54FF000050AE050EA0102C6
:1004680008BF704730B511F0004502D5404261EB36
:1004780041014FF4806404F132045FEA915C3FF477
:10048800D8AE4FF003025FEADC0C18BF03325FEA14
:10049800DC0C18BF033202EBDC02C2F1200300FAC5
:1004A80003FC20FA02F001FA03FE40EA0E0021FAEA
:1004B80002F11444BDE600BF70B54FF0FF0C4CF4D8
:1004C800E06C1CEA11541DBF1CEA135594EA0C0F8A
:1004D80095EA0C0F00F0DEF82C4481EA030621EAC5
:1004E8004C5123EA4C5350EA013518BF52EA033500
:1004F80041F4801143F4801338D0A0FB02CE4FF0B2
:100508000005E1FB02E506F00042E0FB03E54FF0E1
:100518000006E1FB03569CF0000F18BF4EF0010ED9
:10052800A4F1FF04B6F5007F64F5407404D25FEAD5
:100538004E0E6D4146EB060642EAC62141EA555188
:100548004FEAC52040EA5E504FEACE2EB4F1FD0CCA
:1005580088BFBCF5E06F1ED8BEF1004F08BF5FEA48
:10056800500E50F1000041EB045170BD06F00046FA
:1005780046EA010140EA020081EA0301B4EB5C04A7
:10058800C2BFD4EB0C0541EA045170BD41F480119F
:100598004FF0000E013C00F3AB8014F1360FDEBFC4
:1005A800002001F0004170BDC4F10004203C35DAA0
:1005B8000C341BDC04F11404C4F1200500FA05F323
:1005C80020FA04F001FA05F240EA020001F00042C4
:1005D80021F0004110EBD37021FA04F642EB06013A
:1005E8005EEA430E08BF20EAD37070BDC4F10C0464
:1005F800C4F1200500FA04F320FA05F001FA04F228
:1006080040EA020001F0004110EBD37041F1000113
:100618005EEA430E08BF20EAD37070BDC4F120051E
:1006280000FA05F24EEA020E20FA04F301FA05F286
:1006380043EA020321FA04F001F0004121FA04F22E
:1006480020EA020000EBD3705EEA430E08BF20EAFE
:10065800D37070BD94F0000F0FD101F00046400038
:1006680041EB010111F4801F08BF013CF7D041EABA
:10067800060195F0000F18BF704703F000465200BE
:1006880043EB030313F4801F08BF013DF7D043EA8F
:100698000603704794EA0C0F0CEA135518BF95EA45
:1006A8000C0F0CD050EA410618BF52EA4306D1D1CC
:1006B80081EA030101F000414FF0000070BD50EAEB
:1006C800410606BF1046194652EA430619D094EA75
:1006D8000C0F02D150EA013613D195EA0C0F05D15F
:1006E80052EA03361CBF104619460AD181EA0301B3
:1006F80001F0004141F0FE4141F470014FF000006B
:1007080070BD41F0FE4141F4780170BD70B54FF005
:10071800FF0C4CF4E06C1CEA11541DBF1CEA135585
:1007280094EA0C0F95EA0C0F00F0A7F8A4EB050467
:1007380081EA030E52EA03354FEA013100F088805E
:100748004FEA03334FF0805545EA131343EA126327
:100758004FEA022245EA111545EA10654FEA0026DC
:100768000EF000419D4208BF964244F1FD0404F595
:10077800407402D25B084FEA3202B61A65EB0305F1
:100788005B084FEA32024FF480104FF4002CB6EBAE
:10079800020E75EB030E22BFB61A754640EA0C002E
:1007A8005B084FEA3202B6EB020E75EB030E22BF6E
:1007B800B61A754640EA5C005B084FEA3202B6EBAF
:1007C800020E75EB030E22BFB61A754640EA9C006E
:1007D8005B084FEA3202B6EB020E75EB030E22BF3E
:1007E800B61A754640EADC0055EA060E18D04FEAFC
:1007F800051545EA16754FEA06164FEAC30343EA9C
:1008080052734FEAC2025FEA1C1CC0D111F4801F68
:100818000BD141EA00014FF000004FF0004CB6E761
:1008280011F4801F04BF01430020B4F1FD0C88BF00
:10083800BCF5E06F3FF6AFAEB5EB030C04BFB6EB0B
:10084800020C5FEA500C50F1000041EB045170BDFE
:100858000EF0004E4EEA113114EB5C04C2BFD4EB2B
:100868000C0541EA045170BD41F480114FF0000EAF
:10087800013C90E645EA060E8DE60CEA135594EA2B
:100888000C0F08BF95EA0C0F3FF43BAF94EA0C0F2E
:100898000AD150EA01347FF434AF95EA0C0F7FF4A3
:1008A80025AF104619462CE795EA0C0F06D152EAF7
:1008B80003353FF4FDAE1046194622E750EA4106DB
:1008C80018BF52EA43067FF4C5AE50EA41047FF4EC
:1008D8000DAF52EA43057FF4EBAE12E74FF0FF3C51
:1008E80006E000BF4FF0010C02E000BF4FF0010C22
:1008F8004DF804CD4FEA410C7FEA6C5C4FEA430C9B
:1009080018BF7FEA6C5C1BD001B050EA410C0CBFE9
:1009180052EA430C91EA030F02BF90EA020F00204B
:10092800704710F1000F91EA030F58BF994208BFB2
:1009380090422CBFD8176FEAE37040F0010070476F
:100948004FEA410C7FEA6C5C02D150EA013C07D1C6
:100958004FEA430C7FEA6C5CD6D152EA033CD3D011
:100968005DF8040B704700BF8446104662468C460B
:100978001946634600E000BF01B5FFF7B7FF00283E
:1009880048BF10F1000F01BD4DF808EDFFF7F4FF67
:100998000CBF012000205DF808FB00BF4DF808EDF2
:1009A800FFF7EAFF34BF012000205DF808FB00BF15
:1009B8004DF808EDFFF7E0FF94BF012000205DF837
:1009C80008FB00BF4DF808EDFFF7CEFF94BF0120EC
:1009D80000205DF808FB00BF4DF808EDFFF7C4FFE5
:1009E80034BF012000205DF808FB00BF4FEA410C2E
:1009F8007FEA6C5C02D150EA013C0AD14FEA430C11
:100A08007FEA6C5C02D152EA033C02D14FF000004D
:100A180070474FF0010070474FEA410212F500128B
:100A280015D211D56FF47873B3EB625212D94FEA2D
:100A3800C12343F0004343EA505311F0004F23FA17
:100A480002F018BF404270474FF00000704750EA6C
:100A5800013005D111F0004008BF6FF00040704729
:100A68004FF00000704700BF4FEA4102B2F1E04387
:100A780024BFB3F5001CDCF1FE5C0DD901F0004C7D
:100A88004FEAC0024CEA5070B2F1004F40EB8300CD
:100A980008BF20F00100704711F0804F21D113F1F9
:100AA8003872BCBF01F00040704741F480114FEA32
:100AB8005252C2F11802C2F1200C10FA0CF320FABB
:100AC80002F018BF40F001004FEAC1234FEAD323D8
:100AD80003FA0CFC40EA0C0023FA02F34FEA430342
:100AE800CCE77FEA625307D150EA01331EBF4FF0CB
:100AF800FE4040F44000704701F0004040F0FE40E6
:100B080040F40000704700BF53B94AB9002908BF34
:100B180000281CBF4FF0FF314FF0FF3000F00CB839
:100B2800ADF1080C6DE904CE00F008F8DDF804E03A
:100B3800DDE9022304B07047704700BF2DE9F04794
:100B480086468C460846089E154674461946002B6C
:100B580040F0C1808542B2FA82F245D94AB1C2F169
:100B6800200300FA02FC954094402EFA03F343EA6E
:100B78000C0C4FEA154EA8B2230CBCFBFEF80EFB7A
:100B880018CC08FB00F943EA0C43994528D9EB181F
:100B980008F1FF3704D2994502D9A8F102072B447E
:100BA800A3EB0903A4B2B3FBFEFC0EFB1C330CFB46
:100BB80000F044EA0344A04214D92C190CF1FF3385
:100BC80004D2A04202D9ACF102032C44241A43EA0D
:100BD80007401EB1D440002334607360BDE8F0873D
:100BE8004746DDE76346F1E792BB431B01214FEA25
:100BF800154EAFB2200CB3FBFEFC0EFB1C330CFBF6
:100C080007F840EA0343984561D9EB180CF1FF3027
:100C180004D2984502D9ACF102002B44A3EB080397
:100C2800A4B2B3FBFEFC0EFB1C330CFB07F744EA33
:100C38000344A7424DD92C190CF1FF3304D2A74223
:100C480002D9ACF102032C44E41B43EA0040C0E79C
:100C5800C2F120039540944020FA03F12EFA03F3E1
:100C68004FEA154E9040AFB20343B1FBFEFC0EFBBA
:100C78001C10190C0CFB07F841EA0041884522D9E1
:100C880069180CF1FF3004D2884502D9ACF1020092
:100C98002944A1EB08019BB2B1FBFEFC0EFB1C1121
:100CA8000CFB07F743EA01439F420ED9EB180CF1FE
:100CB800FF3104D29F4202D9ACF102012B44DB1B65
:100CC80041EA004193E76046E3E76146F7E760469B
:100CD800A4E76346B8E7834206D916B90021084657
:100CE8007CE7C6E900E0F9E7B3FA83F78FB98342F6
:100CF80001D3724508D8BEEB020460EB0303012060
:100D08009C461EB9002169E73846FAE7C6E9004C57
:100D1800F8E7C7F1200CBB400EFA07F522FA0CF4ED
:100D28002EFA0CF1BA401C4320FA0CF3B8404FEAF3
:100D3800144901431FFA84FEB3FBF9F809FB183084
:100D48000B0C08FB0EFA43EA00439A4540D9E31816
:100D580008F1FF3004D29A4502D9A8F102002344D1
:100D6800A3EB0A0389B2B3FBF9F809FB183308FBB4
:100D78000EFE41EA03418E452CD9611808F1FF3374
:100D880004D28E4502D9A8F10203214443EA004067
:100D9800A1EB0E01A0FB02984145CE46434602D383
:100DA80006D14D4504D20138B9EB020E68EB0403B5
:100DB800002EA7D0B5EB0E0261EB030101FA0CFC83
:100DC80022FA07F3F9404CEA0303C6E9003199E730
:100DD8004046C5E74346D9E710F8012B11F8013B17
:100DE800012A28BF9A42F7D0D01A7047034613F851
:100DF800012B002AFBD1181A0138704700000000A7
:100E08002DE9F04F824616461C4600259FB00391F7
:100E1800307810B9284600F085BD731C2528069344
:100E280006D00399D0470028C0F27C8501351BE223
:100E38001822002110A819F0DFF97378252B00F08B
:100E4800BA80002398469E469C461846711C0F4659
:100E580011F8012B2B2A00F0DD8000F2D480202A23
:100E680000F0DB80232A00F0DB802BB19DF84830AE
:100E780043F040038DF84830B8F1000F05D09DF8D5
:100E8800483043F020038DF84830BEF1000F05D0FC
:100E98009DF8483043F010038DF84830BCF1000F3E
:100EA80005D09DF8483043F008038DF8483028B144
:100EB8009DF8483043F004038DF848309DF84830D9
:100EC80003F04401442903D16FF386138DF84830A9
:100ED8009DF848302A2A43F080030E978DF8483051
:100EE80040F0A3809DF8493043F001038DF8493064
:100EF8007B1C1A782E2A0CBF012100219DF849205D
:100F080061F341028DF849200CD15A1C0E925A788F
:100F18002A2A40F09A809DF84920023342F00402C0
:100F28008DF849201A786C2A00F0BB8000F29D8069
:100F3800682A00F0A3806A2A00F0BC804C2A00F0DE
:100F4800C18013F8012B782A06938DF84B2000F204
:100F580001816D2A00F2C380692A00F2FB80572ABA
:100F680000F2DA80412A04D0A2F14503022B00F2F4
:100F7800F18004219DF84A3002F0DF02A2F1410716
:100F880061F302037A429DF849107A4162F3C7116E
:100F98000A068DF84A308DF84910CBB200F1198154
:100FA80003F07802182A40F003816FF3C6038DF826
:100FB80049300023F2E0B21C06928DF84B309DF8C0
:100FC8004930D90740F1078154F8042B002A0492CC
:100FD80008DA9DF8482042F004028DF84820049A67
:100FE800524204925A0740F1FE8054F8047B002FC5
:100FF80080F2FD809DF849306FF341038DF8493048
:101008004FF0FF37F3E02D2A0DD0302A7FF42DAFB3
:1010180001231CE74FF0010C19E74FF0010E16E70A
:101028004FF0010813E7012011E70EA803F006FAB4
:101038000E9BBB423FF45DAF9DF848201390C00F54
:1010480060F341028DF8482053E70EA803F0F6F943
:101058009DF848301490C3F3400242EAD07262F31C
:1010680041038DF848300E9B5CE7742A26D07A2A13
:101078007FF467AF06219DF849200CE05A78682A6A
:101088009DF8492006D1012161F3C6028DF8492057
:10109800023356E7022161F3C6028DF84920013375
:1010A8004FE75A786C2A9DF8492001D10421EBE7D3
:1010B8000321F0E705219DF84920ECE707219DF879
:1010C8004920E8E7BDF8482022F4F04222F0020265
:1010D80042F4804242F00202ADF84820DFE76E3A5F
:1010E800D3B201229A4040F282431A429DF8493015
:1010F80037D112F0240F5FD1D1072BD503219DF8EA
:101108004A2003F07803A3F1400061F3020243424E
:101118008DF84A20434141E00120A2F15801C9B2AB
:1011280000FA01F111F4624F7FF423AF40F6010396
:1011380019429DF849301AD111F4043F0AD09DF89C
:101148004A2060F3020203F07803402B8DF84A200E
:101158007FF42FAF9DF8483043F001038DF84830F5
:1011680027E702219DF84A2061F30202EBE70220FB
:101178009DF84A1003F0780360F30201402B8DF8C4
:101188004A1002BF9DF8481041F001018DF848103F
:10119800632A7FF40EAF003B18BF01239DF8482057
:1011A800C2F340010B4363F341028DF8482006E780
:1011B80013F0380FCED1FCE603219DF84A2013F036
:1011C800780F61F3020214BF012300238DF84A202F
:1011D800E4E70123E2E79DF94820002AACBF4FF07D
:1011E800FF32139AFDE69F077FF50AAF149F00238D
:1011F800CDE913339DF84A3003F00702042A9DF81D
:10120800492007D1900705D49DF949100029ACBFA2
:1012180006270D2703F00703012BC2F3C30233D1BE
:10122800D31E042B04D8DFE803F021464621210011
:101238002368012A4FEAE371CDE910311CD19DF9E9
:101248004030D917CDE9103104349DF8483099075A
:10125800079350D032465046069B039913F0F1FE8F
:101268000028C0F25F830544069ED1E554F8043B8C
:10127800D917CDE91031E8E7022AE5D119B243F3CD
:10128800C033CDE91013DFE7022B24D1D31E042B82
:1012980004D8DFE803F0181010181800012A4FF0DE
:1012A800000154F8043B14D0022ACDE91031CCD106
:1012B8009BB21093C9E7073424F00704F4E802014D
:1012C800CDE91001C1E754F8043B109300231193B2
:1012D800BBE7DBB2CDE7042B08D1073424F00704C1
:1012E800D4E900010834CDE91001AEE7032BACD1F5
:1012F80054F8043BDDE79DF84BB0BBF1780FB3D849
:10130800BBF1570F49D8BBF1250F00F09180BBF115
:10131800240FA9D9BBF1410F03D0ABF14502022A32
:10132800A2D8DDE91012002AC0F23681079B1E07F9
:1013380000F13581C3F300194FEA4919C2F30A5085
:10134800C2F31302002840F02D8151EA020614BFAF
:1013580001260026D20242EA5152C902BBF1460FC9
:1013680040EA010E42EAE07C08BF4FF0660B5EEAF5
:101378000C0CCDE90C1200F09B81002E40F0498145
:101388000D9AA0F2FE3842F000420D920020DDE9ED
:101398000C1206464FF0050C55E1ABF15801202917
:1013A8003FF662AF01A050F821F000BF3F150400DE
:1013B8007112040071120400711204007112040009
:1013C80071120400711204007112040071120400F9
:1013D8002B13040071120400C3140400D714040072
:1013E8002B1304002B1304002B13040071120400A8
:1013F800D714040071120400711204007112040061
:1014080071120400791504003F1504004515040005
:1014180071120400711204003F14040071120400D8
:101428003F15040071120400711204003F150400F6
:1014380058460399F6E4002F109E3ADB39463046A9
:1014480019F0D0F83718002E3FF40EAF4FF000090E
:101458009DF84A3013F01002059200F058820230CD
:1014680013F04003DDF84C80089318BF149B4044E8
:1014780018BFC018049BCDF81C80002B40F3628273
:101488009DF848201B1A50070493C2F3800B00F103
:101498005982510640F14982B9F1000F07D04846F8
:1014A8000399D0470028C0F23D82D9460135302241
:1014B8003CE23046FFF79AFCC4E7109B4FF0000966
:1014C80001208DF85C300DF15D0717AEC0E7079B72
:1014D8001A0754BFC3F300194FF02B09DDE9102395
:1014E80058BF4FEA4919002B06DA4FF02D0952422E
:1014F80063EB4303CDE91023DDE910010DF175031A
:10150800009312AA17AB02F0AFFF0646002F0CDBC0
:101518009DF848200DF175039B1B6FF386129F42BF
:101528008DF8482001D9FB1A1393002E3FF49CAE86
:101538000DF175075BE04FF00009DDE71098002812
:1015480000F0E0810DF175030093002117AB12AA9A
:1015580002F08AFFBDF84A30064603F0EF0343F471
:10156800F04343F010034FF00009ADF84A30CDE7DF
:10157800109B072A3FF678AEDFE802F00C04060C51
:1015880008080C0C1D706FE61D806DE6EA17C3E9AC
:10159800005269E61D6067E64FF02D09CEE64FF070
:1015A8002B09CBE640F2FF76B0422FD1A0480BF1D1
:1015B8000103DBB2C35C0A4303F003031ED1012B12
:1015C8000BBF492369234E216E210CBF4622662298
:1015D8008DF85C309DF848308DF85D106FF38613F8
:1015E8008DF85E208DF848300DF15F0717AEB81BF7
:1015F800B9F1000F3FF42CAF013029E7012B15BFDB
:101608006E234E23612141211A46E1E70026A1E617
:10161800013849185241002AFADACDE90C12AFE62E
:10162800490841EAC2715208B2F1333F404608F115
:101638000108F5D200F1020801200CFB02FEA1FB13
:101648000C12013E724418F1020FE9DB08B1CDE932
:101658000C12DDE90C21B8F1000F2CDCC8F10400F4
:10166800A0F1200C08F11C08C24001FA08F821FA80
:101678000CFCC1400BF0DF0042EA0802472842EAAE
:101688000C0238D1F01C01DBB7422ADAABF10203B5
:10169800002F5FFA83FB7BDD9DF84800013F83063E
:1016A80076D43B1E18BF0123059307F101082CE0EF
:1016B8004FF000086AE6023241F100010CA808F177
:1016C800FF380136CDE90C2113F08CFCDDE90C2143
:1016D80092184941002908F1FF38F9DACDE90C21BF
:1016E800B7E79DF84830BF1B98064FD43B1E18BF7C
:1016F8000123059304E00023BBF1660F0593D4D1C1
:1017080017EB06084FF0660B44D4B8F1100FA8BFCA
:101718004FF010089FED447B10208DED0E7B0B9051
:10172800DDE90E03B8F1000F37D1121841EB0301C0
:10173800B1F1805F41D2CDE90C21079BBBF1660F67
:1017480003F0200240F0BD80002E41DC30218DF8EE
:101758005C10002A6ED1002F40F3B5812E228DF83F
:101768005D2086B17242BA42A8BF3A46002A139257
:10177800A7EB0207D4BF002201229DF84A1062F3AA
:1017880045118DF84A100DF15E0839E00023B0E7E5
:10179800002389E74FF00008BCE7400840EAC3701F
:1017A8005B08CDE90E030EA8CDE9082108F1FF3842
:1017B80013F018FCDDE90821B2E7520842EAC172C9
:1017C8000CA84908CDE90C21013613F00BFCB4E74D
:1017D8000DF15C080B99002909DD0BA90CA80792EB
:1017E80013F018FC013E079A08F8010BF2D1139682
:1017F8009AB9002F40F365812E2108F8011B0026B5
:10180800002F20DD0B9A002A1DDD0BA90CA813F070
:1018180001FC013F08F8010BF2E72E2208F8012B22
:10182800EDE700BFAFF300800000000000000008F3
:10183800A1FA05002E228DF85D20002EA3D0002FDE
:1018480090DC0DF15E08059B002B4ED1149747469E
:101858000BF0DF02452A23D1002EBABF76422D2392
:101868002B23632EC8BF64217B70C4BFB6FBF1F382
:1018780001FB13664FF00A01C8BF03F13000B6FB45
:10188800F1F3D2BFBA1CFA1CB87087F800B017463B
:1018980003F1300001FB1363303307F8020B537078
:1018A800139B002B2CDC149B002BD4BF002301239B
:1018B8009DF84A2063F3861200238DF84A203B7076
:1018C80094E60BA90CA8079213F0A4FB079A3028FA
:1018D8008DF85C0018BF06F1FF3612B9002F40F3EF
:1018E800F2802E228DF85D204DE7474617F8012C2F
:1018F80008F1FF38302AF8D02E2A08BF4746A7E754
:101908000123D5E7714F81467E1F0520A0E51A0700
:1019180048BF0130A4E5104609920399D047002832
:10192800099A05DA1FB0BDE8F08F2022DDF810B063
:10193800594600290BF1FF3BEDDC049BCDF810B0B4
:101948002B445D1AB9F1000F05D048460399D047DA
:101958000028E7DB0135089B002B77D09DF949303B
:10196800002B28DB3346DFF8689118789B4619F876
:101978000020013352073FD49DF84A30AE1B980629
:101988005E4407D44246002A08F1FF383BDC079B37
:1019980033449E1A9BF800002E280AD10399D04799
:1019A8000028BFDBB8F1000F06F1010631DC0BF1AE
:1019B800010B5D4638E0B14699F80000C84670282A
:1019C80009F1010913D1AE1B149D46443544AB1BE4
:1019D800002B33DC3B4642465046039913F031FB5B
:1019E80000289FDB3044049E0546064464E00399C2
:1019F800D0470028E0DA95E705930399D0470028F7
:101A0800059BB2DA8EE730200399D0470028B9DA6F
:101A180088E730200399D04708F1FF38C0E70399D9
:101A2800D0470028FFF67EAF2878A84619F800307E
:101A380001355907F3D4A6EB0B06C5E73020039907
:101A4800D0470028FFF66EAF0136C0E79DF84A3050
:101A5800DA0601D41B0706D530200399D0470028A1
:101A6800FFF660AF0135059B3BB103999DF84B002C
:101A7800D0470028FFF656AF0135A84406E03020CD
:101A88000399D0470028FFF64DAF0135A8EB0503B1
:101A9800002BF4DC3B4632465046039913F0D1FA4A
:101AA8000028FFF63FAF28449DE720200399D04740
:101AB8000028FFF637AF0135731B002BF5DCFFF765
:101AC800D3BB1646BFE60DF15D08BCE6FAC80500B3
:101AD800A2FA050000000000F0B52DED028B0025EC
:101AE80004238BB00E460746CDE908550593002818
:101AF80000F0C080002900F0BD80062108A814F07D
:101B0800AEFF044678B1604B0390CDE90153012242
:101B18002B4628465D49009515F0FAF820460BB08B
:101B2800BDEC028BF0BD014608AA384614F07EFFD2
:101B3800044670B1564B0390CDE901532B460095EE
:101B480001221846514915F0E3F808A814F0B1FF2E
:101B5800E4E7032105AB06AA08A815F088F80446AF
:101B680010B14C4B0390E7E7059B014628336B44C3
:101B780003F8100C022206A811F066FB0121C7B277
:101B880004AA08A815F047F8044610B1424B039080
:101B9800D2E7049B042B22D0052B0CD03F4B30708E
:101BA8000222CDE9010339490346009015F0B0F847
:101BB8006FF07F04C9E709230F2F337033D96FF013
:101BC80015030393364B02930023CDE9003301221A
:101BD80018462E4915F09CF86FF01504B5E7072351
:101BE8000F2F3370EBD89FED2F8A2F4B33F8170048
:101BF800F8B1FEF7F7FB22A3D3E90023FEF75CFC5C
:101C0800FEF732FF0421706005AB06AA08A805910B
:101C180015F02DF8044670B1244B0390029300236D
:101C2800CDE900338CE7224B9FED228A33F8170069
:101C3800DEE72148E6E7059B014628336B4403F8B5
:101C4800100C022206A811F0FFFAC0B20F2806D91C
:101C58001A4B0390CDE9014300942346B7E70130BE
:101C6800C0B207EE900AF8EEE77A67EE887AC6ED1A
:101C7800027A6AE76FF0150450E700BFAFF30080FF
:101C88007B14AE47E17A244078E505003CB20500B4
:101C9800A1E50500CDE50500F9E505001BE6050011
:101CA80043E605000AD7A33FF0BB050067E6050039
:101CB800D0BB05000AD723400AD7A34092E6050007
:101CC8002DE9F0472DED028B04469FED498B4A4ED6
:101CD80084B04FF02003EFF3118783F31288BFF32A
:101CE8006F8FD4F8C8508DB9022104F1E00017F0C5
:101CF800C3FF002843D100238DED008B39460293A2
:101D080004F1D0023D4810F0E9FAE2E7D4F8CC201B
:101D18002B689542C4F8C83008BFC4F8CC30D4F852
:101D2800E03043F00203C4F8E030EB6823F004032A
:101D380043F00103EB606B6887F31188BFF36F8F83
:101D4800284698474FF02003EFF3118983F3128850
:101D5800BFF36F8FEB68990723F0010219D4EA608B
:101D6800D4F8E03023F00203C4F8E03089F3118896
:101D7800BFF36F8FDB05ACD410F0AEF9A9E704F11F
:101D8800D80500220121284618F0B1F80028F8D11A
:101D9800B1E7306823F00303EB600028E0D00027A8
:101DA800BA46D0F800800028DAD042680146954249
:101DB8000BD1016897B972683160824200D17160B5
:101DC80040F808AB0FF0F8FD3946B8F1000F0BD01A
:101DD800D8F8002040460F469046E4E7396072681C
:101DE800824208BF7760EBE74246F3E7AFF3008033
:101DF800FFFFFFFFFFFFFFFF84BC0120F8EE01207B
:101E08002DE9F04F476A97B08346209E08910C92BF
:101E1800129355EC104B8DED000B7FB9102010F08C
:101E280055FC0246CBF8240020B9A74BEA21A74865
:101E380012F0B2F9C0E901770760C760DBF8243017
:101E4800196859B15A680123584693404A608B6013
:101E580011F0E4FADBF8243000221A602B1EB7BF19
:101E680023F00043002301220193A8BF3360019FA0
:101E7800974BB8BF3260BB4319D142F20F73129A25
:101E88001360C7F31303234300F0DB85219B53B989
:101E9800904B21E0904B03930833219A13600398E9
:101EA80017B0BDE8F08F8B4B03930333F5E79DED37
:101EB800007B0022002351EC170B8DED0A7BFEF707
:101EC80063FD804650B10123129A1360219B13B120
:101ED800824B219A1360824B0393E0E7C7F30A56BB
:101EE80014AA15A958469DED0A0B11F01FFD029082
:101EF800002E76D00B9BA6F2FF36CDF84C80C3F3AC
:101F0800130343F07F53DDE90A0143F440131946F4
:101F18000022744BFEF718F965A3D3E90023FEF7F6
:101F2800CBFA65A3D3E90023FEF710F904460D4662
:101F38003046FEF757FA62A3D3E90023FEF7BCFA4E
:101F480002460B4620462946FEF700F904460D4690
:101F5800FEF762FD00220746002320462946FEF7C9
:101F68001DFD40B13846FEF73DFA22462B46FEF7E6
:101F78000BFD00B9013F162F52D85B4B03EBC7038B
:101F8800DDE90A01D3E90023FEF708FD002849D05E
:101F9800013F00231193149B9B1B5A1E4CBFC3F196
:101FA80001030023079245BF069300230693079376
:101FB800002F39DB079B10973B44079300230993B5
:101FC800089B092B66D8052BC5BF043B00240124B8
:101FD8000893089B023B032B67D8DFE803F02D3AF0
:101FE8003859DDE914631E4406F23243202BC9BF79
:101FF800C3F14003C3F120039F4006F21243D8BF48
:1020080004FA03F006F1FF36C4BF24FA03F347EAE3
:102018000300FEF7D7F90122A1F1F873139276E7CE
:102028000123B7E71190B6E7069BDB1B06937B42BB
:10203800099300231093C3E700230D930C9B002BF7
:1020480056DC012399461A4604930C920CE00123AE
:10205800F3E700230D930C9BFB1803F1010904938C
:102068004B46012BB8BF0123DBF8240000210422D2
:1020780002F114059D423FD94160584611F08EF98E
:10208800039000283BD1194B02464FF4D571CEE698
:102098000123DFE7012400230D9408934FF0FF3359
:1020A8000022994604931223CFE701230D93F5E705
:1020B80061436F63A787D23FB3C8608B288AC63F46
:1020C800FB799F501344D33FDDFB0500F4FB05006B
:1020D8000000F07FD9FB0500D0FB050007E50500EF
:1020E80006E505000000F83F80B3050050FC050038
:1020F8000C9B99460493B7E701315200B8E7DBF827
:102108002430B9F10E0F039A1A606FD8002C6DD0E5
:10211800002F36DD07F00F02A04BF8054FEA271411
:1021280003EBC20393ED007B8DED0E7B17D59C4B23
:1021380004F00F044FF00308D3E90823DDE90A018E
:10214800FEF7E4FACDE90001954D5CB9DDE90E230F
:10215800DDE90001FEF7DAFACDE900012BE04FF0E6
:102168000208F1E7E10709D508F10108DDE90E01E8
:10217800D5E90023FEF7A0F9CDE90E016410083572
:10218800E3E700F007817C42844B854D4FF002085D
:1021980004F00F02241103EBC203DDE90A01D3E9BD
:1021A8000023FEF789F90023CDE90001002C40F057
:1021B800E580002BD0D1119BDDE90045002B00F014
:1021C8004C810022774B20462946FEF7E7FB002882
:1021D80000F04381B9F1000F00F03F81049B002B10
:1021E80000F3E480DDE90A34CDE90034159B002BC7
:1021F80002DB0E2F40F342820D9A002A40F06782DC
:10220800099C0025DDF81880B8F1000F0DD0079B58
:10221800002B0ADD4345069AA8BF4346D21AA8EB0D
:1022280003080692079AD31A0793099B0BB30D9BD1
:10223800002B00F0A682002C00F0A182294622463D
:10224800584611F015FA029A01460546584611F00B
:1022580065F902990646584611F0E0F8099B1B1BE0
:10226800099300F09182099A3146584611F000FA14
:1022780002900121584611F03BF9109B0446002BAF
:1022880000F084821A460146584611F0F1F9089B7D
:102298000446012B03DC009B002B00F07C82002607
:1022A800236904EB8303186918F08CFAC0F1200045
:1022B8001096079B184410F01F0000F09182C0F19F
:1022C8002003042B40F38182C0F11C00069B0344C9
:1022D80080440693079B03440793069B002B05DD68
:1022E8001A460299584611F01DFA0290079B002BD6
:1022F80005DD21461A46584611F014FA0446119B8A
:10230800002B00F076822146029818F0AAFA0028DD
:1023180080F26F8200230A220299584611F0A0F831
:102328000D9B7E1E0290002B00F05C820023294644
:102338000A22584611F094F8049B0546002B03DC4A
:10234800089B022B00F35E82B8F1000F05DD2946D9
:102358004246584611F0E6F90546109B002B00F05E
:10236800D0826968584611F019F80746002840F0ED
:102378007F820D4B024640F2EA2158E5E20706D576
:1023880008F10108D5E90023FEF796F80123641047
:1023980008350BE74FF002080DE700BF80B30500D2
:1023A80058B305000000F03F50FC0500204600220D
:1023B800AC4B2946FEF780F87E1E08F10108049C04
:1023C800CDE900014046FEF70DF8DDE90023FEF7F0
:1023D80073F8A54B0022FDF7B9FEA1F15073CDE9C2
:1023E8000E010F93002C3BD10022A04BDDE9000128
:1023F800FDF7AAFE02460B46CDE90023DDE90E23D0
:10240800FEF7EAFA002840F05781DDE90E2101F1D4
:102418000043DDE90001FEF7C1FA00283FF4E2AE0F
:10242800002425460C9BDDF80CA0DE434FF0000885
:102438002146584610F0F2FF002D00F0A980B8F1AF
:10244800000F05D0A84503D04146584610F0E6FFD6
:102458002946584610F0E2FF9AE03E464C46B1E75E
:10246800834B03EBC40353E90201039B1C440D9BFC
:10247800002B4AD002460B4600207E49FEF746F95B
:10248800DDE90E23FDF760FEDDF80CA0CDE90E01B5
:10249800DDE90001FEF7C0FA0546FDF7A3FF024695
:1024A80030350B46DDE90001FDF74EFE0AF8015B09
:1024B80002460B46CDE90001DDE90E01FEF78CFA74
:1024C800002865D100206C49DDE90023FDF73CFEBA
:1024D80002460B46DDE90E01FEF77EFA002840F0C1
:1024E8000D81A24500F0EA8000225E4BDDE90E0175
:1024F800FDF7E2FF00225B4BCDE90E01DDE90001AB
:10250800FDF7DAFFCDE90001C2E7DDE90E23FDF7AB
:10251800D3FFA046DDF80CA0CDE90E01DDE90001EE
:10252800FEF77AFA0546FDF75DFF024630350B46A1
:10253800DDE90001FDF708FE0AF8015B02460B46DB
:10254800A245CDE900234FF0000223D1494BDDE934
:102558000E01FDF7FBFD02460B46DDE90001FEF723
:102568003BFA002840F0CA8000204249DDE90E23EA
:10257800FDF7EAFD02460B46DDE90001FEF70EFA1B
:1025880070B1C24608F1FF381AF8013C302BF8D078
:10259800374655E0334BFDF78FFFCDE90001BDE726
:1025A800DDE90A34CDE90034159B002BFFF628AE8F
:1025B8000E2F3FF725AE2E4B03EBC70393ED007BA1
:1025C8000C9B002B8DED047B02DAB9F1000F64D06F
:1025D800DDF80CA0DDE90045DDE9042320462946A5
:1025E800FEF794F8FEF718FA0646FDF7FBFEDDE95C
:1025F8000423FDF761FF0246204606F130040B462E
:102608002946FDF7A1FD0AF8014B039C02460B463B
:10261800AAEB0404A14540F08280FDF797FD04462B
:102628000D46DDE90423FEF7D7F9002865D12046D9
:102638002946DDE90423FEF7A7F908B1F3075CD4BE
:102648000299584610F0EAFE002301378AF8003054
:10265800129B1F60219B002B3FF421ACC3F800A004
:102668001DE400BF0000244000001C40000014408E
:1026780080B305000000E03F0000F03FA24B03EBF1
:10268800C70393ED007B0C9B002B8DED047B9FDA39
:10269800B9F1000F9CDC7FF4C3AE00229B4BDDE94F
:1026A8000401FDF709FFDDE90023FEF78BF9044675
:1026B80000287FF4B5AE3E462546B4E0DDE90A348D
:1026C800CDE90034159B002B01DB0E2FD6DD089ACF
:1026D800012A36DC139A82B303F23343099CDDF8EE
:1026E8001880069A012158461A440692079A1A44F5
:1026F800079210F0FDFE054686E53E4653469A468B
:1027080013F8012D392A06D1039A9A42F7D13022BB
:10271800039901360A701A7801321A7038E70022D4
:102728007B4BFDF7C9FE0022002304460D46FEF749
:102738002BF900283FF450AF82E7149BC3F136030E
:10274800CCE709F1FF34099BA34208DBB9F1000F7C
:10275800A3EB04040EDBDDF818804B46C1E7099BA8
:10276800109AE31A0994DDF8188000241A444B469D
:102778001092B6E7069BA3EB09080023B1E7029E77
:1027880071E5099A029970E5029672E5089B012B9A
:1027980017DC009BABB9019BC3F313039BB9019BE7
:1027A80023F00046360D360536B1069B0126013367
:1027B8000693079B01330793109B002B7FF470ADA2
:1027C8001096012075E50026F6E73FF486AD1C3328
:1027D800069A1A4498440692079A1A4407927CE586
:1027E8000346F4E7049B002B2BDC089B022B09DC37
:1027F80027E0B9F1000F1DDC089B022B1ADD3E46CD
:10280800CDF81090049B002B7FF40CAE21460522D6
:10281800584610F025FE01460446029818F021F8A3
:1028280000287FF7FFADDDF80CA0312301360AF848
:10283800013BFBE50D9B3E46CDF81090002B7FF445
:1028480083AD039F2146029817F01DFF039B00F1FB
:102858003009049A07F8019BFB1A9A4240F3CB808F
:1028680000230A220299584610F0FAFD0290E9E77F
:102878002A6905F10C010C300232920017F082FC33
:1028880001223946584610F04DFF039BA8460546DD
:1028980003F1010ADDE9032313440793009B03F0C6
:1028A800010309930AF1FF3321460298049317F0B4
:1028B800EAFE4146069000F13009029817F0D1FF70
:1028C8002A4621460746584610F098FFC268014636
:1028D80002B3584610F0A2FD002F3ADA01220299FD
:1028E800584610F01FFF2146029017F0BAFF002843
:1028F80003DC29D119F0010F26D0B9F1390F1DD108
:1029080032E02846C1E700BF80B30500000014404C
:10291800000024400A90029817F0A3FF0A990C902F
:10292800584610F07BFD0C9A5ABB089B53B9099B7B
:1029380043B9B9F1390F17D0002F05DD069B03F114
:10294800310901E0002F2ADADDF810A00AF8019B0E
:102958006EE5089B3B4304D1009B03F00103002B69
:10296800BCD0B9F1390F36D1049F392307F8013BA0
:10297800BA46013F1AF8013C392B5AD001333B7053
:1029880056E5002F06DB089B3B4306D1009B03F06E
:10299800010313B9002AA1DCD6E7002AE1DC079B72
:1029A80057460AF8019C53452ED000230A22029963
:1029B800584610F055FDA84502904FF000034FF01F
:1029C8000A02414658460BD110F04AFD804605469A
:1029D8000AF1010A66E7DDF810A009F10109B5E777
:1029E80010F03EFD2946804600230A22584610F082
:1029F80037FD0546ECE7049B4FF00008002BCCBFE1
:102A08001F460127039B1F4401220299584610F0D4
:102A180089FE2146029017F024FF0028A8DC02D185
:102A280019F0010FA4D1BA4617F8013D302BFAD09E
:102A3800FEE4039BBB429BD13123039A01361370FA
:102A4800F6E4219B002B7FF425AA014BFFF744BA3B
:102A5800D0FB0500002373B5014604466846CDE95E
:102A6800003303F033FC2146024620B1124811F02E
:102A7800E7FF02B070BD114811F0E2FF104C114E93
:102A8800651C68460E4903F099FC80B9637873B1F8
:102A98002378012B04D129460B4811F0D1FFF0E728
:102AA80029463046D4F8042111F0CAFFE9E7684600
:102AB80003F000FDDDE700BFDABF0500F5BF050044
:102AC80050B0012014C005000AC005001FB500233E
:102AD80004460146222201A8CDE90133039303F0FD
:102AE80043FB18B12146134811F0AAFF0A2301221B
:102AF8000DF1030101A88DF8033003F0C5FB002890
:102B08000DDA21460C4811F09BFF01A803F098FB51
:102B180018B12146094811F093FF04B010BD0928E7
:102B280002D121460648EEE78628EED1214605481F
:102B3800E9E700BF2CC005003BC0050094C00500B4
:102B480051C005006FC005001FB50B4BD3E8AF3F60
:102B580073B1002008F064FC50B1084B0390029355
:102B6800002301221846CDE90033054911F0C7FEBC
:102B780005B05DF804FB00BF68B20120A4C00500E1
:102B880044B20500F0B50378044697B0072B2CD85B
:102B9800DFE803F0041D2D4B686E2B7E037A012BB2
:102BA80003D0052B21D1574B00E0574B0393574BCC
:102BB80003220293002356491846CDE9003311F049
:102BC8009EFE544817B0BDE8F0400EF0F5BEC3684D
:102BD800049383680393504B0293002303221846FF
:102BE800CDE900334A4911F08AFE17B0F0BD0069FB
:102BF800FDF70AFCCDE90201E068FDF705FC07AD29
:102C0800CDE90001454A3C21284611F026FF00285D
:102C1800EBDD434B03950293002303221846CDE9CD
:102C280000333B4911F06BFEDFE7017A3D4A3E4B2A
:102C3800012908BF134603933C4B03220293002348
:102C480033491846CDE9003311F059FE237A0BB900
:102C58003748B7E700220023354817B0BDE8F040F1
:102C68000EF0D0BE4369049303690393314BB3E775
:102C7800027A4AB1072A09D02F4B3049092A08BFDE
:102C88000B4603932E4BC6E72E4BFAE72E4BF8E77D
:102C98002E4B0322029300231D491846CDE9003329
:102CA80011F02DFE236901339FD0294A04F108034E
:102CB800164604F13807154618685968083303C5DD
:102CC800BB422A46F7D194F838204AB1E16BB1B13A
:102CD80012014FF488731F4817F061FA94F83820EE
:102CE8001D4B86F8302002930023039218460322D6
:102CF800CDE90033064911F002FE184862E70A469A
:102D0800EEE700BFF6C00500DDC0050033C10500D1
:102D180044B20500DCAB012053C1050082C10500A7
:102D280027C505000AC1050014C10500ABC105008F
:102D3800F4AB0120B8C1050024C105002CC1050071
:102D4800E9C105001FC1050019C1050005C205003C
:102D580000A5012058B1012029C20500C4AB0120FB
:102D680008B50E4816F0FDFD20B90D48BDE808402D
:102D780011F066BE0B4811F0A8FD002801DA0A48D8
:102D8800F4E70121074811F0C9FD11F0DBFDBDE8AA
:102D980008400021034811F0C1BD00BFC4AE0500C2
:102DA80042C2050058B4050065C2050008B50E48C2
:102DB80016F0D7FD20B90D48BDE8084011F040BE17
:102DC8000B4811F082FD002801DA0A48F4E70121D6
:102DD800074811F0A3FD11F0B5FDBDE8084000213A
:102DE800034811F09BBD00BFC4AE05008DC20500AD
:102DF80050B40500ADC205001FB5174C204616F0AB
:102E0800B0FD30B92168154804B0BDE8104011F094
:102E180017BE134811F014FE0C22124B1248C3F8C7
:102E28002422D3F8242242F44032C3F8242211F099
:102E380007FE0020062301A9CDE9010003908DF8C3
:102E4800043001F0E9FF4FF4803000210FF0C6F99B
:102E5800064811F0F5FDFEE7FCAE0500D2C20500FC
:102E6800E9C205000025844006C3050035C30500F6
:102E780007B51C4812F08EF970B11B4811F0E0FD3F
:102E88001A481B4BC36003F03BFB40BB194803B017
:102E98005DF804EB11F0D4BD6A460121114812F027
:102EA800C3F908B11448E9E70099144811F0C8FDBE
:102EB80002210C4801AA12F0B7F908B11048DDE761
:102EC8000199104811F0BCFDDDE90031A3FB013187
:102ED8001B0D0D4843EA013111F0B2FDD0E70B4854
:102EE800D5E700BF4FC3050052C3050040A5012028
:102EF800CFC30500D4C3050066C3050081C3050020
:102F080091C30500ABC30500BBC30500E3C30500BF
:102F18002DE9F0471646002284B000AF04468946E2
:102F28001D46C7E90122FA6006F107089BB9014668
:102F38002222381D03F018F918B121463F4811F034
:102F48007FFD28F00708ADEB080D49466846E846BE
:102F580017F0FFFA26E03A4811F072FD22222146C6
:102F6800381D03F001F918B12146344811F068FD05
:102F7800344811F065FD3146334811F061FD28F001
:102F88000708324811F05CFDADEB080D494668466C
:102F980017F0DFFA2E48694611F052FD2D48E84631
:102FA80011F04EFD4FF00009DFF8C0A0B1451FDB5E
:102FB8001DB14146264811F043FD4146721C381D9B
:102FC80003F062F900282FDA2146234811F038FD72
:102FD800381D03F035F918B12146204811F030FDAD
:102FE80015B11F4811F02CFD1037BD46BDE8F0871C
:102FF80018F8091021F02003413B192B09D9A1F138
:103008002F030B2B05D90A2903D0A1F12A03012B81
:1030180006D815B1504611F013FD09F10109C5E7AD
:103028005F2308F80930F8E7092802D121460D483E
:10303800CCE78628CCD121460B48C7E72CC0050031
:10304800F9C305000FC405001EC405002AC4050005
:1030580042C4050056C405003BC0050094C00500E5
:103068006FC4050051C005006FC005006BC40500A2
:10307800F8B50F241D4F1E4E22460021384617F082
:10308800BBF81C4D22460021304617F0B5F8224601
:10309800194C0021284617F0AFF82146384617F09A
:1030A80058FA2146304617F054FA2146284617F0B8
:1030B80050FA1249124817F04CFA1249124817F000
:1030C80048FA1249124817F044FA1249124817F000
:1030D80040FA1249124817F03CFA1249124817F000
:1030E80038FABDE8F840114811F0AABCD5C401204F
:1030F800D5C20120D5C0012089C405008FC40500B0
:103108008CC4012097C405008CC201209FC405000F
:103118008CC00120A7C40500E4C20120AEC405008C
:10312800E4C00120B5C40500E4BE0120BCC405000C
:10313800F0B599B001AA06461546154B03F10807E4
:10314800144618685968083303C4BB422246F7D1AD
:1031580018689B882060A3800023314619222846DE
:10316800CDF81630CDF81230CDF8193017F0CCF96B
:1031780019222846074917F0C7F92A46402108A806
:103188000DF0B8FB044808A911F05AFC19B0F0BDBD
:103198002CB3050033DF050017C5050030B5A1B015
:1031A8004021194A68460DF0A5FB402269460DEBFF
:1031B800020017F0D6F910A8FDF718FE5F240021C9
:1031C80010AA81420ADB322210A9104817F0C9F967
:1031D8000E490F4811F034FC21B030BD1378A3F12B
:1031E8006105192D0CD93A2B07D82E2B08D80A2B94
:1031F80006D02B2B04D0147002E0413B192BFAD8CF
:1032080001310132DDE700BF2AC50500B2BE012049
:1032180033C505001FB501EA0004E1072AD50A48AD
:1032280011F00EFC094BD3E8AF3FABB9084A18467A
:10323800CDE9013207490322009311F060FB04B085
:10324800BDE81040FFF78CBD3CC5050068B2012001
:1032580047C5050044B20500BA4B03220293002378
:10326800B9491846CDE9003311F049FBFFF76CFC6A
:10327800FFF794FFA20740F1B381B44811F0E0FBD7
:10328800B349B44811F0DCFBB349B44811F0D8FB9A
:10329800B349B44811F0D4FBB349AD48FDF79CFDE0
:1032A80018B9B249AA4817F054F9AF49AA48FDF726
:1032B80093FD18B9AD49A84817F04BF9AA49A84891
:1032C800FDF78AFD18B9A949A54817F042F9FFF793
:1032D80065FFA748FDF78AFD00230246A449A548D3
:1032E800FFF716FE9A48FDF781FD0023024698492C
:1032F800A048FFF70DFE9F48FFF7E8FB9E48FDF743
:1033080075FD002302469C499A48FFF701FE99483B
:10331800FFF7DCFB9948FDF769FD00230246974952
:103328009448FFF7F5FD9348FFF7D0FB9448FDF765
:103338005DFD0023024692498E48FFF7E9FD8D485E
:10334800FFF7C4FB8F48FDF751FD002302468D4966
:103358008848FFF7DDFD8748FFF7B8FB8A48FDF787
:1033680045FD0023024688498248FFF7D1FD814880
:10337800FFF7ACFB8548FDF739FD0023024683497A
:103388007C48FFF7C5FD7B48FFF7A0FB8048FDF7A9
:103398002DFD002302467E497648FFF7B9FD7548A2
:1033A800FFF794FB6C48FDF721FD002302466A49AC
:1033B8007048FFF7ADFD6F48FFF788FB7548FDF7CC
:1033C80015FD0023024673496A48FFF7A1FD6948C5
:1033D800FFF77CFB7048FDF709FD002302466E49A4
:1033E8006448FFF795FD6348FFF770FB6B48FDF7EE
:1033F800FDFC0023024669495E48FFF789FD5D48E8
:10340800FFF764FB6648FDF7F1FC002302466449B8
:103418005848FFF77DFD5748FFF758FB6148FDF70F
:10342800E5FC002302465F495248FFF771FD514809
:10343800FFF74CFB5C48FDF7D9FC002302465A49CC
:103448004C48FFF765FD4B48FFF740FB5748FDF731
:10345800CDFC0023024655494648FFF759FD45482B
:10346800FFF734FB3E48FDF7C1FC002302463C4908
:103478004048FFF74DFD3F48FFF728FB4C48FDF754
:10348800B5FC002302464A493A48FFF741FD39484E
:10349800FFF71CFB4748FDF7A9FC002302464549F6
:1034A8003448FFF735FD3348FFF710FB4248FDF776
:1034B8009DFC0023024640492E48FFF729FD2D4870
:1034C800FFF704FB3D48FDF791FC002302463B490A
:1034D8002848FFF71DFD2748FFF7F8FA3848FDF799
:1034E80085FC0023024636492248FFF711FD214892
:1034F800FFF7ECFA3348FDF779FC0023024631491F
:103508001C48FFF705FD1B48FFF7E0FA2E48FDF7BA
:103518006DFC002302462C491648FFF7F9FC1548B4
:10352800FFF7D4FA2948FDF761FC00230246274932
:103538001048FFF7EDFC0E48FDF758FC0023024643
:1035480046E000BF77C5050044B20500A4C50500E4
:10355800D5C40120AFC50500D5C20120BCC50500F2
:10356800D5C00120C9C5050089C40500D6C5050018
:10357800CDC40500DDC50500C9C40120BDC40120B6
:10358800B1C40120A5C4012080C4012074C4012055
:10359800E4C20120C9C20120BDC20120B1C201207C
:1035A800A5C2012080C2012074C20120E4C001200C
:1035B800C9C00120BDC00120B1C00120A5C00120A3
:1035C80080C0012074C00120E4BE0120B2BE0120E9
:1035D80008490948FFF79CFCFFF74AFDFFF70CFC78
:1035E800630705D5054804B0BDE8104011F028BAB6
:1035F80004B010BDCDC40500DDC50500EBC5050050
:103608002DE9F04100249EB0FFF732FC00217648F6
:1036180011F084F90021754811F080F900217448EF
:1036280011F07CF90021734811F078F97248FFF71E
:1036380011FAFFF71DFD7149714816F08AFF7149AB
:10364800714816F086FF7149714816F082FF714B78
:103658000322204670490293CDE90044234611F025
:103668004EF9204608F0D2FF054660B16B4B0122A7
:10367800CDE90143204623466749009411F03FF9FC
:103688001EB0BDE8F081664806F032FA50B1654BCD
:103698000390CDE9015301222B4628465E49009547
:1036A80011F02DF9002007F0B5F950B15E4B0390E9
:1036B8000293002301221846CDE90033564911F040
:1036C8001EF9002007F03EFB50B1584B03900293BF
:1036D800002301221846CDE900334F4911F00FF9B4
:1036E800534813F008FB044600284FD1514B0322DE
:1036F800CDE9010348490346009011F000F94FF065
:10370800FF334FF0FF324C480EF07CF901234B4E4B
:10371800D6E8EF2FC6E8E13F0029F9D1484B03224C
:10372800CDE90143204623463B49009411F0E7F8D0
:103738004FF0FF324FF0FF3342480EF063F9FFF7C6
:1037480003FA414FDFF81C814FF0FF324FF0FF338F
:1037580038460EF057F98CBB3C4D2F4C284611F0DB
:103768006FF9D6E8AF3F002B40F091820322214643
:103778001846CDE90138009311F0C1F84FF0FF3237
:103788004FF0FF3338460EF03DF9E7E70025304BA0
:103798000390029328462B460122CDE900551E4985
:1037A80011F0ADF82B4B0122CDE9015328462B46E9
:1037B80019490394009511F0A2F861E7264C2748AF
:1037C80011F03EF9A36801334ED1254B0222029332
:1037D800002311491846CDE9003311F090F8FFF79E
:1037E800BFFA0024B0E700BF60B4050058B4050074
:1037F80050B4050048B40500CFC305008FC40500C8
:103808008CC4012097C405008CC201209FC4050008
:103818008CC00120F6C5050044B2050008C60500A5
:103828001D3204003DC6050068C6050089C60500AE
:103838008D2B0400ABC60500DCAB012068B201206B
:10384800E7C60500F4AB0120C4AB0120C6C80500DB
:1038580000C7050029C7050000A5012055C70500B8
:103868006DC7050047C505009E4811F0E9F82168B5
:103878009D4811F0E5F861689C4811F0E1F8A168ED
:103888009B4811F0DDF8E1689A4811F0D9F82169F0
:10389800994811F0D5F8A18A984811F0D1F8D4E9DF
:1038A8000823974811F0CCF8218D964811F0C8F8F4
:1038B800B4F92A10944811F0C3F8B4F92C109348BD
:1038C80011F0BEF8A3681422002100930DA8904BB4
:1038D80016F0BBFDA38A14220021009312A88C4B7A
:1038E80016F0B3FD23680D220021009305A8894B2B
:1038F80016F0ABFD63680D220021009309A8854BE3
:1039080016F0A3FD192205A917A816F02AFE1922F8
:1039180009A917A816F0F8FD4FF6FF73A28A9A4274
:1039280000F090817C497D4816F068FE002800F080
:103938008680A3680F22002100937848744B16F004
:1039480084FD23680C22002100937548714B16F002
:103958007CFD63680C220021009372486D4B16F0C1
:1039680074FDE3680C22002100936F48684B16F041
:103978006CFDA38A0C22002100936C48644B16F05E
:1039880064FDB4F92A300C22002100936848604B8A
:1039980016F05BFDB4F92C300C2200210093654829
:1039A8005B4B16F052FD19225D49634816F0D9FDAC
:1039B80019225C49604816F0A7FD604811F040F8EC
:1039C80056495F4811F03CF85E495F4811F038F8F5
:1039D8005E495F4811F034F857495E4811F030F8F5
:1039E8005D495E4811F02CF85D495E4811F028F8F1
:1039F80049494A4816F002FE58B94749514816F055
:103A0800FDFD30B94449514816F0F8FD08B9FFF7F3
:103A1800CDF95549484816F0F1FD5449002800F001
:103A280013814D4816F0EAFD002800F02A8150481D
:103A3800FDF7DCF901464E48FFF77AFBD1E6364937
:103A4800404816F0DBFD002800F0A0803A4817A98E
:103A580016F0D4FD0546002840F09880A36801467A
:103A68000F22009337482A4B16F0EFFC23680C22EC
:103A7800294600933F48274B16F0E7FC63680C2261
:103A8800294600933C48234B16F0DFFCE3680C22E0
:103A98002946009339481E4B16F0D7FCA38A0C22FE
:103AA8002946009336481A4B16F0CFFCB4F92A3051
:103AB8000C22294600933348154B16F0C6FCB4F97E
:103AC8002C300C22294600932F48114B16F0BDFCD0
:103AD80019222849204816F044FD192226491E4873
:103AE80069E700BF81C7050090C705009CC70500AE
:103AF800A8C70500B6C70500C0C70500CDC70500A3
:103B0800E2C70500FBC7050012C805001DC805006F
:103B180014EF050028C8050089C40500D5C4012094
:103B2800C9C40120BDC40120B1C40120A5C401201D
:103B380080C4012074C401208CC4012061C8050020
:103B4800AFC50500D5C20120BCC50500D5C0012000
:103B5800C9C505007BC805008CC201208DC80500B9
:103B68008CC001209FC80500B1C80500B8C8050071
:103B7800BFC80500C9C20120BDC20120B1C20120D1
:103B8800A5C2012080C2012074C2012042494348D5
:103B980016F034FD00284FD0414817A916F02EFD25
:103BA800002849D13F4817A916F028FD05460028E6
:103BB80042D1A36801460F22009338483A4B16F0C9
:103BC80044FC23680C22294600933848384B16F0E9
:103BD8003CFC63680C22294600933648344B16F0A7
:103BE80034FCE3680C222946009333482E4B16F028
:103BF8002CFCA38A0C222946009330482A4B16F045
:103C080024FCB4F92A300C22294600932C48264B70
:103C180016F01BFCB4F92C300C22294600932948D5
:103C2800214B16F012FC19222049274816F099FC5E
:103C3800192220492448BEE6244810F001FFFFF766
:103C48008FF8BAE62248F8E7154816F0D7FC60B1B5
:103C58002049144816F0D2FC00287FF4E8AE1D482D
:103C6800FDF7C4F801461B48E6E61B490C4816F068
:103C7800C5FC0028F3D017490A4816F0BFFC0028F5
:103C8800EDD01648FDF7B2F801461448D4E6FEF721
:103C98005BFF012458E500BF89C40500D5C0012099
:103CA8008CC401208CC2012014EF0500C9C001207A
:103CB80028C80500BDC00120B1C00120A5C0012051
:103CC80080C0012074C001208CC001202DC80500CF
:103CD80048C80500B1C80500BFC80500B8C8050038
:103CE8002DE9F04F91B0009302F004030293C2F360
:103CF800C2030133840705460E46DDF86880039247
:103D0800059340F0BD81041D30B1072909D86FF033
:103D18001B0011B0BDE8F08F01F00706341DC6F195
:103D28000806009B4FF000094FF0040A591E4FF097
:103D3800FF334F460193CB465346CDF810900DB153
:103D4800009820600598002800F3EB809948009AB5
:103D5800824203D398488242C0F0E380039AA4EBDE
:103D6800050E92074FEA9E0000F106810F2F00F220
:103D7800B480002D00F0088107F140020DEB020C21
:103D8800019A0CF8200C0CF8102C049801300490BF
:103D9800EAE07A2860D84B280ED847285CD829282A
:103DA8002FD8252855D057D820287DD02338D0F1B2
:103DB800000B4BEB000B77E0A0F14C0CBCF12E0F85
:103DC8004AD8DFE80CF07149494949494949494904
:103DD80049494C49494949494949495A494C4C5A20
:103DE8005A5A714C6E497149184C18494983804C8C
:103DF80049494C49800000204FF0000B4FF0040A5D
:103E080039E00122A0F12A0C5FFA8CFC02FA0CFCC2
:103E18001CEA0E0F48D11CF062502ED11CEA020B8E
:103E280042D0013C5444CAF1000C04EA0C04002DB1
:103E380061D0A3EB050CA4446645FFF468AF0028E5
:103E480068D1042B47D158F8043B23600423043479
:103E58002AE0019A013A01924FF0000B24E011F890
:103E6800010C6C2834D1002011F8023C83466C2BDD
:103E7800C4D14FF0080A5346D3E708F1070828F0E1
:103E88000708073424F00704F8E802AB35B10698B0
:103E98002044B0423FF63BAFC4E900AB4FF0000B03
:103EA80008344FF0080A534611F8010F002878D05B
:103EB800BBF1000F7FF46DAF2528F5D14FF0010B52
:103EC800019B013301934FF0040AECE7584693E74E
:103ED80000208346A5E7082B02D06FF0150018E7ED
:103EE80008F1070828F00708B8EC027B84ED007B8E
:103EF80008230834D8E768B9042B02D108F104086C
:103F0800A4E7082BE9D108F1070828F0070808F109
:103F18000808EDE705980138059058F8040B00905B
:103F28000DE7039A900720D54FF0010CA4EB050E7E
:103F38004FEA9E00BEF5007FCFD20F2FCDD8F5B146
:103F480007F140020DEB020E019AC0B20EF8200CE8
:103F58000EF8102CBCF1000F3FF417AF60F07F0093
:103F68000EF8200C09F101090137C5F108024FF6D6
:103F7800DA7E0434069297E74FF0000CDAE7BCF1DA
:103F8800000F01D00136EFE7029A0236002AEBD182
:103F98000098CDE90631FCF729FFDDE90631064432
:103FA800E2E7631BB3F5806F97D23DB9A6F1080429
:103FB800E018AEE6D0AD05004CFD0500029A9B085E
:103FC80028602B709DF81030C2B1EB7085F8029014
:103FD800B9F1000F05D0002208A8C5F1010C9742DD
:103FE8000ED14FF0000AC5F101030DF1200801932D
:103FF8000DF1300B574512D1601B8AE66B70E5E76F
:1040080010F8013B190608D504EB0C0E764503F0B1
:104018007F03FFF47CAE04F8013B0132DFE7B9F11E
:10402800000F03D098F90020002A17DB029BD3B1B8
:104038001AF80B2004F8012B0022019B9818204441
:104048008642FFF464AE98F80000009904F8010B6A
:104058002046039216F096F8039A14440AF1010ACE
:1040680008F10108C6E798F8002055F822300093B7
:10407800029B009845F82230FCF7B8FE421CDCE7AA
:104088006FF00D0045E600BF032808B506D911F00A
:10409800C6F9092303604FF0FF3008BD044B03EB5A
:1040A8004013D3E8AF3F002BF1D00020F5E700BF65
:1040B800B0B4012070B504460D461646FFF7E4FF7C
:1040C800002809DB064B600145B11A185268AA425C
:1040D80004D011F0A4F90660002070BD1858FCE760
:1040E800A8B4012010B500244FF0FF334FF0FF3281
:1040F80014480DF077FB144BD3E8AF2F7AB1013495
:10410800042C03F12003F7D111F089F917234FF09C
:10411800FF3403600B480DF0DFFB204610BDD3E8E9
:10412800EF0F0130C3E8E10F0029F8D10748630118
:1041380000EB4411C2504A600C33184415F008FDD6
:10414800E8E700BF4CAB0120B0B40120A8B40120BF
:1041580010B4044610460A4B620103EB441499500C
:10416800606048B1C4683CB10C3213445DF8044B3C
:1041780040F2051210F040BC5DF8044B704700BFD8
:10418800A8B4012030B50D49400100F108030B44E3
:10419800D3E8AF2F82B1541ED3E8EF5F954204D124
:1041A800C3E8EC4FBCF1000FF6D1F1D1012A01BFF1
:1041B80000230A180B50536030BD00BFA8B401207B
:1041C800014B1B68184700BF64A50120014B18600C
:1041D800704700BF64A5012007B50B4600210246C1
:1041E80000910348FCF70CFE03B05DF804FB00BF28
:1041F800C941040030B5002587B0CDE90301044664
:10420800009503A905480595FCF7FAFDDDE904309A
:104218009842B8BF255407B030BD00BF234A0500F7
:104228002DE9F047058B04462807904611D402294A
:1042380005F0070540F0CD80204610F0EAFD78B182
:104248000138218B042811D8DFE800F0C3106D85F0
:10425800950001290CBF45F0100545F02005258380
:1042680088F31188BFF36F8FBDE8F08701F0070A64
:10427800AA4500F0A6800027B9463E46A368002B51
:1042880000F0BD8041F00801218388F31188BFF355
:104298006F8FA168002900F0BB800D68002900F02D
:1042A800B780334652462046D1F80480C047002DD7
:1042B80076D02B6829461D46F0E701F007035A1F00
:1042C800012A1BD8002221F00701062B276889B292
:1042D800C4E9002209D13B4603E0628B01326283C4
:1042E8001B68002BF9D141F002012046218310F010
:1042F80090FD00287BD041F0200177E0042B0AD103
:1043080021F0070189B22046218310F082FD10B107
:1043180041F020012183218B01F0070AAA4550D0E2
:104328000027B946AAE7236921F0070141F00601F1
:10433800062DD3F8009021832DD1B9F1000F40D07C
:1043480041F00801218388F31188BFF36F8F20465D
:104358003949C84729E021F00701236941F00401E0
:1043680089B2042DD3F804902183E6D000274FF0BA
:10437800040A3E4682E721F00701236941F005015E
:1043880089B2052DD3F808902183D6D000274FF0A5
:10439800050A3E4672E700274FF0060A3E466DE7DB
:1043A8002B4687E7B9F1000FD1D14FF02003EFF387
:1043B800118883F31288BFF36F8F238B23F00803D0
:1043C8002383258BEA062ED525F01003238305F0D9
:1043D80007056669218B002EBFF66FAF002327689B
:1043E800C4E9003321F0070141F001012183218B49
:1043F8004FF0000901F0070AAA457FF43FAF002FEC
:104408009BD041F00801218388F31188BFF36F8F97
:10441800002FC7D03D68394633465246204610F033
:1044280024FD2F46F4E7AB067FF51AAF25F02003ED
:10443800238305F00705FFE69F4E0500F0B5024609
:1044480001680A270020074E0B461C780131355DAC
:104458006D0701D41360F0BD07FB0043A3F13000E2
:10446800F2E700BFA2FA05002DE9F84F15469A4673
:10447800D378224A6F2B12F803B080460F460BF010
:10448800030B29D024D8582B0CBF10260A26DDF898
:1044980028903246002340463946FCF735FB092A66
:1044A800D4B21ED83034B045E4B277F1000709F829
:1044B800014D01D3D14511D82B789B0605D5082E7F
:1044C80015D1AB7843F00803AB704846BDE8F88FC8
:1044D80003F0F703702BD7E70826D8E780460F4686
:1044E800D7E7BBF1010F0CBF37345734DBE7102E89
:1044F800EBD1AB7843F01003E6E700BFA2FA050062
:104508004FF02002EFF3118382F31288BFF36F8F0D
:104518000121044AC2F8401583F31188BFF36F8F55
:10452800002070470090034020B1034B800143F006
:1045380001031847704700BF50B305000AF028B8B8
:104548002DE9F84F81462F480F4610F0A8FD064682
:1045580070B92D4C0546A0464FF0010BDFF8ACA012
:10456800544507D3B9F1000F02D04FF0010AE5B95D
:10457800BDE8F88F237B73B12368DB680BB1204655
:10458800984723681B6943B9636804222046196861
:1045980000F0C0F801361034E2E7204698470028BA
:1045A800F2D00BFA06F31D43F4E7A94695FAA5F4F1
:1045B800B4FA84F40AFA04F3260108EB04146FEA47
:1045C800030B25EA0305237B63B158F806301B6902
:1045D80093B94644736804222046196809EA0B090E
:1045E80000F098F8002DE1D127B14FF4A470002114
:1045F8000DF0F4FD4D46BAE7204698470028F1D162
:10460800E7E700BF30B50120FCB205000CB3050098
:10461800014B53F82000704768B4050008B50346FD
:1046280008462BB1044A136000F07CFA002008BD4C
:104638006FF01500FBE700BF68A501200023044ABE
:104648004FF400411370034A03481360FFF7E6BFB5
:10465800E4C4012028B50120A350050070B50B4D16
:10466800297841B90120FFF76BFF094C094EB44284
:1046780002D301232B7070BD63685B791BB123687B
:1046880020469B6898471034F1E700BFE4C4012036
:10469800FCB205000CB3050010B50446064810F03E
:1046A800FEFC3CB1054BD3E8EF1F0139C3E8E21F1C
:1046B800002AF8D110BD00BF28B501202CB5012073
:1046C80070B50A4B05461B689847094C094EA86007
:1046D800B44200D370BD63685B7923B1236829466F
:1046E80020461B6898471034F2E700BF68A50120F0
:1046F800FCB205000CB30500044A054B9B1AB1EB4C
:10470800D30F34BF52F8310000207047DCB10500E8
:10471800FCB20500084B10B4C31A44681B110133DE
:10472800237143689A7101224368196043685A717A
:104738005DF8044B10F0C3BCFCB205002DE9F04F46
:1047480085B002AF0446D7E90EA90E4693469846AF
:104758003D6BBAF1000F35D0C7F80490CDF8009042
:104768001021534600207A6BFFF7BAFA0146164A21
:1047780004F007040BF0070BE40002EA412244EAC4
:104788008B141443114A02EAC54217350D4425F02B
:104798000705ADEB050D144302ADBAF1000F07D0C4
:1047A800CDF8009053467A6B05F11000FFF798FAA0
:1047B800434622463146284610F084FC0C37BD4655
:1047C800BDE8F08F5146D2E700FE07000000F87FF1
:1047D8000EB403B503AB53F8042B01460448019308
:1047E80010F0B3FC02B05DF804EB03B0704700BFF3
:1047F80001510500CA0605D48B064CBF024903497E
:10480800FFF7E6BF704700BFE2ED0500E1ED0500E8
:104818002DE9F04F8BB09A46DDE915739DF850B03D
:104828000693179B04460D46189E08920593BBF104
:10483800000F00F0858006F00103099306F00803D5
:10484800079310F03DFC06F002090246002847D005
:1048580020468449FFF7BCFF8046B9F1000F08D015
:1048680016F0440F3ED12A4620467F49FFF7B0FF95
:104878008044099B53B17D4B204653F82B207C4B39
:104888007C49002A08BF1A46FFF7A2FF079B002BA6
:1048980054D0794B204653F82B207849FFF798FFDE
:1048A8000546089B2BB11A4620467549FFF790FF2D
:1048B8000544BAF1000F05D0524620467149FFF76A
:1048C80087FF05444544002F48D1059B002B4ED156
:1048D800F30700F1C08031462046FFF78BFFB4E0B4
:1048E8008046BAE7684B18680028C1D0674B4FF478
:1048F8007A791B684FF46161B5FBF3F5B5FBF0F30A
:1049080000FB135509FB05F5B3FBF1F2B5FBF0FE0F
:104918004FF03C0C01FB123100FB1E55B1FBFCF3C0
:1049280009FB05F5B5FBF0F50CFB131120460091CA
:10493800CDE901E55649FFF74BFF99E7079DB0E739
:10494800BAF1010F06D1002F65D1059B002B7CD051
:1049580000250CE0002FF8D04E485DE04E483B465D
:1049680022464E490FF0F3FF059B002B69D0DFF874
:104978004081DFF84091059F3146102F204628BF1F
:1049880010274FF0000AFFF735FF554546DC069B18
:10499800494620461A78FFF71BFF4FF0010A1AF024
:1049A800070F03D141462046FFF712FF57453CD970
:1049B800069B4946204613F80A20FFF709FF0AF12B
:1049C800010ABAF1100FEAD14FF0000A2046344923
:1049D800FFF7FEFE5246069B20469A5C314B995CD7
:1049E80011F0970F08BF2E222F49FFF7F1FE0AF1A9
:1049F800010ABAF1100F1DD01AF0070F03D1414672
:104A08002046FFF7E5FE57455246E4D84146204682
:104A1800FFF7DEFEEBE720485D46A0E7414620466B
:104A2800FFF7D6FE0AF1010AAFE720461F49FFF754
:104A3800CFFEC4E7069B3B440693059BDB1B05930F
:104A480099D1BBF1000F7FF443AF20460BB0BDE80E
:104A5800F04F10F081BB2046054A0649FFF7B8FE23
:104A680039E700BF11C9050015C9050078B405006C
:104A78000CC9050027C505008CB405003AC9050016
:104A880040C9050044C9050038B5012034B50120E6
:104A98001EC905001D5105000151050053510500AF
:104AA8004FC90500A2FA0500B0E10500D7F80500D6
:104AB8001CC4050049C905002DE9F0410F884B6861
:104AC80005460C4690468E6886B0C7F382175BB1E0
:104AD800134A9B1A43F3CF0100291FDB2078C0F348
:104AE800C200FFF709FE0346214651F8102B6088E3
:104AF800C2F34922002A01EB020408BF0021C0F3D7
:104B0800CB00CDE90308CDE901140022314628463F
:104B18000097FFF77DFE06B0BDE8F0810023E3E7CC
:104B2800DCB1050000210123064A904206D8064A56
:104B380001B901231360054B186070470121400833
:104B48005B00F2E740420F0034B5012038B5012080
:104B5800014B00201960704750B501200122024B1B
:104B680002481A7010F0F8BAE6C40120BCB4050077
:104B780010B5064B0C461868FFF74AFD2146BDE8FC
:104B8800104003460F220248184700BF50B50120C5
:104B9800BCB40500F8B50D460446064F4618B442A5
:104BA80001D12846F8BD14F8011BBB6801485B68B1
:104BB8009847F4E7FCAE050008B5044814F0C8FFB0
:104BC800034B0020C3E9003308BD00BF54B50120E2
:104BD80068B50120F8B50646FCF708F90546124FF6
:104BE8004FF0FF324FF0FF3310480CF0FBFD3C68EC
:104BF800BC420AD1002412E0A068FCF7F7F8A842EA
:104C080006D07B689C42F5D02468002CF4D1F1E7EB
:104C18002A463046A16815F0C0FC0028F1D10348A7
:104C28000CF05AFE2046F8BD68B5012054B50120A5
:104C38001FB504464FF0FF324FF0FF3312480CF017
:104C4800D1FD0CB1A06888B9104B02930023012252
:104C58001846CDE900330E4910F08CFA6FF01504B0
:104C680009480CF039FE204604B010BDFFF7B2FF2A
:104C780008B1084BE9E7084B5A68C4E900321460E8
:104C88005C600446ECE700BF54B501208BC9050001
:104C9800FCB10500A4C9050068B501202DE9F04163
:104CA80005460E461746104CDFF84080444507D3AA
:104CB80010F0B5FB6A2303604FF0FF30BDE8F081C8
:104CC8002368AB4200D063B93A4631462846A36808
:104CD800984730B13A4631462846E368BDE8F04186
:104CE80018471034E2E700BFCCB10500DCB105007D
:104CF800014B1860704700BF70B501202DE9F843DB
:104D080005464FF02003EFF3118683F31288BFF3B3
:104D18006F8F4FF00C090D4B0D4F1C68DFF8348076
:104D28002CB986F31188BFF36F8FBDE8F883D4E9F7
:104D38000123002D18BF13462BB198F8142009FB46
:104D480002F2B85C98472468EAE700BF90B50120F2
:104D580084B5012054BC012070B5084D084E2C685C
:104D6800013C002C02DA00232B6070BD56F82400A9
:104D7800012100F0BDF9013CF3E700BF74B5012043
:104D880090AA01207FB50BAB05930393054B012235
:104D9800029300231846CDE90033FFF7CFFC07B094
:104DA8005DF804FBCDC90500012270B5164B1C7DCA
:104DB80004F01F039A40D043144B610903EB8103AD
:104DC800D3E8EF1F01EA0005C3E8E65F002EF7D13C
:104DD8000A4213D00E4B0F4D8BB10C236343EA18D4
:104DE8005178E85C10F051F90020FFF787FF0C2399
:104DF8005C4300232A192B51C2E9013370BD83F3A8
:104E08001188BFF36F8FEFE754BC012098B50120DC
:104E18009350050084B5012010B54FF02003EFF33F
:104E2800118483F31288BFF36F8F0C22054B02FBAA
:104E3800003307C983E8070084F31188BFF36F8F35
:104E4800012010BD78B501202DE9F0476D4B0646CD
:104E58001C7D88B04FF02003EFF3118783F312888D
:104E6800BFF36F8F0C256543674BDFF8C081595D31
:104E78005A19002972D007CA08EB050C8CE80700FC
:104E880000225A5587F31188BFF36F8F0C236343B1
:104E980008EB030218F80330002B00F0A580731C00
:104EA8000FD04FF4004000219768584D0023E7FBCE
:104EB8000051574A2846FBF727FE0121301A15F002
:104EC8005FF80C23634318F80330524F012B16D0B8
:104ED800D7E8EF5F013DC7E8E35F002BF8D175B96C
:104EE80007A80CF0F3F91C235843DFF844A11C3839
:104EF800CAF80050079D0544079B9D4239D20DF022
:104F0800AFF80120FFF7FAFE434B620903EB820377
:104F1800012204F01F018A40D3E8EF0F1043C3E8D1
:104F2800E10F0029F8D13D4B43B10C235C4308EB5A
:104F38000403597818F8040010F09BF8D7E8EF3FFD
:104F48005A1CC7E8E12F0029F8D10BB9FFF704FF75
:104F5800FFF72AFF0DF098F8012046E001462046A9
:104F680000F068F800288DD007C8454485E8070098
:104F780088E7284610F074F9002841D1284610F037
:104F88007FF900283CD1284610F072F90646B8BBD4
:104F98000146284600F0ACF820F02003783381461B
:104FA8002ED010F1860F2BD0002821DA01202D6891
:104FB80000F092F81A4B0122CDE90409CDE901630A
:104FC80030463346174903950096FFF7DBFEFFF797
:104FD800C3FE0C23634308F80360D7E8EF3F0133AF
:104FE800C7E8E23F002AF8D1002008B0BDE8F08702
:104FF800DAF800300C4A42F823500133CAF800307E
:105008001C3D79E754BC012078B501203F420F00D0
:1050180040420F006CA5012098B501207B50050087
:10502800CDC90500BCB2050090AA012084B50120B5
:1050380074B501202DE9F04F85B00E4603A900F0A4
:1050480043F84FF4004704464FF0000B1B4B039DF9
:10505800D3F800A0431E1BB203EB4303DFF86480C0
:1050680005EB830524B9A146484605B0BDE8F08F95
:10507800C446594668680023E0FB07C1104A6046E9
:10508800FBF742FDC44659460190A8680023E0FB9F
:1050980007C10B4A6046FBF737FDBAF1FF3FA94647
:1050A80001D0824505D9731CDED0019B1844B0425B
:1050B800DAD9013CA4B20C3DD4E700BF70A50120A9
:1050C80040420F003F420F0008B9024B0B6000201E
:1050D800704700BFCCB4050003289ABF024B53F8B1
:1050E80020000248704700BFCCB40500E3ED05007E
:1050F80070B5846903460D468CB310F0C1F888BBBF
:105108001D48227A465CB2422FD01C48405C90422F
:105118002ED11846E2689047002811DA022D0DD0EA
:10512800032D0CD110F1860F08D0231DD3E8EF1FF3
:1051380041F00201C3E8E21F002AF7D1267270BDD0
:10514800022D267201D00020F9E70434D4E8EF3F9D
:1051580023F00203C4E8E23F002AF4D0F6E76FF038
:105168005700ECE74FF0FF30E9E76FF07700E6E72C
:105178006FF08500E3E700BF12CA05000ECA0500FC
:10518800014910220A60704710ED00E072B64040F5
:1051980080F31188BFF36F8FBFF34F8F30BF62B6B4
:1051A800BFF36F8F704700BF72B6494081F3118813
:1051B80020BF80F3118862B6704700BF2DE9F04721
:1051C80080460D468CB0002977D000248B680122D8
:1051D80005934B68204604930B683B4903933B4B6C
:1051E800CDE900440293234610F052F86B6901227E
:1051F80005932B6920460493EB6833490393344B9A
:105208000094CDE90143234610F042F8EB690122EE
:105218000393304B2046CDE901432B4923460094A4
:1052280010F036F82F462646DFF8B490DFF898A03D
:10523800D7ED0B7AFCEEE77AE31C0993CDED0A7AF9
:10524800D7ED0A7AFCEEE77AA31C0793CDED087A2E
:10525800D7ED097AFCEEE77A631C0593CDED067A63
:10526800D7ED087A0023FCEEE77ACDE90294CDED7C
:10527800047A012251461846CDE90066043410F03C
:1052880007F8102C07F11007D2D12B6E01220393D7
:10529800114B0D49CDE901630023009618460FF024
:1052A800F7FFAB69012203930C4B0749CDE9016372
:1052B8000023009618460FF0EBFF294640460CB035
:1052C800BDE8F0470CF016B8B4B2050016CA0500E0
:1052D80045CA050074CA0500C6CA0500D5CA050036
:1052E80083CA050040B2002807DB01234109034AAD
:1052F80000F01F00834042F82130704700E100E0D1
:1053080040B200280CDB01220649430900F01F00C7
:105318008240203341F82320BFF34F8FBFF36F8FB4
:10532800704700BF00E100E0054B420953F8222016
:10533800012300F01F0003FA00F01040704700BF7F
:1053480000E100E040B2002801F10101ACBF00F12A
:105358006040064B4FEA4111C9B2ABBF00F561404E
:1053680000F00F0080F800131954704714ED00E0A6
:1053780030BFFFF7FDBF00BF144A08B5144B22F039
:105388007F029A60BFF34F8FBFF36F8FD3F88820E7
:1053980022F47002C3F88820D3F8882042F4A002CF
:1053A800C3F888204FF04042C3F83422BFF34F8F30
:1053B800BFF36F8F0023E1EE103A0CF03BF80CF0CE
:1053C8009FFF00F0B3FB0CF075F800BF000004006D
:1053D80000ED00E0094A0A49936809689867D967A7
:1053E80008494B6843F080534B60002383F31188CE
:1053F800BFF36F8F9368D86F704700BF54BC01200C
:1054080030BB050000ED00E022498A6882F8C1E05F
:105418004FF030001044EFF3098C80E8F01F1EF0C5
:10542800100F03D102F1800080EC108A202080F355
:105438001288BFF36F8F184F4FF000660A6A8A60B0
:105448003E6092F9C1E0906F0023936780F3118862
:105458001EF0100F03D00023E1EE103A03E002F132
:10546800800090EC108AEFF3148323F0040383F395
:105478001488BFF36F8F02F1300090E8F01F8CF3AF
:10548800098802F1000004B50FF021FFBDE80440CF
:105498007047000054BC012004ED00E01EF0040F2A
:1054A8000CBFEFF30880EFF30980816911F8021C43
:1054B8000229FFD001B50FF0FBFE01BD42F8203CE8
:1054C800009B0D4942F81C3C019B21F0010142F868
:1054D800183C029B42F8081C42F8143C4FF08073B9
:1054E80042F8043C002383674FF43C43203A0265AA
:1054F800C0F8C030704700BF7D4A05000023E1EEC8
:10550800103AEFF3148323F0040383F31488BFF3F2
:105518006F8FBFF36F8F094B9860836E83F30B888F
:10552800104681F30988002163B681F31188BFF31F
:105538006F8F002200230FF09DFA00BF54BC01209A
:1055480001B572B60B4AD06900281EBF0021D1618F
:1055580014F0EFFA62B6EFF30580A0F110004FEAFD
:10556800C0000549014409C99847BDE801400349FD
:105578000847000054BC012088AF05008955040085
:10558800044B9968186A884203D003494FF0805247
:105598000A60704754BC012004ED00E0F0B5002417
:1055A8003D4B85B00293074623460E46012220460E
:1055B800CDE9004439490FF08EFE394B9B6ADD0670
:1055C80009D5384B0122CDE901432046234633490A
:1055D80000940FF080FE324B9B6A180709D5324BB6
:1055E8000122029300232D491846CDE900330FF01C
:1055F80072FE2B4DAB6A99071ED500242B4B012256
:10560800029320462346CDE9004424490FF063FE67
:105618006B6BAA6A12060FD50393254B0122CDE9BD
:105628000143204623461D4900940FF054FE1FB144
:10563800AB6A23F08003AB62194B9B6ADC0709D580
:105648001C4B01220293002314491846CDE900336C
:105658000FF041FE124B9B6A980609D5164B0122A2
:10566800029300230D491846CDE900330FF033FEAD
:1056780000200B4B9A6AD10658BF9A6A9A6A92061A
:1056880042BF5A6A22F400525A629A6A42F0FF02F2
:105698009A62307005B0F0BD03CB0500B4B20500C6
:1056A80000ED00E019CB05004CCB05005FCB0500F1
:1056B80077CB05008DCB0500ACCB0500F0B50024F9
:1056C8003B4B85B00293074623460E4601222046EF
:1056D800CDE9004437490FF0FEFD374B9B6ADB04E8
:1056E80009D5364B0122CDE90143204623463149ED
:1056F80000940FF0F0FD304B9B6A1D0509D5304B27
:105708000122029300232B491846CDE900330FF0FC
:10571800E2FD294DAB6A9C051ED50024294B0122C8
:1057280020460293CDE90044234622490FF0D3FDD9
:10573800AB6BAA6A10040FD50393234B0122CDE962
:105748000143204623461B4900940FF0C4FD1FB1B6
:10575800AB6A23F40043AB62174B9B6A590509D522
:105768001A4B01220293002312491846CDE900334F
:105778000FF0B1FD104A936A13F4807312D0144BE2
:105788000293002301221846CDE9003309490FF09E
:10579800A2FD0020084A936A43F47F439362307065
:1057A80005B0F0BD926A9204F3D50A4A0292E9E77D
:1057B800DBCB0500B4B2050000ED00E0F1CB05003D
:1057C8004CCB050002CC05001BCC050030CC0500F5
:1057D8004BCC0500ACCB05001FB500243B4B012288
:1057E800029320462346CDE9004439490FF073FD62
:1057F800384B9B6A9B0109D5374B0122CDE9014300
:1058080020462346324900940FF065FD314B9B6AD0
:10581800DC0109D5314B0122029300232C4918469B
:10582800CDE900330FF057FD2A4B9C6A14F480141D
:105838000AD02B4B01220293002325491846CDE9B3
:1058480000330FF048FD0224224B9B6A180309D548
:10585800244B0122029300231D491846CDE9003349
:105868000FF039FD1B4B9B6A590309D51E4B0122CA
:105878000293002316491846CDE900330FF02BFD9B
:10588800144B9B6A9A0309D5184B012202930023F3
:105898000F491846CDE900330FF01DFD0D4B9B6AEB
:1058A800DB0309D5124B012202930023084918464D
:1058B800CDE900330FF00FFD064A2046936A6FEAE0
:1058C80003436FEA1343936204B010BD63CC050031
:1058D800B4B2050000ED00E07BCC05008ECC0500DD
:1058E800A8CC0500D2CC0500F0CC050015CD0500EC
:1058F8002FCD05002DE9F043754B0546D3F80480FC
:10590800894614460026A3B0C8F3080786F3118811
:10591800BFF36F8F02F07F43B3F17F4F25D112F0B1
:10592800010322D1510603D422070DD401260DE02C
:10593800684A1846CDE901326749012200930FF001
:10594800CAFC14F0040400D04D4600264FF00009AC
:10595800FB1E8DF81F90092B00F2A080DFE803F0F2
:10596800079498909E9E9E9E9E9C3546EEE75B4BC4
:105978000122CDE90193002357491846544FCDF829
:1059880000900FF0A8FC8DF81F90FC6A14F0020438
:1059980005D0534BCDE90193CDF8009006E0FB6AA2
:1059A800002B0BDA4F4B0094CDE901430023012271
:1059B800184649490FF08FFC002430E0FB6A5B0071
:1059C800FAD5494B0122CDE90143204623464249F5
:1059D80000940FF080FC7B69AA6943F480737B61B3
:1059E800BFF34F8FBFF36F8F7B6932F8022C23F41C
:1059F80080737B61BFF34F8FBFF36F8F4DF60273D8
:105A08009A4226D12B6820460393384B0094CDE95F
:105A180001430122234630490FF05DFC2C689DF8B4
:105A28001F309BB96822294608A814F0ABFB0F9BCE
:105A3800002E47D0C3F3080222B96FEA53236FEA56
:105A480043230F93204608A9FFF7B8FB23B0BDE80E
:105A5800F083BB6ADBB22BB101200DF11F01FFF708
:105A68009DFD0FE0BB6A13F47F4F05D001200DF1B7
:105A78001F01FFF723FE05E0BB6AB3F5803F9BD308
:105A8800FFF7AAFE0446CAE700200DF11F01E6E76A
:105A980000200DF11F01ECE7154B7BE7154A18F4C0
:105AA800F87F154B18BF1346103FCDE90337134B4A
:105AB80001220293002308491846CDE900330FF06C
:105AC8000AFC79E723F4FF7323F00103B9E700BF69
