:020000024000BC
:100000008027022039660400216005000D66040087
:100010000D6604000D6604000D6604000D66040004
:10002000000000000000000000000000915F0400DC
:100030000D66040000000000FD5E04000D66040073
:10004000356004003560040035600400356004004C
:10005000356004003560040035600400356004003C
:10006000356004003560040035600400356004002C
:10007000356004003560040035600400356004001C
:10008000356004003560040035600400356004000C
:1000900035600400356004003560040035600400FC
:1000A00035600400356004003560040035600400EC
:1000B00035600400356004003560040035600400DC
:1000C00035600400356004003560040035600400CC
:1000D00035600400356004003560040035600400BC
:1000E00035600400356004003560040035600400AC
:1000F000356004003560040035600400356004009C
:10010000356004003560040035600400356004008B
:10011000356004003560040035600400356004007B
:10012000356004003560040035600400356004006B
:10013000356004003560040035600400356004005B
:040140003560040022
:04014400FFFFFFFFBB
:1001480081F0004102E000BF83F0004330B54FEA80
:1001580041044FEA430594EA050F08BF90EA020FED
:100168001FBF54EA000C55EA020C7FEA645C7FEA80
:10017800655C00F0E2804FEA5454D4EB5555B8BFA3
:100188006D420CDD2C4480EA020281EA030382EA14
:10019800000083EA010180EA020281EA0303362DA6
:1001A80088BF30BD11F0004F4FEA01314FF4801C79
:1001B8004CEA113102D0404261EB410113F0004F8B
:1001C8004FEA03334CEA133302D0524263EB430342
:1001D80094EA050F00F0A780A4F10104D5F1200EE0
:1001E8000DDB02FA0EFC22FA05F2801841F100013B
:1001F80003FA0EF2801843FA05F359410EE0A5F10F
:1002080020050EF1200E012A03FA0EFC28BF4CF03F
:10021800020C43FA05F3C01851EBE37101F00045F5
:1002280007D54FF0000EDCF1000C7EEB00006EEB02
:100238000101B1F5801F1BD3B1F5001F0CD349088C
:100248005FEA30004FEA3C0C04F101044FEA4452E3
:1002580012F5800F80F09A80BCF1004F08BF5FEA6A
:10026800500C50F1000041EB045141EA050130BD4A
:100278005FEA4C0C404141EB0101013C28BFB1F55C
:10028800801FE9D291F0000F04BF01460020B1FAA7
:1002980081F308BF2033A3F10B03B3F120020CDA7A
:1002A8000C3208DD02F1140CC2F10C0201FA0CF058
:1002B80021FA02F10CE002F11402D8BFC2F1200CBD
:1002C80001FA02F120FA0CFCDCBF41EA0C01904073
:1002D800E41AA2BF01EB0451294330BD6FEA0404BC
:1002E8001F3C1CDA0C340EDC04F11404C4F12002A7
:1002F80020FA04F001FA02F340EA030021FA04F3B9
:1003080045EA030130BDC4F10C04C4F1200220FA0F
:1003180002F001FA04F340EA0300294630BD21FA4D
:1003280004F0294630BD94F0000F83F4801306BF13
:1003380081F480110134013D4EE77FEA645C18BF07
:100348007FEA655C29D094EA050F08BF90EA020F9E
:1003580005D054EA000C04BF1946104630BD91EA96
:10036800030F1EBF0021002030BD5FEA545C05D199
:100378004000494128BF41F0004130BD14F58004D8
:100388003CBF01F5801130BD01F0004545F0FE414C
:1003980041F470014FF0000030BD7FEA645C1ABF81
:1003A800194610467FEA655C1CBF0B46024650EAB8
:1003B800013406BF52EA033591EA030F41F40021E4
:1003C80030BD00BF90F0000F04BF0021704730B56A
:1003D8004FF4806404F132044FF000054FF000013F
:1003E80050E700BF90F0000F04BF0021704730B500
:1003F8004FF4806404F1320410F0004548BF4042D5
:100408004FF000013EE700BF42004FEAE2014FEA29
:1004180031014FEA02701FBF12F07F4393F07F4F04
:1004280081F06051704732F07F4208BF704793F007
:100438007F4F04BF41F40021704730B54FF460741A
:1004480001F0004521F000411CE700BF50EA01021D
:1004580008BF704730B54FF000050AE050EA0102C6
:1004680008BF704730B511F0004502D5404261EB36
:1004780041014FF4806404F132045FEA915C3FF477
:10048800D8AE4FF003025FEADC0C18BF03325FEA14
:10049800DC0C18BF033202EBDC02C2F1200300FAC5
:1004A80003FC20FA02F001FA03FE40EA0E0021FAEA
:1004B80002F11444BDE600BF70B54FF0FF0C4CF4D8
:1004C800E06C1CEA11541DBF1CEA135594EA0C0F8A
:1004D80095EA0C0F00F0DEF82C4481EA030621EAC5
:1004E8004C5123EA4C5350EA013518BF52EA033500
:1004F80041F4801143F4801338D0A0FB02CE4FF0B2
:100508000005E1FB02E506F00042E0FB03E54FF0E1
:100518000006E1FB03569CF0000F18BF4EF0010ED9
:10052800A4F1FF04B6F5007F64F5407404D25FEAD5
:100538004E0E6D4146EB060642EAC62141EA555188
:100548004FEAC52040EA5E504FEACE2EB4F1FD0CCA
:1005580088BFBCF5E06F1ED8BEF1004F08BF5FEA48
:10056800500E50F1000041EB045170BD06F00046FA
:1005780046EA010140EA020081EA0301B4EB5C04A7
:10058800C2BFD4EB0C0541EA045170BD41F480119F
:100598004FF0000E013C00F3AB8014F1360FDEBFC4
:1005A800002001F0004170BDC4F10004203C35DAA0
:1005B8000C341BDC04F11404C4F1200500FA05F323
:1005C80020FA04F001FA05F240EA020001F00042C4
:1005D80021F0004110EBD37021FA04F642EB06013A
:1005E8005EEA430E08BF20EAD37070BDC4F10C0464
:1005F800C4F1200500FA04F320FA05F001FA04F228
:1006080040EA020001F0004110EBD37041F1000113
:100618005EEA430E08BF20EAD37070BDC4F120051E
:1006280000FA05F24EEA020E20FA04F301FA05F286
:1006380043EA020321FA04F001F0004121FA04F22E
:1006480020EA020000EBD3705EEA430E08BF20EAFE
:10065800D37070BD94F0000F0FD101F00046400038
:1006680041EB010111F4801F08BF013CF7D041EABA
:10067800060195F0000F18BF704703F000465200BE
:1006880043EB030313F4801F08BF013DF7D043EA8F
:100698000603704794EA0C0F0CEA135518BF95EA45
:1006A8000C0F0CD050EA410618BF52EA4306D1D1CC
:1006B80081EA030101F000414FF0000070BD50EAEB
:1006C800410606BF1046194652EA430619D094EA75
:1006D8000C0F02D150EA013613D195EA0C0F05D15F
:1006E80052EA03361CBF104619460AD181EA0301B3
:1006F80001F0004141F0FE4141F470014FF000006B
:1007080070BD41F0FE4141F4780170BD70B54FF005
:10071800FF0C4CF4E06C1CEA11541DBF1CEA135585
:1007280094EA0C0F95EA0C0F00F0A7F8A4EB050467
:1007380081EA030E52EA03354FEA013100F088805E
:100748004FEA03334FF0805545EA131343EA126327
:100758004FEA022245EA111545EA10654FEA0026DC
:100768000EF000419D4208BF964244F1FD0404F595
:10077800407402D25B084FEA3202B61A65EB0305F1
:100788005B084FEA32024FF480104FF4002CB6EBAE
:10079800020E75EB030E22BFB61A754640EA0C002E
:1007A8005B084FEA3202B6EB020E75EB030E22BF6E
:1007B800B61A754640EA5C005B084FEA3202B6EBAF
:1007C800020E75EB030E22BFB61A754640EA9C006E
:1007D8005B084FEA3202B6EB020E75EB030E22BF3E
:1007E800B61A754640EADC0055EA060E18D04FEAFC
:1007F800051545EA16754FEA06164FEAC30343EA9C
:1008080052734FEAC2025FEA1C1CC0D111F4801F68
:100818000BD141EA00014FF000004FF0004CB6E761
:1008280011F4801F04BF01430020B4F1FD0C88BF00
:10083800BCF5E06F3FF6AFAEB5EB030C04BFB6EB0B
:10084800020C5FEA500C50F1000041EB045170BDFE
:100858000EF0004E4EEA113114EB5C04C2BFD4EB2B
:100868000C0541EA045170BD41F480114FF0000EAF
:10087800013C90E645EA060E8DE60CEA135594EA2B
:100888000C0F08BF95EA0C0F3FF43BAF94EA0C0F2E
:100898000AD150EA01347FF434AF95EA0C0F7FF4A3
:1008A80025AF104619462CE795EA0C0F06D152EAF7
:1008B80003353FF4FDAE1046194622E750EA4106DB
:1008C80018BF52EA43067FF4C5AE50EA41047FF4EC
:1008D8000DAF52EA43057FF4EBAE12E74FF0FF3C51
:1008E80006E000BF4FF0010C02E000BF4FF0010C22
:1008F8004DF804CD4FEA410C7FEA6C5C4FEA430C9B
:1009080018BF7FEA6C5C1BD001B050EA410C0CBFE9
:1009180052EA430C91EA030F02BF90EA020F00204B
:10092800704710F1000F91EA030F58BF994208BFB2
:1009380090422CBFD8176FEAE37040F0010070476F
:100948004FEA410C7FEA6C5C02D150EA013C07D1C6
:100958004FEA430C7FEA6C5CD6D152EA033CD3D011
:100968005DF8040B704700BF8446104662468C460B
:100978001946634600E000BF01B5FFF7B7FF00283E
:1009880048BF10F1000F01BD4DF808EDFFF7F4FF67
:100998000CBF012000205DF808FB00BF4DF808EDF2
:1009A800FFF7EAFF34BF012000205DF808FB00BF15
:1009B8004DF808EDFFF7E0FF94BF012000205DF837
:1009C80008FB00BF4DF808EDFFF7CEFF94BF0120EC
:1009D80000205DF808FB00BF4DF808EDFFF7C4FFE5
:1009E80034BF012000205DF808FB00BF4FEA410C2E
:1009F8007FEA6C5C02D150EA013C0AD14FEA430C11
:100A08007FEA6C5C02D152EA033C02D14FF000004D
:100A180070474FF0010070474FEA410212F500128B
:100A280015D211D56FF47873B3EB625212D94FEA2D
:100A3800C12343F0004343EA505311F0004F23FA17
:100A480002F018BF404270474FF00000704750EA6C
:100A5800013005D111F0004008BF6FF00040704729
:100A68004FF00000704700BF4FEA4102B2F1E04387
:100A780024BFB3F5001CDCF1FE5C0DD901F0004C7D
:100A88004FEAC0024CEA5070B2F1004F40EB8300CD
:100A980008BF20F00100704711F0804F21D113F1F9
:100AA8003872BCBF01F00040704741F480114FEA32
:100AB8005252C2F11802C2F1200C10FA0CF320FABB
:100AC80002F018BF40F001004FEAC1234FEAD323D8
:100AD80003FA0CFC40EA0C0023FA02F34FEA430342
:100AE800CCE77FEA625307D150EA01331EBF4FF0CB
:100AF800FE4040F44000704701F0004040F0FE40E6
:100B080040F40000704700BF53B94AB9002908BF34
:100B180000281CBF4FF0FF314FF0FF3000F00CB839
:100B2800ADF1080C6DE904CE00F008F8DDF804E03A
:100B3800DDE9022304B07047704700BF2DE9F04794
:100B480086468C460846089E154674461946002B6C
:100B580040F0C1808542B2FA82F245D94AB1C2F169
:100B6800200300FA02FC954094402EFA03F343EA6E
:100B78000C0C4FEA154EA8B2230CBCFBFEF80EFB7A
:100B880018CC08FB00F943EA0C43994528D9EB181F
:100B980008F1FF3704D2994502D9A8F102072B447E
:100BA800A3EB0903A4B2B3FBFEFC0EFB1C330CFB46
:100BB80000F044EA0344A04214D92C190CF1FF3385
:100BC80004D2A04202D9ACF102032C44241A43EA0D
:100BD80007401EB1D440002334607360BDE8F0873D
:100BE8004746DDE76346F1E792BB431B01214FEA25
:100BF800154EAFB2200CB3FBFEFC0EFB1C330CFBF6
:100C080007F840EA0343984561D9EB180CF1FF3027
:100C180004D2984502D9ACF102002B44A3EB080397
:100C2800A4B2B3FBFEFC0EFB1C330CFB07F744EA33
:100C38000344A7424DD92C190CF1FF3304D2A74223
:100C480002D9ACF102032C44E41B43EA0040C0E79C
:100C5800C2F120039540944020FA03F12EFA03F3E1
:100C68004FEA154E9040AFB20343B1FBFEFC0EFBBA
:100C78001C10190C0CFB07F841EA0041884522D9E1
:100C880069180CF1FF3004D2884502D9ACF1020092
:100C98002944A1EB08019BB2B1FBFEFC0EFB1C1121
:100CA8000CFB07F743EA01439F420ED9EB180CF1FE
:100CB800FF3104D29F4202D9ACF102012B44DB1B65
:100CC80041EA004193E76046E3E76146F7E760469B
:100CD800A4E76346B8E7834206D916B90021084657
:100CE8007CE7C6E900E0F9E7B3FA83F78FB98342F6
:100CF80001D3724508D8BEEB020460EB0303012060
:100D08009C461EB9002169E73846FAE7C6E9004C57
:100D1800F8E7C7F1200CBB400EFA07F522FA0CF4ED
:100D28002EFA0CF1BA401C4320FA0CF3B8404FEAF3
:100D3800144901431FFA84FEB3FBF9F809FB183084
:100D48000B0C08FB0EFA43EA00439A4540D9E31816
:100D580008F1FF3004D29A4502D9A8F102002344D1
:100D6800A3EB0A0389B2B3FBF9F809FB183308FBB4
:100D78000EFE41EA03418E452CD9611808F1FF3374
:100D880004D28E4502D9A8F10203214443EA004067
:100D9800A1EB0E01A0FB02984145CE46434602D383
:100DA80006D14D4504D20138B9EB020E68EB0403B5
:100DB800002EA7D0B5EB0E0261EB030101FA0CFC83
:100DC80022FA07F3F9404CEA0303C6E9003199E730
:100DD8004046C5E74346D9E710F8012B11F8013B17
:100DE800012A28BF9A42F7D0D01A7047034613F851
:100DF800012B002AFBD1181A0138704700000000A7
:100E08002DE9F04F824616461C4600259FB00391F7
:100E1800307810B9284600F085BD731C2528069344
:100E280006D00399D0470028C0F27C8501351BE223
:100E38001822002110A81AF08BF87378252B00F0DF
:100E4800BA80002398469E469C461846711C0F4659
:100E580011F8012B2B2A00F0DD8000F2D480202A23
:100E680000F0DB80232A00F0DB802BB19DF84830AE
:100E780043F040038DF84830B8F1000F05D09DF8D5
:100E8800483043F020038DF84830BEF1000F05D0FC
:100E98009DF8483043F010038DF84830BCF1000F3E
:100EA80005D09DF8483043F008038DF8483028B144
:100EB8009DF8483043F004038DF848309DF84830D9
:100EC80003F04401442903D16FF386138DF84830A9
:100ED8009DF848302A2A43F080030E978DF8483051
:100EE80040F0A3809DF8493043F001038DF8493064
:100EF8007B1C1A782E2A0CBF012100219DF849205D
:100F080061F341028DF849200CD15A1C0E925A788F
:100F18002A2A40F09A809DF84920023342F00402C0
:100F28008DF849201A786C2A00F0BB8000F29D8069
:100F3800682A00F0A3806A2A00F0BC804C2A00F0DE
:100F4800C18013F8012B782A06938DF84B2000F204
:100F580001816D2A00F2C380692A00F2FB80572ABA
:100F680000F2DA80412A04D0A2F14503022B00F2F4
:100F7800F18004219DF84A3002F0DF02A2F1410716
:100F880061F302037A429DF849107A4162F3C7116E
:100F98000A068DF84A308DF84910CBB200F1198154
:100FA80003F07802182A40F003816FF3C6038DF826
:100FB80049300023F2E0B21C06928DF84B309DF8C0
:100FC8004930D90740F1078154F8042B002A0492CC
:100FD80008DA9DF8482042F004028DF84820049A67
:100FE800524204925A0740F1FE8054F8047B002FC5
:100FF80080F2FD809DF849306FF341038DF8493048
:101008004FF0FF37F3E02D2A0DD0302A7FF42DAFB3
:1010180001231CE74FF0010C19E74FF0010E16E70A
:101028004FF0010813E7012011E70EA803F07CFF39
:101038000E9BBB423FF45DAF9DF848201390C00F54
:1010480060F341028DF8482053E70EA803F06CFFC7
:101058009DF848301490C3F3400242EAD07262F31C
:1010680041038DF848300E9B5CE7742A26D07A2A13
:101078007FF467AF06219DF849200CE05A78682A6A
:101088009DF8492006D1012161F3C6028DF8492057
:10109800023356E7022161F3C6028DF84920013375
:1010A8004FE75A786C2A9DF8492001D10421EBE7D3
:1010B8000321F0E705219DF84920ECE707219DF879
:1010C8004920E8E7BDF8482022F4F04222F0020265
:1010D80042F4804242F00202ADF84820DFE76E3A5F
:1010E800D3B201229A4040F282431A429DF8493015
:1010F80037D112F0240F5FD1D1072BD503219DF8EA
:101108004A2003F07803A3F1400061F3020243424E
:101118008DF84A20434141E00120A2F15801C9B2AB
:1011280000FA01F111F4624F7FF423AF40F6010396
:1011380019429DF849301AD111F4043F0AD09DF89C
:101148004A2060F3020203F07803402B8DF84A200E
:101158007FF42FAF9DF8483043F001038DF84830F5
:1011680027E702219DF84A2061F30202EBE70220FB
:101178009DF84A1003F0780360F30201402B8DF8C4
:101188004A1002BF9DF8481041F001018DF848103F
:10119800632A7FF40EAF003B18BF01239DF8482057
:1011A800C2F340010B4363F341028DF8482006E780
:1011B80013F0380FCED1FCE603219DF84A2013F036
:1011C800780F61F3020214BF012300238DF84A202F
:1011D800E4E70123E2E79DF94820002AACBF4FF07D
:1011E800FF32139AFDE69F077FF50AAF149F00238D
:1011F800CDE913339DF84A3003F00702042A9DF81D
:10120800492007D1900705D49DF949100029ACBFA2
:1012180006270D2703F00703012BC2F3C30233D1BE
:10122800D31E042B04D8DFE803F021464621210011
:101238002368012A4FEAE371CDE910311CD19DF9E9
:101248004030D917CDE9103104349DF8483099075A
:10125800079350D032465046069B039914F09DFDE3
:101268000028C0F25F830544069ED1E554F8043B8C
:10127800D917CDE91031E8E7022AE5D119B243F3CD
:10128800C033CDE91013DFE7022B24D1D31E042B82
:1012980004D8DFE803F0181010181800012A4FF0DE
:1012A800000154F8043B14D0022ACDE91031CCD106
:1012B8009BB21093C9E7073424F00704F4E802014D
:1012C800CDE91001C1E754F8043B109300231193B2
:1012D800BBE7DBB2CDE7042B08D1073424F00704C1
:1012E800D4E900010834CDE91001AEE7032BACD1F5
:1012F80054F8043BDDE79DF84BB0BBF1780FB3D849
:10130800BBF1570F49D8BBF1250F00F09180BBF115
:10131800240FA9D9BBF1410F03D0ABF14502022A32
:10132800A2D8DDE91012002AC0F23681079B1E07F9
:1013380000F13581C3F300194FEA4919C2F30A5085
:10134800C2F31302002840F02D8151EA020614BFAF
:1013580001260026D20242EA5152C902BBF1460FC9
:1013680040EA010E42EAE07C08BF4FF0660B5EEAF5
:101378000C0CCDE90C1200F09B81002E40F0498145
:101388000D9AA0F2FE3842F000420D920020DDE9ED
:101398000C1206464FF0050C55E1ABF15801202917
:1013A8003FF662AF01A050F821F000BF3F150400DE
:1013B8007112040071120400711204007112040009
:1013C80071120400711204007112040071120400F9
:1013D8002B13040071120400C3140400D714040072
:1013E8002B1304002B1304002B13040071120400A8
:1013F800D714040071120400711204007112040061
:1014080071120400791504003F1504004515040005
:1014180071120400711204003F14040071120400D8
:101428003F15040071120400711204003F150400F6
:1014380058460399F6E4002F109E3ADB39463046A9
:1014480019F07CFF3718002E3FF40EAF4FF000095B
:101458009DF84A3013F01002059200F058820230CD
:1014680013F04003DDF84C80089318BF149B4044E8
:1014780018BFC018049BCDF81C80002B40F3628273
:101488009DF848201B1A50070493C2F3800B00F103
:101498005982510640F14982B9F1000F07D04846F8
:1014A8000399D0470028C0F23D82D9460135302241
:1014B8003CE23046FFF79AFCC4E7109B4FF0000966
:1014C80001208DF85C300DF15D0717AEC0E7079B72
:1014D8001A0754BFC3F300194FF02B09DDE9102395
:1014E80058BF4FEA4919002B06DA4FF02D0952422E
:1014F80063EB4303CDE91023DDE910010DF175031A
:10150800009312AA17AB03F025FD0646002F0CDB4B
:101518009DF848200DF175039B1B6FF386129F42BF
:101528008DF8482001D9FB1A1393002E3FF49CAE86
:101538000DF175075BE04FF00009DDE71098002812
:1015480000F0E0810DF175030093002117AB12AA9A
:1015580003F000FDBDF84A30064603F0EF0343F4FC
:10156800F04343F010034FF00009ADF84A30CDE7DF
:10157800109B072A3FF678AEDFE802F00C04060C51
:1015880008080C0C1D706FE61D806DE6EA17C3E9AC
:10159800005269E61D6067E64FF02D09CEE64FF070
:1015A8002B09CBE640F2FF76B0422FD1A0480BF1D1
:1015B8000103DBB2C35C0A4303F003031ED1012B12
:1015C8000BBF492369234E216E210CBF4622662298
:1015D8008DF85C309DF848308DF85D106FF38613F8
:1015E8008DF85E208DF848300DF15F0717AEB81BF7
:1015F800B9F1000F3FF42CAF013029E7012B15BFDB
:101608006E234E23612141211A46E1E70026A1E617
:10161800013849185241002AFADACDE90C12AFE62E
:10162800490841EAC2715208B2F1333F404608F115
:101638000108F5D200F1020801200CFB02FEA1FB13
:101648000C12013E724418F1020FE9DB08B1CDE932
:101658000C12DDE90C21B8F1000F2CDCC8F10400F4
:10166800A0F1200C08F11C08C24001FA08F821FA80
:101678000CFCC1400BF0DF0042EA0802472842EAAE
:101688000C0238D1F01C01DBB7422ADAABF10203B5
:10169800002F5FFA83FB7BDD9DF84800013F83063E
:1016A80076D43B1E18BF0123059307F101082CE0EF
:1016B8004FF000086AE6023241F100010CA808F177
:1016C800FF380136CDE90C2114F038FBDDE90C2197
:1016D80092184941002908F1FF38F9DACDE90C21BF
:1016E800B7E79DF84830BF1B98064FD43B1E18BF7C
:1016F8000123059304E00023BBF1660F0593D4D1C1
:1017080017EB06084FF0660B44D4B8F1100FA8BFCA
:101718004FF010089FED447B10208DED0E7B0B9051
:10172800DDE90E03B8F1000F37D1121841EB0301C0
:10173800B1F1805F41D2CDE90C21079BBBF1660F67
:1017480003F0200240F0BD80002E41DC30218DF8EE
:101758005C10002A6ED1002F40F3B5812E228DF83F
:101768005D2086B17242BA42A8BF3A46002A139257
:10177800A7EB0207D4BF002201229DF84A1062F3AA
:1017880045118DF84A100DF15E0839E00023B0E7E5
:10179800002389E74FF00008BCE7400840EAC3701F
:1017A8005B08CDE90E030EA8CDE9082108F1FF3842
:1017B80014F0C4FADDE90821B2E7520842EAC1721E
:1017C8000CA84908CDE90C21013614F0B7FAB4E7A2
:1017D8000DF15C080B99002909DD0BA90CA80792EB
:1017E80014F0C4FA013E079A08F8010BF2D11396D7
:1017F8009AB9002F40F365812E2108F8011B0026B5
:10180800002F20DD0B9A002A1DDD0BA90CA814F06F
:10181800ADFA013F08F8010BF2E72E2208F8012B78
:10182800EDE700BFAFF300800000000000000008F3
:101838008C0906002E228DF85D20002EA3D0002FE3
:1018480090DC0DF15E08059B002B4ED1149747469E
:101858000BF0DF02452A23D1002EBABF76422D2392
:101868002B23632EC8BF64217B70C4BFB6FBF1F382
:1018780001FB13664FF00A01C8BF03F13000B6FB45
:10188800F1F3D2BFBA1CFA1CB87087F800B017463B
:1018980003F1300001FB1363303307F8020B537078
:1018A800139B002B2CDC149B002BD4BF002301239B
:1018B8009DF84A2063F3861200238DF84A203B7076
:1018C80094E60BA90CA8079214F050FA079A30284E
:1018D8008DF85C0018BF06F1FF3612B9002F40F3EF
:1018E800F2802E228DF85D204DE7474617F8012C2F
:1018F80008F1FF38302AF8D02E2A08BF4746A7E754
:101908000123D5E7714F81467E1F0520A0E51A0700
:1019180048BF0130A4E5104609920399D047002832
:10192800099A05DA1FB0BDE8F08F2022DDF810B063
:10193800594600290BF1FF3BEDDC049BCDF810B0B4
:101948002B445D1AB9F1000F05D048460399D047DA
:101958000028E7DB0135089B002B77D09DF949303B
:10196800002B28DB3346DFF8689118789B4619F876
:101978000020013352073FD49DF84A30AE1B980629
:101988005E4407D44246002A08F1FF383BDC079B37
:1019980033449E1A9BF800002E280AD10399D04799
:1019A8000028BFDBB8F1000F06F1010631DC0BF1AE
:1019B800010B5D4638E0B14699F80000C84670282A
:1019C80009F1010913D1AE1B149D46443544AB1BE4
:1019D800002B33DC3B4642465046039914F0DDF9B0
:1019E80000289FDB3044049E0546064464E00399C2
:1019F800D0470028E0DA95E705930399D0470028F7
:101A0800059BB2DA8EE730200399D0470028B9DA6F
:101A180088E730200399D04708F1FF38C0E70399D9
:101A2800D0470028FFF67EAF2878A84619F800307E
:101A380001355907F3D4A6EB0B06C5E73020039907
:101A4800D0470028FFF66EAF0136C0E79DF84A3050
:101A5800DA0601D41B0706D530200399D0470028A1
:101A6800FFF660AF0135059B3BB103999DF84B002C
:101A7800D0470028FFF656AF0135A84406E03020CD
:101A88000399D0470028FFF64DAF0135A8EB0503B1
:101A9800002BF4DC3B4632465046039914F07DF99E
:101AA8000028FFF63FAF28449DE720200399D04740
:101AB8000028FFF637AF0135731B002BF5DCFFF765
:101AC800D3BB1646BFE60DF15D08BCE6EBD70500B3
:101AD8008D09060000000000F0B52DED028B0025F1
:101AE80004238BB00E460746CDE908550593002818
:101AF80000F0C080002900F0BD80062108A815F07C
:101B08005AFE044678B1604B0390CDE90153012297
:101B18002B4628465D49009515F0A6FF20460BB0D8
:101B2800BDEC028BF0BD014608AA384615F02AFE26
:101B3800044670B1564B0390CDE901532B460095EE
:101B480001221846514915F08FFF08A815F05DFECF
:101B5800E4E7032105AB06AA08A815F034FF0446FC
:101B680010B14C4B0390E7E7059B014628336B44C3
:101B780003F8100C022206A812F0FAF90121C7B2E4
:101B880004AA08A815F0F3FE044610B1424B0390CE
:101B9800D2E7049B042B22D0052B0CD03F4B30708E
:101BA8000222CDE9010339490346009015F05CFF94
:101BB8006FF07F04C9E709230F2F337033D96FF013
:101BC80015030393364B02930023CDE9003301221A
:101BD80018462E4915F048FF6FF01504B5E707239E
:101BE8000F2F3370EBD89FED2F8A2F4B33F8170048
:101BF800F8B1FEF7F7FB22A3D3E90023FEF75CFC5C
:101C0800FEF732FF0421706005AB06AA08A805910B
:101C180015F0D9FE044670B1244B039002930023BB
:101C2800CDE900338CE7224B9FED228A33F8170069
:101C3800DEE72148E6E7059B014628336B4403F8B5
:101C4800100C022206A812F093F9C0B20F2806D988
:101C58001A4B0390CDE9014300942346B7E70130BE
:101C6800C0B207EE900AF8EEE77A67EE887AC6ED1A
:101C7800027A6AE76FF0150450E700BFAFF30080FF
:101C88007B14AE47E17A244063F4050094BF050055
:101C98008CF40500B8F40500E4F4050006F5050029
:101CA8002EF505000AD7A33F50C9050052F50500D7
:101CB80030C905000AD723400AD7A3407DF505009F
:101CC8002DE9F0472DED028B04469FED498B4A4ED6
:101CD80084B04FF02003EFF3118783F31288BFF32A
:101CE8006F8FD4F8C8508DB9022104F1E00018F0C4
:101CF8006FFE002843D100238DED008B39460293F7
:101D080004F1D0023D4811F07DF9E2E7D4F8CC2087
:101D18002B689542C4F8C83008BFC4F8CC30D4F852
:101D2800E03043F00203C4F8E030EB6823F004032A
:101D380043F00103EB606B6887F31188BFF36F8F83
:101D4800284698474FF02003EFF3118983F3128850
:101D5800BFF36F8FEB68990723F0010219D4EA608B
:101D6800D4F8E03023F00203C4F8E03089F3118896
:101D7800BFF36F8FDB05ACD411F042F8A9E704F18B
:101D8800D80500220121284618F05DFF0028F8D167
:101D9800B1E7306823F00303EB600028E0D00027A8
:101DA800BA46D0F800800028DAD042680146954249
:101DB8000BD1016897B972683160824200D17160B5
:101DC80040F808AB10F08CFC3946B8F1000F0BD086
:101DD800D8F8002040460F469046E4E7396072681C
:101DE800824208BF7760EBE74246F3E7AFF3008033
:101DF800FFFFFFFFFFFFFFFFA8BC01203E080220F6
:101E08002DE9F04F476A97B08346209E08910C92BF
:101E1800129355EC104B8DED000B7FB9102011F08B
:101E2800E9FA0246CBF8240020B9A74BEA21A748D3
:101E380013F046F8C0E901770760C760DBF8243083
:101E4800196859B15A680123584693404A608B6013
:101E580012F078F9DBF8243000221A602B1EB7BF85
:101E680023F00043002301220193A8BF3360019FA0
:101E7800974BB8BF3260BB4319D142F20F73129A25
:101E88001360C7F31303234300F0DB85219B53B989
:101E9800904B21E0904B03930833219A13600398E9
:101EA80017B0BDE8F08F8B4B03930333F5E79DED37
:101EB800007B0022002351EC170B8DED0A7BFEF707
:101EC80063FD804650B10123129A1360219B13B120
:101ED800824B219A1360824B0393E0E7C7F30A56BB
:101EE80014AA15A958469DED0A0B12F0B3FB0290EF
:101EF800002E76D00B9BA6F2FF36CDF84C80C3F3AC
:101F0800130343F07F53DDE90A0143F440131946F4
:101F18000022744BFEF718F965A3D3E90023FEF7F6
:101F2800CBFA65A3D3E90023FEF710F904460D4662
:101F38003046FEF757FA62A3D3E90023FEF7BCFA4E
:101F480002460B4620462946FEF700F904460D4690
:101F5800FEF762FD00220746002320462946FEF7C9
:101F68001DFD40B13846FEF73DFA22462B46FEF7E6
:101F78000BFD00B9013F162F52D85B4B03EBC7038B
:101F8800DDE90A01D3E90023FEF708FD002849D05E
:101F9800013F00231193149B9B1B5A1E4CBFC3F196
:101FA80001030023079245BF069300230693079376
:101FB800002F39DB079B10973B44079300230993B5
:101FC800089B092B66D8052BC5BF043B00240124B8
:101FD8000893089B023B032B67D8DFE803F02D3AF0
:101FE8003859DDE914631E4406F23243202BC9BF79
:101FF800C3F14003C3F120039F4006F21243D8BF48
:1020080004FA03F006F1FF36C4BF24FA03F347EAE3
:102018000300FEF7D7F90122A1F1F873139276E7CE
:102028000123B7E71190B6E7069BDB1B06937B42BB
:10203800099300231093C3E700230D930C9B002BF7
:1020480056DC012399461A4604930C920CE00123AE
:10205800F3E700230D930C9BFB1803F1010904938C
:102068004B46012BB8BF0123DBF8240000210422D2
:1020780002F114059D423FD94160584612F022F8FA
:10208800039000283BD1194B02464FF4D571CEE698
:102098000123DFE7012400230D9408934FF0FF3359
:1020A8000022994604931223CFE701230D93F5E705
:1020B80061436F63A787D23FB3C8608B288AC63F46
:1020C800FB799F501344D33FC80A0600DF0A060075
:1020D8000000F07FC40A0600BB0A0600F2F3050000
:1020E800F1F305000000F83FE0C005003B0B0600D7
:1020F8000C9B99460493B7E701315200B8E7DBF827
:102108002430B9F10E0F039A1A606FD8002C6DD0E5
:10211800002F36DD07F00F02A04BF8054FEA271411
:1021280003EBC20393ED007B8DED0E7B17D59C4B23
:1021380004F00F044FF00308D3E90823DDE90A018E
:10214800FEF7E4FACDE90001954D5CB9DDE90E230F
:10215800DDE90001FEF7DAFACDE900012BE04FF0E6
:102168000208F1E7E10709D508F10108DDE90E01E8
:10217800D5E90023FEF7A0F9CDE90E016410083572
:10218800E3E700F007817C42844B854D4FF002085D
:1021980004F00F02241103EBC203DDE90A01D3E9BD
:1021A8000023FEF789F90023CDE90001002C40F057
:1021B800E580002BD0D1119BDDE90045002B00F014
:1021C8004C810022774B20462946FEF7E7FB002882
:1021D80000F04381B9F1000F00F03F81049B002B10
:1021E80000F3E480DDE90A34CDE90034159B002BC7
:1021F80002DB0E2F40F342820D9A002A40F06782DC
:10220800099C0025DDF81880B8F1000F0DD0079B58
:10221800002B0ADD4345069AA8BF4346D21AA8EB0D
:1022280003080692079AD31A0793099B0BB30D9BD1
:10223800002B00F0A682002C00F0A182294622463D
:10224800584612F0A9F8029A01460546584611F078
:10225800F9FF02990646584611F074FF099B1B1BAB
:10226800099300F09182099A3146584612F094F881
:1022780002900121584611F0CFFF109B0446002B15
:1022880000F084821A460146584612F085F8089BE9
:102298000446012B03DC009B002B00F07C82002607
:1022A800236904EB8303186919F038F9C0F1200099
:1022B8001096079B184410F01F0000F09182C0F19F
:1022C8002003042B40F38182C0F11C00069B0344C9
:1022D80080440693079B03440793069B002B05DD68
:1022E8001A460299584612F0B1F80290079B002B43
:1022F80005DD21461A46584612F0A8F80446119BF7
:10230800002B00F076822146029819F056F9002831
:1023180080F26F8200230A220299584611F034FF96
:102328000D9B7E1E0290002B00F05C820023294644
:102338000A22584611F028FF049B0546002B03DCAF
:10234800089B022B00F35E82B8F1000F05DD2946D9
:102358004246584612F07AF80546109B002B00F0CA
:10236800D0826968584611F0ADFE0746002840F053
:102378007F820D4B024640F2EA2158E5E20706D576
:1023880008F10108D5E90023FEF796F80123641047
:1023980008350BE74FF002080DE700BFE0C0050065
:1023A800B8C005000000F03F3B0B060020460022A5
:1023B800AC4B2946FEF780F87E1E08F10108049C04
:1023C800CDE900014046FEF70DF8DDE90023FEF7F0
:1023D80073F8A54B0022FDF7B9FEA1F15073CDE9C2
:1023E8000E010F93002C3BD10022A04BDDE9000128
:1023F800FDF7AAFE02460B46CDE90023DDE90E23D0
:10240800FEF7EAFA002840F05781DDE90E2101F1D4
:102418000043DDE90001FEF7C1FA00283FF4E2AE0F
:10242800002425460C9BDDF80CA0DE434FF0000885
:102438002146584611F086FE002D00F0A980B8F11B
:10244800000F05D0A84503D04146584611F07AFE42
:102458002946584611F076FE9AE03E464C46B1E7CA
:10246800834B03EBC40353E90201039B1C440D9BFC
:10247800002B4AD002460B4600207E49FEF746F95B
:10248800DDE90E23FDF760FEDDF80CA0CDE90E01B5
:10249800DDE90001FEF7C0FA0546FDF7A3FF024695
:1024A80030350B46DDE90001FDF74EFE0AF8015B09
:1024B80002460B46CDE90001DDE90E01FEF78CFA74
:1024C800002865D100206C49DDE90023FDF73CFEBA
:1024D80002460B46DDE90E01FEF77EFA002840F0C1
:1024E8000D81A24500F0EA8000225E4BDDE90E0175
:1024F800FDF7E2FF00225B4BCDE90E01DDE90001AB
:10250800FDF7DAFFCDE90001C2E7DDE90E23FDF7AB
:10251800D3FFA046DDF80CA0CDE90E01DDE90001EE
:10252800FEF77AFA0546FDF75DFF024630350B46A1
:10253800DDE90001FDF708FE0AF8015B02460B46DB
:10254800A245CDE900234FF0000223D1494BDDE934
:102558000E01FDF7FBFD02460B46DDE90001FEF723
:102568003BFA002840F0CA8000204249DDE90E23EA
:10257800FDF7EAFD02460B46DDE90001FEF70EFA1B
:1025880070B1C24608F1FF381AF8013C302BF8D078
:10259800374655E0334BFDF78FFFCDE90001BDE726
:1025A800DDE90A34CDE90034159B002BFFF628AE8F
:1025B8000E2F3FF725AE2E4B03EBC70393ED007BA1
:1025C8000C9B002B8DED047B02DAB9F1000F64D06F
:1025D800DDF80CA0DDE90045DDE9042320462946A5
:1025E800FEF794F8FEF718FA0646FDF7FBFEDDE95C
:1025F8000423FDF761FF0246204606F130040B462E
:102608002946FDF7A1FD0AF8014B039C02460B463B
:10261800AAEB0404A14540F08280FDF797FD04462B
:102628000D46DDE90423FEF7D7F9002865D12046D9
:102638002946DDE90423FEF7A7F908B1F3075CD4BE
:102648000299584611F07EFD002301378AF80030C0
:10265800129B1F60219B002B3FF421ACC3F800A004
:102668001DE400BF0000244000001C40000014408E
:10267800E0C005000000E03F0000F03FA24B03EB84
:10268800C70393ED007B0C9B002B8DED047B9FDA39
:10269800B9F1000F9CDC7FF4C3AE00229B4BDDE94F
:1026A8000401FDF709FFDDE90023FEF78BF9044675
:1026B80000287FF4B5AE3E462546B4E0DDE90A348D
:1026C800CDE90034159B002B01DB0E2FD6DD089ACF
:1026D800012A36DC139A82B303F23343099CDDF8EE
:1026E8001880069A012158461A440692079A1A44F5
:1026F800079211F091FD054686E53E4653469A46F7
:1027080013F8012D392A06D1039A9A42F7D13022BB
:10271800039901360A701A7801321A7038E70022D4
:102728007B4BFDF7C9FE0022002304460D46FEF749
:102738002BF900283FF450AF82E7149BC3F136030E
:10274800CCE709F1FF34099BA34208DBB9F1000F7C
:10275800A3EB04040EDBDDF818804B46C1E7099BA8
:10276800109AE31A0994DDF8188000241A444B469D
:102778001092B6E7069BA3EB09080023B1E7029E77
:1027880071E5099A029970E5029672E5089B012B9A
:1027980017DC009BABB9019BC3F313039BB9019BE7
:1027A80023F00046360D360536B1069B0126013367
:1027B8000693079B01330793109B002B7FF470ADA2
:1027C8001096012075E50026F6E73FF486AD1C3328
:1027D800069A1A4498440692079A1A4407927CE586
:1027E8000346F4E7049B002B2BDC089B022B09DC37
:1027F80027E0B9F1000F1DDC089B022B1ADD3E46CD
:10280800CDF81090049B002B7FF40CAE21460522D6
:10281800584611F0B9FC01460446029818F0CDFE5E
:1028280000287FF7FFADDDF80CA0312301360AF848
:10283800013BFBE50D9B3E46CDF81090002B7FF445
:1028480083AD039F2146029818F0C9FD039B00F150
:102858003009049A07F8019BFB1A9A4240F3CB808F
:1028680000230A220299584611F08EFC0290E9E7EB
:102878002A6905F10C010C300232920018F02EFB87
:1028880001223946584611F0E1FD039BA84605464A
:1028980003F1010ADDE9032313440793009B03F0C6
:1028A800010309930AF1FF3321460298049318F0B3
:1028B80096FD4146069000F13009029818F07DFE19
:1028C8002A4621460746584611F02CFEC2680146A2
:1028D80002B3584611F036FC002F3ADA0122029969
:1028E800584611F0B3FD2146029018F066FE002804
:1028F80003DC29D119F0010F26D0B9F1390F1DD108
:1029080032E02846C1E700BFE0C0050000001440DF
:10291800000024400A90029818F04FFE0A990C9083
:10292800584611F00FFC0C9A5ABB089B53B9099BE7
:1029380043B9B9F1390F17D0002F05DD069B03F114
:10294800310901E0002F2ADADDF810A00AF8019B0E
:102958006EE5089B3B4304D1009B03F00103002B69
:10296800BCD0B9F1390F36D1049F392307F8013BA0
:10297800BA46013F1AF8013C392B5AD001333B7053
:1029880056E5002F06DB089B3B4306D1009B03F06E
:10299800010313B9002AA1DCD6E7002AE1DC079B72
:1029A80057460AF8019C53452ED000230A22029963
:1029B800584611F0E9FBA84502904FF000034FF08C
:1029C8000A02414658460BD111F0DEFB8046054607
:1029D8000AF1010A66E7DDF810A009F10109B5E777
:1029E80011F0D2FB2946804600230A22584611F0EE
:1029F800CBFB0546ECE7049B4FF00008002BCCBF4F
:102A08001F460127039B1F4401220299584611F0D3
:102A18001DFD2146029018F0D0FD0028A8DC02D147
:102A280019F0010FA4D1BA4617F8013D302BFAD09E
:102A3800FEE4039BBB429BD13123039A01361370FA
:102A4800F6E4219B002B7FF425AA014BFFF744BA3B
:102A5800BB0A0600002330B585B004460D46222285
:102A6800014601A8CDE90133039304F0F3F818B146
:102A78002146194812F090FE25F02003413B192BFE
:102A880007D9A5F13003092B03D90A2D0CBF0A2554
:102A98005F2501220DF1030101A88DF8035004F010
:102AA80069F900280DDA21460C4812F075FE01A8D4
:102AB80004F03CF918B12146094812F06DFE05B042
:102AC80030BD092802D121460648EEE78628EED116
:102AD80021460548E9E700BF3ACD050049CD050084
:102AE800A2CD05005FCD05007DCD05001FB50B4BC0
:102AF800D3E8AF3F73B1002009F008FA50B1084B92
:102B080003900293002301221846CDE900330549BA
:102B180012F089FD05B05DF804FB00BF8CB20120FE
:102B2800B2CD05009CBF0500F0B50378044697B008
:102B3800072B2CD8DFE803F0041D2D4B686E2B7E85
:102B4800037A012B03D0052B21D1574B00E0574BBB
:102B58000393574B03220293002356491846CDE9A5
:102B6800003312F060FD544817B0BDE8F0400FF094
:102B7800B7BDC368049383680393504B0293002343
:102B880003221846CDE900334A4912F04CFD17B02C
:102B9800F0BD0069FDF738FCCDE90201E068FDF7FA
:102BA80033FC07ADCDE90001454A3C21284612F027
:102BB80000FE0028EBDD434B03950293002303221C
:102BC8001846CDE900333B4912F02DFDDFE7017AC5
:102BD8003D4A3E4B012908BF134603933C4B032251
:102BE8000293002333491846CDE9003312F01BFD48
:102BF800237A0BB93748B7E700220023354817B0C6
:102C0800BDE8F0400FF092BD436904930369039354
:102C1800314BB3E7027A4AB1072A09D02F4B304922
:102C2800092A08BF0B4603932E4BC6E72E4BFAE73B
:102C38002E4BF8E72E4B0322029300231D4918461A
:102C4800CDE9003312F0EFFC236901339FD0294A04
:102C580004F10803164604F1380715461868596840
:102C6800083303C5BB422A46F7D194F838204AB145
:102C7800E16BB1B112014FF488731F4818F03BF9AA
:102C880094F838201D4B86F83020029300230392D5
:102C980018460322CDE90033064912F0C4FC18484F
:102CA80062E70A46EEE700BF04CE0500EBCD05005B
:102CB80041CE05009CBF050000AC012061CE050097
:102CC80090CE050062D3050018CE050022CE05007F
:102CD800B9CE050018AC0120C6CE050032CE0500DD
:102CE8003ACE0500F7CE05002DCE050027CE05000B
:102CF80013CF050000A501207CB1012037CF0500C6
:102D0800E8AB012008B50E4817F0D7FC20B90D48EC
:102D1800BDE8084012F040BD0B4812F06AFC0028DC
:102D280001DA0A48F4E70121074812F08BFC12F097
:102D38009DFCBDE808400021034812F083BC00BF99
:102D48001CBC050050CF0500B8C1050073CF0500B5
:102D580008B50E4817F0B1FC20B90D48BDE8084089
:102D680012F01ABD0B4812F044FC002801DA0A4898
:102D7800F4E70121074812F065FC12F077FCBDE882
:102D880008400021034812F05DBC00BF1CBC0500D0
:102D98009BCF0500B0C10500BBCF05001FB5174C80
:102DA800204617F08AFC30B92168154804B0BDE800
:102DB800104012F0F1BC134812F0EEFC0C22124B3A
:102DC8001248C3F82422D3F8242242F44032C3F82C
:102DD800242212F0E1FC0020062301A9CDE901001C
:102DE80003908DF8043002F08DFD4FF480300021FF
:102DF80010F088F8064812F0CFFCFEE754BC050036
:102E0800E0CF0500F7CF05000025844014D0050069
:102E180047D0050007B51C4813F068F870B11B4887
:102E280012F0BAFC1A481B4BC36004F0DFF840BB31
:102E3800194803B05DF804EB12F0AEBC6A460121F4
:102E4800114813F09DF808B11448E9E700991448AF
:102E580012F0A2FC02210C4801AA13F091F808B163
:102E68001048DDE70199104812F096FCDDE90031C1
:102E7800A3FB01311B0D0D4843EA013112F08CFC14
:102E8800D0E70B48D5E700BF61D0050064D0050046
:102E980040A50120E1D00500E6D0050078D0050066
:102EA80093D00500A3D00500BDD00500CDD0050006
:102EB800F5D005002DE9F0471646002284B000AF92
:102EC800044689461D46C7E90122FA6006F107084B
:102ED8009BB901462222381D03F0BCFE18B12146D9
:102EE8003F4812F059FC28F00708ADEB080D494699
:102EF8006846E84618F0D9F926E03A4812F04CFC42
:102F080022222146381D03F0A5FE18B12146344877
:102F180012F042FC344812F03FFC3146334812F0BC
:102F28003BFC28F00708324812F036FCADEB080DE0
:102F38004946684618F0B9F92E48694612F02CFC43
:102F48002D48E84612F028FC4FF00009DFF8C0A031
:102F5800B1451FDB1DB14146264812F01DFC414614
:102F6800721C381D03F006FF00282FDA214623487B
:102F780012F012FC381D03F0D9FE18B12146204882
:102F880012F00AFC15B11F4812F006FC1037BD46B6
:102F9800BDE8F08718F8091021F02003413B192BF0
:102FA80009D9A1F12F030B2B05D90A2903D0A1F1C7
:102FB8002A03012B06D815B1504612F0EDFB09F192
:102FC8000109C5E75F2308F80930F8E7092802D1A5
:102FD80021460D48CCE78628CCD121460B48C7E7C7
:102FE8003ACD05000BD1050021D1050030D10500EF
:102FF8003CD1050054D1050068D1050049CD050034
:10300800A2CD050081D105005FCD05007DCD05006D
:103018007DD10500F8B50F24234F244E2246002108
:10302800384617F095FF224D22460021304617F00A
:103038008FFF22461F4C0021284617F089FF2146A2
:10304800384618F032F92146304618F02EF9214654
:10305800284618F02AF91849184818F026F9184986
:10306800184818F022F91849184818F01EF9184994
:10307800184818F01AF91849184818F016F9184994
:10308800184818F012F91849184818F00EF9184994
:10309800184818F00AF91849184818F006F9BDE850
:1030A800F840174812F078BBE9DC0120B7DA0120B4
:1030B80085D801209BD10500A1D10500A0DC012005
:1030C800A9D105006EDA0120B1D105003CD8012054
:1030D800B9D10500F8DA0120C0D10500C6D8012011
:1030E800C7D1050094D60120CED10500C6DA01204B
:1030F800D6D1050094D80120DED1050062D6012082
:10310800E6D1050008B5044B18680AF0DDF8003868
:1031180018BF0120404208BD78B10120002340F2C9
:1031280001312DE9F0473D4AAEB0CDE908230A93B5
:103138003B4C3C4B08A8CDE90B1321460AF0E0F9BB
:103148000546002867D108A80AF0DAF88023822209
:103158000393206803AB0DA90AF0F0F810B13248C8
:1031680012F01AFB31480DAC12F016FB2746002668
:10317800DFF8CC90DFF8CCA0DFF8CC80039BB3421B
:1031880019D82B4812F008FB2A4812F005FB002634
:10319800DFF8B880DFF8B890274F039BB34222D8F6
:1031A800234812F0F9FA2449244812F0F5FA28467F
:1031B8002EB0BDE8F0873978484612F0EDFA17F8D6
:1031C800013B05220021009304A8534617F0E9FFAC
:1031D8008022404604A91EB918F06FF80136CDE7E1
:1031E80018F03EF8FAE72178404612F0D5FA14F8BC
:1031F800013B05220021009306A84B4617F0D1FF9A
:103208008022384606A91EB918F057F80136C4E7D7
:1032180018F026F8FAE74FF0FF35C8E700248000D9
:1032280078B1012000025005F7D105000DD2050044
:10323800CDFC050022D20500F8DC01203AD20500B9
:103248001ED20500FFFD050078DD01202FD2050004
:1032580035D205002DE9F04F0C218BB05C480AF0FF
:103268002DF928B14FF0FF3420460BB0BDE8F08FA0
:1032780009AB0693574B4FF4FC6B04934FF4FA6376
:103288004FF023090393544B54480293544BCDF801
:1032980014B00093CDF804900C234D4A51490068AE
:1032A8000AF070F804460028DCD14FF00C0ADFF869
:1032B8004C814D4D4D4F4E4E0346CDE90108CDF89A
:1032C80010A00395009003224A4912F0ACF9204659
:1032D800CDF800A00322CDE901463D4B45490397AF
:1032E80012F0A1F90395444DDFF814A123462046B6
:1032F8000322CDE901453F49009412F094F9234691
:103308002046CDF810900322CDE9028ACDE9004489
:10331800384912F088F92046CDE900940322CDE916
:1033280002672F4B334912F07EF9234620460322C9
:10333800CDE9025ACDE900442E4912F074F94FF450
:10334800FA63DFF8C0902046CDE90289049303228E
:103358002346CDE90044274912F065F94FF4FA6392
:10336800204600930322CDE902671B4B21490194B3
:1033780012F059F9CDE90259DFF88C90234620461E
:103388000322CDE900441B4912F04DF9234620469B
:103398000322CDE90289CDE900441649CDF810B0E1
:1033A80012F041F920460322CDE90267CDE900B4C5
:1033B800084B104912F037F9234603222046CDE97D
:1033C8000259CDE900440B4912F02DF94CE700BF32
:1033D80056D60120A6C6012086CE012078B101204C
:1033E80000AA0120000250054AD2050065D2050056
:1033F80062D305009CBF05006ED205004DD20500C2
:1034080080D2050090D205009AD20500F0B58BB0A5
:1034180009AB06934FF4FC630393234B4FF4FA650F
:1034280002932323214E0193214B224800930595B3
:1034380004960C23204A2149006809F0F1FF04464C
:1034480000282DD11E4F1F4B0322CDE901031E4931
:10345800034600900495039712F0E5F81B4B0322EE
:1034680003931B4B2046CDE901431749334600958A
:1034780012F0D9F8174B03222046CDE9014312492F
:1034880023460397009412F0CEF82A463046124994
:1034980017F014FD003818BF012040420BB0F0BDF2
:1034A8004FF0FF30FAE700BFA6C60120D6BE0120C4
:1034B80000AA012078B1012056D60120000250054B
:1034C800A9D205004DD205009CBF050065D20500B4
:1034D80062D305006ED2050086CE01201FB512F01A
:1034E800CAF848B10D4B0322029300230C49184631
:1034F800CDE9003312F097F8FFF710FE48B1074BFB
:1035080003220293002306491846CDE9003312F03E
:103518008AF8002005B05DF804FB00BFB8D20500AA
:103528009CBF0500F8B51D4D04460E4601461C48D3
:1035380012F032F92A460023B34229DB194812F067
:103548002BF90024154E184F384616F8011B013484
:1035580012F022F9B4F5FA6FF6D1144812F01CF9FA
:103568000024134E304615F8011B013412F014F9EB
:10357800B4F5FA6FF6D10F4812F00EF90E4812F0B2
:103588000BF9FFF767FE003818BF01204042F8BD6D
:10359800E15C013302F8011BCEE700BF86CE0120B3
:1035A800D3D20500E9D205001ED20500E8D20500F5
:1035B8002FD20500CDFC0500FAD2050030B5D04C5D
:1035C800ADF5177DCF4D2146684617F06EFE2946AA
:1035D8004FF41672684617F043FE21464FF41672F0
:1035E800684617F03DFE4FF416726846C64917F054
:1035F80037FE21464FF41672684617F031FE4FF435
:1036080016726846C14917F02BFE21464FF4167210
:10361800684617F025FE4FF416726846BC4917F045
:103628001FFE21464FF41672684617F019FE4FF434
:1036380016726846B74917F013FE21464FF4167202
:10364800684617F00DFE4FF416726846B24917F037
:1036580007FE21464FF41672684617F001FE4FF434
:1036680016726846AD4917F0FBFD21464FF41672F5
:10367800684617F0F5FD4FF416726846A84917F02A
:10368800EFFD21464FF41672684617F0E9FD4FF436
:1036980016726846A34917F0E3FD21464FF41672E7
:1036A800684617F0DDFD4FF4167268469E4917F01C
:1036B800D7FD21464FF41672684617F0D1FD4FF436
:1036C80016726846994917F0CBFD21464FF41672D9
:1036D800684617F0C5FD4FF416726846944917F00E
:1036E800BFFD21464FF41672684617F0B9FD4FF436
:1036F800167268468F4917F0B3FD21464FF41672CB
:10370800684617F0ADFD4FF4167268468A4917F0FF
:10371800A7FD21464FF41672684617F0A1FD4FF435
:1037280016726846854917F09BFD21464FF41672BC
:10373800684617F095FD4FF416726846804917F0F1
:103748008FFD21464FF41672684617F089FD4FF435
:10375800167268467B4917F083FD21464FF41672AE
:10376800684617F07DFD4FF416726846764917F0E3
:1037780077FD21464FF41672684617F071FD4FF435
:1037880016726846714917F06BFD21464FF41672A0
:10379800684617F065FD4FF4167268466C4917F0D5
:1037A8005FFD21464FF41672684617F059FD4FF435
:1037B80016726846674917F053FD21464FF4167292
:1037C800684617F04DFD4FF416726846624917F0C7
:1037D80047FD21464FF41672684617F041FD4FF435
:1037E800167268465D4917F03BFD21464FF4167284
:1037F800684617F035FD4FF416726846584917F0B9
:103808002FFD21464FF41672684617F029FD4FF434
:1038180016726846534917F023FD21464FF4167275
:10382800684617F01DFD4FF4167268464E4917F0AA
:1038380017FD21464FF41672684617F011FD4FF434
:1038480016726846494917F00BFD21464FF4167267
:10385800684617F005FD4FF416726846444917F09C
:10386800FFFC21464FF41672684617F0F9FC4FF436
:10387800167268463F4917F0F3FC21464FF416725A
:10388800684617F0EDFC4FF4167268463A4917F08F
:10389800E7FC21464FF41672684617F0E1FC4FF436
:1038A80016726846354917F0DBFC21464FF416724C
:1038B800684617F0D5FC4FF416726846304917F081
:1038C800CFFC21464FF41672684617F0C9FC29460A
:1038D8004FF41672684617F0C3FC4FF4167221466F
:1038E800684617F0BDFC274811F056FF6846FDF7FB
:1038F8007DFA01466846FFF715FE0DF5177D30BDC8
:10390800CDFC050010D30500E9DC0120DDDC012039
:10391800D1DC0120C5DC0120B9DC0120A0DC0120BC
:1039280094DC012088DC0120F8DA0120C6DA0120C5
:10393800B7DA0120ABDA01209FDA012093DA0120FF
:1039480087DA01206EDA012062DA012056DA0120D6
:10395800C6D8012094D8012085D8012079D8012023
:103968006DD8012061D8012055D801203CD801200C
:1039780030D8012024D8012094D6012062D6012015
:10398800F8DD01203DD30500F0B599B001AA06463F
:103998001546154B03F1080714461868596808338B
:1039A80003C4BB422246F7D118689B882060A380D5
:1039B8000023314619222846CDF81630CDF81230AA
:1039C800CDF8193017F04CFC19222846074917F092
:1039D80047FC2A46402108A80DF020FE044808A903
:1039E80011F0DAFE19B0F0BD8CC005001EEE05001E
:1039F80052D3050030B5A1B04021194A68460DF0F0
:103A08000DFE402269460DEB020017F056FC10A887
:103A1800FDF7ECF95F24002110AA81420ADB32226B
:103A280010A9104817F049FC0E490F4811F0B4FED0
:103A380021B030BD1378A3F16105192D0CD93A2BAB
:103A480007D82E2B08D80A2B06D02B2B04D014709D
:103A580002E0413B192BFAD801310132DDE700BF02
:103A680065D30500F8DD01206ED3050030B5A1B09F
:103A780040212A4A68460DF0D1FD402269460DEBE7
:103A8800020017F01AFC10A8FDF7B0F95F24002116
:103A980010AA814217DB22492248FDF79DF938BB5D
:103AA8003222204810A917F008FC1E491E4811F0C0
:103AB80073FE1E491E4811F06FFE1E491E4811F084
:103AC8006BFE21B030BD1378A3F16105192D0CD917
:103AD8003A2B07D82E2B08D80A2B06D02B2B04D02C
:103AE800147002E0413B192BFAD801310132D0E7BA
:103AF80012490E48FDF770F918B932220B4810A97F
:103B0800D1E70F490B48FDF767F918B93222094880
:103B180010A9C8E70B4811F03FFEC6E777D30500A8
:103B2800CED10500C6DA012092D3050094D8012031
:103B3800A4D3050062D60120B6D30500D6D105006E
:103B4800DED1050082D305001FB5144811F024FE0C
:103B5800134BD3E8AF3F6BB9124A1846CDE901328F
:103B680011490322009311F05EFD05B05DF804EBE6
:103B7800FFF7C8B80D4B0322029300230A491846E1
:103B8800CDE9003311F04FFDFEF7B0FFFFF732FF2C
:103B980005B05DF804EBFFF769BF00BFC8D30500A7
:103BA8008CB20120D3D305009CBF050003D40500C7
:103BB80010B5BC4811F0F0FDBB49BC4811F0ECFD54
:103BC800BB49BC4811F0E8FDBB49BC4811F0E4FD15
:103BD800BB49B548FDF700F918B9BA49B24817F01A
:103BE80064FBB749B248FDF7F7F818B9B549B048CA
:103BF80017F05BFBB249B048FDF7EEF818B9B149C8
:103C0800AD4817F052FBFFF7F5FEAF48FDF7EEF8A9
:103C180000230246AC49AD48FFF74CF9A248FDF72E
:103C2800E5F800230246A049A848FFF743F90A210E
:103C3800A648FEF70FFFA648FDF7D8F8002302466E
:103C4800A349A248FFF736F90A21A048FEF702FF68
:103C5800A048FDF7CBF8002302469E499B48FFF792
:103C680029F90A219948FEF7F5FE9B48FDF7BEF8A9
:103C78000023024698499548FFF71CF90A21934802
:103C8800FEF7E8FE9548FDF7B1F800230246934990
:103C98008E48FFF70FF90A218C48FEF7DBFE9048A3
:103CA800FDF7A4F8002302468D498848FFF702F97A
:103CB8000A218648FEF7CEFE8A48FDF797F80023CA
:103CC800024688498148FFF7F5F80A217F48FEF740
:103CD800C1FE8548FDF78AF80023024682497B48E1
:103CE800FFF7E8F80A217948FEF7B4FE7F48FDF7A8
:103CF8007DF8002302467D497448FFF7DBF80A2166
:103D08007248FEF7A7FE6A48FDF770F800230246DE
:103D180067496E48FFF7CEF80A216C48FEF79AFE0D
:103D28007348FDF763F80023024671496748FFF7B7
:103D3800C1F80A216548FEF78DFE6E48FDF756F872
:103D4800002302466B496148FFF7B4F80A215F482F
:103D5800FEF780FE6848FDF749F8002302466649E9
:103D68005A48FFF7A7F80A215848FEF773FE634838
:103D7800FDF73CF80023024660495448FFF79AF8DB
:103D88000A215248FEF766FE5D48FDF72FF800232A
:103D980002465B494D48FFF78DF80A214B48FEF76C
:103DA80059FE5848FDF722F800230246554947486E
:103DB800FFF780F80A214548FEF74CFE5248FDF708
:103DC80015F80023024650494048FFF773F80A21C6
:103DD8003E48FEF73FFE4D48FDF708F8002302462F
:103DE8004A493A48FFF766F80A213848FEF732FE92
:103DF8003148FCF7FBFF002302462F493348FFF701
:103E080059F80A213148FEF725FE4148FCF7EEFF34
:103E1800002302463E492D48FFF74CF80A212B485B
:103E2800FEF718FE3B48FCF7E1FF0023024639493C
:103E38002648FFF73FF80A212448FEF70BFE3648CC
:103E4800FCF7D4FF0023024633492048FFF732F835
:103E58000A211E48FEF7FEFD3048FCF7C7FF002385
:103E680002462E491948FFF725F80A211748FEF798
:103E7800F1FD2B48FCF7BAFF0023024628491348F6
:103E8800FFF718F80A211148FEF7E4FD2548FCF76A
:103E9800ADFF0023024623490C48FFF70BF80A211F
:103EA80042E000BF30D40500E9DC01203BD4050026
:103EB800B7DA012048D4050085D8012055D405007B
:103EC8009BD1050062D4050010D3050069D4050014
:103ED800DDDC0120D1DC0120C5DC0120B9DC0120BA
:103EE80094DC012088DC0120F8DA0120C6DA012000
:103EF800ABDA01209FDA012093DA012087DA01206A
:103F080062DA012056DA0120C6D8012094D80120AF
:103F180079D801206DD8012061D8012055D8012019
:103F280030D8012024D801201848FEF793FD1848FE
:103F3800FCF75CFF0023024615491448FEF7BAFF58
:103F48000A211248FEF786FD1248FCF74FFF0023AE
:103F5800024610490D48FEF7ADFF0A210B48FEF74F
:103F680079FD0D48FCF742FF002302460A4907483D
:103F7800FEF7A0FF0948FCF739FFBDE810400246EC
:103F8800002306490148FEF795BF00BF69D4050024
:103F980094D6012062D60120F8DD012010D3050057
:103FA80070B5194C1948E4B22146FEF753FD18487C
:103FB800FCF71CFF0023024615491448FEF77AFF58
:103FC80021461248FEF746FD0024124D124E304697
:103FD80015F8011B013411F0DFFBB4F5FC6FF6D1C5
:103FE800094811F0D9FB00240C4D0B4E304615F84A
:103FF800011B013411F0D0FBB4F5FC6FF6D1024877
:10400800BDE8704011F0C8BBCDFC050077D40500B1
:10401800F8DC0120A6C601202FD20500D6BE01205B
:1040280010B501EA0004E10701D5FFF78DFDA207ED
:104038000FD5FFF7BDFDFFF7C1FAFFF74FFA11F0F3
:1040480022FBFFF7ADFF11F026FBFEF7E3FFFEF7BB
:10405800A5FE630704D5BDE81040024811F09CBBDB
:1040680010BD00BF87D40500F0B59FB0FEF7D2FEA3
:1040780000217E4811F0E6FA00217D4811F0E2FAAD
:1040880000217C4811F0DEFA00217B4811F0DAFAB1
:1040980000237A4917A8CDE9173302F08DFE774936
:1040A800024660B3764811F077FB0024FEF7B2FFB2
:1040B8007449754817F0F9F87449754817F0F5F818
:1040C8007449754817F0F1F8744B03222046744977
:1040D8000293CDE90044234611F0A5FA204609F0E1
:1040E8000BF8054658B36F4B0122CDE90143204632
:1040F80023466B49009411F096FA1FB0F0BD6A4848
:1041080011F04AFB694C6A4E651C684917A802F011
:10411800CBFE80B9637873B12378012B04D129468B
:10412800644811F039FBF0E729463046D4F80421F9
:1041380011F032FBE9E717A802F032FFB5E75E4855
:1041480006F04CFA50B15D4B0390CDE901530122C2
:104158002B4628465249009511F065FA002007F0D1
:10416800CFF950B1564B0390029300230122184611
:10417800CDE900334A4911F056FA002007F058FB00
:1041880050B1504B03900293002301221846CDE909
:104198000033434911F047FA4B4813F058FC0446E2
:1041A80000284BD1494B0322CDE901033C49034682
:1041B800009011F038FA4FF0FF334FF0FF324448C7
:1041C8000EF0B4FA0123434FD7E8EF2FC7E8E13FD9
:1041D8000029F9D1404B0322CDE90143204623466B
:1041E8002F49009411F01FFA4FF0FF324FF0FF33C0
:1041F8003A480EF09BFAFEF779FC2546384E394CC2
:104208004FF0FF324FF0FF3330460EF08FFA002D9B
:1042180000F06E82344811F0BFFAA36801336BD105
:104228000025324B022228461D490293CDE900554C
:104238002B4611F0F8F9FEF765FDE1E700252C4B58
:104248000390029328462B460122CDE900551449D4
:1042580011F0E9F9274B0122CDE9015328462B46F5
:104268000F490394009511F0DEF946E7C0C1050037
:10427800B8C10500B0C10500A8C10500E1D005001E
:1042880092D40500A1D10500A0DC0120A9D1050028
:104298006EDA0120B1D105003CD80120E4D4050034
:1042A8009CBF0500F9D40500ADD4050070B001200D
:1042B800CCD40500C2D40500294004002ED5050041
:1042C80059D505007AD50500312B04009CD5050089
:1042D80000AC01208CB20120D8D5050018AC012013
:1042E800E8AB012000A5012046D605005ED60500F2
:1042F800F1D505001AD605009D4811F04DFA216840
:104308009C4811F049FA61689B4811F045FAA16888
:104318009A4811F041FAE168994811F03DFA21698B
:10432800984811F039FAA18A974811F035FAD4E97A
:104338000823964811F030FA218D954811F02CFA8F
:10434800B4F92A10934811F027FAB4F92C109248BE
:1043580011F022FAA3681422002100930DA88F4BB4
:1043680016F01FFFA38A14220021009312A88B4B7A
:1043780016F017FF23680D220021009305A8884B2B
:1043880016F00FFF63680D220021009309A8844BE3
:1043980016F007FF192205A917A816F08EFF192293
:1043A80009A917A816F05CFF4FF6FF73A28A9A4274
:1043B80000F08E817B497C4816F0CCFF002800F085
:1043C8008480A3680F22002100937748734B16F06E
:1043D800E8FE23680C22002100937448704B16F005
:1043E800E0FE63680C220021009371486C4B16F0C4
:1043F800D8FEE3680C22002100936E48674B16F044
:10440800D0FEA38A0C22002100936B48634B16F060
:10441800C8FEB4F92A300C220021009367485F4B8C
:1044280016F0BFFEB4F92C300C220021009364482A
:104438005A4B16F0B6FE19225C49624816F03DFF49
:1044480019225B495F4816F00BFF5F4811F0A4F989
:1044580055495E4811F0A0F95D495E4811F09CF994
:104468005D495E4811F098F956495D4811F094F994
:104478005C495D4811F090F95C495D4811F08CF990
:104488004849494816F066FF58B94649504816F059
:1044980061FF30B94349504816F05CFF08B9FEF790
:1044A80057FC5449474816F055FF5349002800F077
:1044B80032814C4816F04EFF002800F00B814F481F
:1044C800FCF794FC01464D4809E13649404816F08E
:1044D80041FF002800F0A0803A4817A916F03AFFDB
:1044E8000546002840F09880A36801460F220093F3
:1044F80037482A4B16F055FE23680C2229460093AC
:104508003F48274B16F04DFE63680C22294600935E
:104518003C48234B16F045FEE3680C2229460093DD
:1045280039481E4B16F03DFEA38A0C2229460093FB
:1045380036481A4B16F035FEB4F92A300C222946B3
:1045480000933348154B16F02CFEB4F92C300C228E
:10455800294600932F48114B16F023FE19222849AB
:10456800204816F0AAFE192226491E486BE700BF0C
:1045780072D6050081D605008DD6050099D60500AE
:10458800A7D60500B1D60500BED60500D3D60500CE
:10459800ECD6050003D705000ED70500FFFD050082
:1045A80019D705009BD10500E9DC0120DDDC0120DD
:1045B800D1DC0120C5DC0120B9DC012094DC01201C
:1045C80088DC0120A0DC012052D705003BD405007F
:1045D800B7DA012048D4050085D8012055D4050054
:1045E8006CD705006EDA01207ED705003CD8012083
:1045F80090D70500A2D70500A9D70500B0D70500B8
:10460800ABDA01209FDA012093DA012087DA012052
:1046180062DA012056DA01205649574816F09AFE08
:1046280000284FD0554817A916F094FE002849D104
:10463800534817A916F08EFE0546002842D1A368F4
:1046480001460F2200934C484E4B16F0AAFD2368F2
:104658000C22294600934C484C4B16F0A2FD636887
:104668000C22294600934A48484B16F09AFDE36805
:104678000C22294600934748424B16F092FDA38A24
:104688000C222946009344483E4B16F08AFDB4F9A3
:104698002A300C222946009340483A4B16F081FDF7
:1046A800B4F92C300C22294600933D48354B16F0BE
:1046B80078FD192234493B4816F0FFFD1922344988
:1046C8003848C0E6384811F067F8FEF71BFBBCE62F
:1046D8003648F8E73648FCF789FB01463448FFF7C7
:1046E80053F94FF0FF324FF0FF3330460EF01EF80B
:1046F800304811F051F8D7E8AF3F43B92E4A184671
:10470800CDE901322D490322009310F08CFFFEF70A
:10471800EDF9012574E5194816F01CFE60B1284929
:10472800174816F017FE00287FF4C9AE2448FCF796
:104738005DFB01462248D2E72249104816F00AFEDE
:1047480088B11F490E4816F005FE60B11848FCF7FD
:104758004DFB01461648FFF717F94FF0FF324FF0AF
:10476800FF331948C2E71648FCF740FB01461448D6
:10477800F1E700BF9BD1050085D80120A0DC01200E
:104788006EDA0120FFFD050079D8012019D7050050
:104798006DD8012061D8012055D8012030D80120DA
:1047A80024D801203CD801201ED7050039D70500A0
:1047B800A9D70500B7D70500D3D305009CBF0500CE
:1047C800A2D70500B0D70500E8AB01202DE9F04FCE
:1047D80091B0009302F004030293C2F3C2030133C1
:1047E800840705460E46DDF868800392059340F07D
:1047F800BD81041D30B1072909D86FF01B0011B025
:10480800BDE8F08F01F00706341DC6F10806009BCD
:104818004FF000094FF0040A591E4FF0FF334F467E
:104828000193CB465346CDF810900DB10098206007
:104838000598002800F3EB809948009A824203D338
:1048480098488242C0F0E380039AA4EB050E9207D1
:104858004FEA9E0000F106810F2F00F2B480002D70
:1048680000F0088107F140020DEB020C019A0CF8E8
:10487800200C0CF8102C049801300490EAE07A28F7
:1048880060D84B280ED847285CD829282FD8252847
:1048980055D057D820287DD02338D0F1000B4BEBCA
:1048A800000B77E0A0F14C0CBCF12E0F4AD8DFE8E2
:1048B8000CF07149494949494949494949494C49CB
:1048C800494949494949495A494C4C5A5A5A714CDB
:1048D8006E497149184C18494983804C49494C49DB
:1048E800800000204FF0000B4FF0040A39E001224D
:1048F800A0F12A0C5FFA8CFC02FA0CFC1CEA0E0FE1
:1049080048D11CF062502ED11CEA020B42D0013C67
:104918005444CAF1000C04EA0C04002D61D0A3EB46
:10492800050CA4446645FFF468AF002868D1042B41
:1049380047D158F8043B2360042304342AE0019A41
:10494800013A01924FF0000B24E011F8010C6C2899
:1049580034D1002011F8023C83466C2BC4D14FF0AF
:10496800080A5346D3E708F1070828F00708073470
:1049780024F00704F8E802AB35B106982044B042A9
:104988003FF63BAFC4E900AB4FF0000B08344FF0E3
:10499800080A534611F8010F002878D0BBF1000F20
:1049A8007FF46DAF2528F5D14FF0010B019B013342
:1049B80001934FF0040AECE7584693E7002083463A
:1049C800A5E7082B02D06FF0150018E708F10708D3
:1049D80028F00708B8EC027B84ED007B0823083434
:1049E800D8E768B9042B02D108F10408A4E7082B1A
:1049F800E9D108F1070828F0070808F10808EDE7E9
:104A080005980138059058F8040B00900DE7039AB3
:104A1800900720D54FF0010CA4EB050E4FEA9E003D
:104A2800BEF5007FCFD20F2FCDD8F5B107F14002E8
:104A38000DEB020E019AC0B20EF8200C0EF8102CE5
:104A4800BCF1000F3FF417AF60F07F000EF8200CA8
:104A580009F101090137C5F108024FF6DA7E04347D
:104A6800069297E74FF0000CDAE7BCF1000F01D08F
:104A78000136EFE7029A0236002AEBD10098CDE919
:104A88000631FCF7B3F9DDE906310644E2E7631BBA
:104A9800B3F5806F97D23DB9A6F10804E018AEE6E9
:104AA80028BB0500340C0600029A9B0828602B706E
:104AB8009DF81030C2B1EB7085F80290B9F1000F83
:104AC80005D0002208A8C5F1010C97420ED14FF07D
:104AD800000AC5F101030DF1200801930DF1300B17
:104AE800574512D1601B8AE66B70E5E710F8013B69
:104AF800190608D504EB0C0E764503F07F03FFF486
:104B08007CAE04F8013B0132DFE7B9F1000F03D0B6
:104B180098F90020002A17DB029BD3B11AF80B2062
:104B280004F8012B0022019B981820448642FFF4C8
:104B380064AE98F80000009904F8010B204603922F
:104B480016F0CCF9039A14440AF1010A08F1010895
:104B5800C6E798F8002055F822300093029B009889
:104B680045F82230FCF742F9421CDCE76FF00D00F3
:104B780045E600BF032808B506D911F0FCFA092359
:104B880003604FF0FF3008BD044B03EB4013D3E83C
:104B9800AF3F002BF1D00020F5E700BFD4B40120CF
:104BA80070B504460D461646FFF7E4FF002809DBFA
:104BB800064B600145B11A185268AA4204D011F098
:104BC800DAFA0660002070BD1858FCE7CCB4012062
:104BD80010B500244FF0FF334FF0FF3214480DF0AA
:104BE80095FC144BD3E8AF2F7AB10134042C03F1B0
:104BF8002003F7D111F0BFFA17234FF0FF340360F9
:104C08000B480DF0FDFC204610BDD3E8EF0F013036
:104C1800C3E8E10F0029F8D10748630100EB44110C
:104C2800C2504A600C33184415F03EFEE8E700BF56
:104C380070AB0120D4B40120CCB4012010B40446D8
:104C480010460A4B620103EB44149950606048B166
:104C5800C4683CB10C3213445DF8044B40F20512B1
:104C680010F076BD5DF8044B704700BFCCB401204E
:104C780030B50D49400100F108030B44D3E8AF2FCC
:104C880082B1541ED3E8EF5F954204D1C3E8EC4FDC
:104C9800BCF1000FF6D1F1D1012A01BF00230A1897
:104CA8000B50536030BD00BFCCB40120014B1B68D2
:104CB800184700BF64A50120014B1860704700BF6A
:104CC80064A5012007B50B46002102460091034860
:104CD800FCF796F803B05DF804FB00BFB54C040080
:104CE80030B5002587B0CDE903010446009503A936
:104CF80005480595FCF784F8DDE904309842B8BF0B
:104D0800255407B030BD00BF7B5705002DE9F0479B
:104D1800058B04462807904611D4022905F007059B
:104D280040F0CD80204610F020FF78B10138218B6B
:104D3800042811D8DFE800F0C3106D85950001291B
:104D48000CBF45F0100545F02005258388F3118830
:104D5800BFF36F8FBDE8F08701F0070AAA4500F09E
:104D6800A6800027B9463E46A368002B00F0BD8008
:104D780041F00801218388F31188BFF36F8FA16880
:104D8800002900F0BB800D68002900F0B780334689
:104D980052462046D1F80480C047002D76D02B68B3
:104DA80029461D46F0E701F007035A1F012A1BD8C0
:104DB800002221F00701062B276889B2C4E90022E6
:104DC80009D13B4603E0628B013262831B68002BEA
:104DD800F9D141F002012046218310F0C6FE0028D7
:104DE8007BD041F0200177E0042B0AD121F00701A4
:104DF80089B22046218310F0B8FE10B141F020019D
:104E08002183218B01F0070AAA4550D00027B94613
:104E1800AAE7236921F0070141F00601062DD3F81E
:104E2800009021832DD1B9F1000F40D041F0080145
:104E3800218388F31188BFF36F8F20463949C8470B
:104E480029E021F00701236941F0040189B2042D0A
:104E5800D3F804902183E6D000274FF0040A3E4699
:104E680082E721F00701236941F0050189B2052D88
:104E7800D3F808902183D6D000274FF0050A3E4684
:104E880072E700274FF0060A3E466DE72B4687E794
:104E9800B9F1000FD1D14FF02003EFF3118883F35C
:104EA8001288BFF36F8F238B23F008032383258B8E
:104EB800EA062ED525F01003238305F00705666959
:104EC800218B002EBFF66FAF00232768C4E900339B
:104ED80021F0070141F001012183218B4FF00009E6
:104EE80001F0070AAA457FF43FAF002F9BD041F09D
:104EF8000801218388F31188BFF36F8F002FC7D073
:104F08003D68394633465246204610F05AFE2F4631
:104F1800F4E7AB067FF51AAF25F02003238305F0ED
:104F28000705FFE6F75B0500F0B5024601680A27AA
:104F38000020074E0B461C780131355D6D0701D402
:104F48001360F0BD07FB0043A3F13000F2E700BF98
:104F58008D0906002DE9F84F15469A46D378224A5E
:104F68006F2B12F803B080460F460BF0030B29D0C5
:104F780024D8582B0CBF10260A26DDF82890324674
:104F8800002340463946FBF7BFFD092AD4B21ED894
:104F98003034B045E4B277F1000709F8014D01D388
:104FA800D14511D82B789B0605D5082E15D1AB789D
:104FB80043F00803AB704846BDE8F88F03F0F703E9
:104FC800702BD7E70826D8E780460F46D7E7BBF10E
:104FD800010F0CBF37345734DBE7102EEBD1AB7819
:104FE80043F01003E6E700BF8D0906004FF02002EA
:104FF800EFF3118382F31288BFF36F8F0121044A04
:10500800C2F8401583F31188BFF36F8F00207047F3
:105018000090034020B1034B800143F0010318477F
:10502800704700BFB0C005000AF046B92DE9F84F37
:1050380081462F480F4610F0DEFE064670B92D4C0B
:105048000546A0464FF0010BDFF8ACA0544507D346
:10505800B9F1000F02D04FF0010AE5B9BDE8F88FA9
:10506800237B73B12368DB680BB12046984723681C
:105078001B6943B9636804222046196800F0C0F828
:1050880001361034E2E7204698470028F2D00BFAA0
:1050980006F31D43F4E7A94695FAA5F4B4FA84F497
:1050A8000AFA04F3260108EB04146FEA030B25EA55
:1050B8000305237B63B158F806301B6993B946444E
:1050C800736804222046196809EA0B0900F098F869
:1050D800002DE1D127B14FF4A47000210DF012FF8B
:1050E8004D46BAE7204698470028F1D1E7E700BFC8
:1050F80054B5012054C0050064C00500014B53F8A5
:1051080020007047C8C1050008B5034608462BB102
:10511800044A136000F07CFA002008BD6FF0150007
:10512800FBE700BF68A501200023044A4FF40041B3
:105138001370034A03481360FFF7E6BF2ADE012015
:105148004CB50120FB5D050070B50B4D297841B9C0
:105158000120FFF76BFF094C094EB44202D301232B
:105168002B7070BD63685B791BB1236820469B6810
:1051780098471034F1E700BF2ADE012054C005002B
:1051880064C0050010B50446064810F034FE3CB172
:10519800054BD3E8EF1F0139C3E8E21F002AF8D115
:1051A80010BD00BF4CB5012050B5012070B50A4BA9
:1051B80005461B689847094C094EA860B44200D3BD
:1051C80070BD63685B7923B12368294620461B6854
:1051D80098471034F2E700BF68A5012054C00500C5
:1051E80064C00500044A054B9B1AB1EBD30F34BFCA
:1051F80052F831000020704734BF050054C0050044
:10520800084B10B4C31A44681B1101332371436857
:105218009A7101224368196043685A715DF8044B1A
:1052280010F0F9BD54C005002DE9F04F85B002AF6C
:105238000446D7E90EA90E46934698463D6BBAF147
:10524800000F35D0C7F80490CDF8009010215346D0
:1052580000207A6BFFF7BAFA0146164A04F00704F1
:105268000BF0070BE40002EA412244EA8B141443D2
:10527800114A02EAC54217350D4425F00705ADEB82
:10528800050D144302ADBAF1000F07D0CDF8009018
:1052980053467A6B05F11000FFF798FA4346224609
:1052A8003146284610F0BAFD0C37BD46BDE8F08FF0
:1052B8005146D2E700FE07000000F87F0EB403B5A0
:1052C80003AB53F8042B01460448019310F0E9FDA1
:1052D80002B05DF804EB03B0704700BF595E0500EB
:1052E800CA0605D48B064CBF02490349FFF7E6BF3F
:1052F800704700BFCDFC0500CCFC05002DE9F04F40
:105308008BB09A46DDE915739DF850B00693179B4C
:1053180004460D46189E08920593BBF1000F00F055
:10532800858006F00103099306F00803079310F03F
:1053380073FD06F002090246002847D0204684493A
:10534800FFF7BCFF8046B9F1000F08D016F0440FF4
:105358003ED12A4620467F49FFF7B0FF8044099B8B
:1053680053B17D4B204653F82B207C4B7C49002AB7
:1053780008BF1A46FFF7A2FF079B002B54D0794BB2
:10538800204653F82B207849FFF798FF0546089BDD
:105398002BB11A4620467549FFF790FF0544BAF12C
:1053A800000F05D0524620467149FFF787FF054494
:1053B8004544002F48D1059B002B4ED1F30700F13F
:1053C800C08031462046FFF78BFFB4E08046BAE73D
:1053D800684B18680028C1D0674B4FF47A791B686E
:1053E8004FF46161B5FBF3F5B5FBF0F300FB135522
:1053F80009FB05F5B3FBF1F2B5FBF0FE4FF03C0CF1
:1054080001FB123100FB1E55B1FBFCF309FB05F54E
:10541800B5FBF0F50CFB131120460091CDE901E531
:105428005649FFF74BFF99E7079DB0E7BAF1010F1F
:1054380006D1002F65D1059B002B7CD000250CE000
:10544800002FF8D04E485DE04E483B4622464E4974
:1054580010F029F9059B002B69D0DFF84081DFF8AF
:105468004091059F3146102F204628BF10274FF046
:10547800000AFFF735FF554546DC069B494620469E
:105488001A78FFF71BFF4FF0010A1AF0070F03D134
:1054980041462046FFF712FF57453CD9069B49462F
:1054A800204613F80A20FFF709FF0AF1010ABAF1AA
:1054B800100FEAD14FF0000A20463449FFF7FEFEEC
:1054C8005246069B20469A5C314B995C11F0970F27
:1054D80008BF2E222F49FFF7F1FE0AF1010ABAF19F
:1054E800100F1DD01AF0070F03D141462046FFF7D1
:1054F800E5FE57455246E4D841462046FFF7DEFE12
:10550800EBE720485D46A0E741462046FFF7D6FE78
:105518000AF1010AAFE720461F49FFF7CFFEC4E7AB
:10552800069B3B440693059BDB1B059399D1BBF176
:10553800000F7FF443AF20460BB0BDE8F04F10F0EA
:10554800B7BC2046054A0649FFF7B8FE39E700BF51
:1055580002D8050006D80500D8C10500FDD705000A
:1055680062D30500ECC105002BD8050031D8050031
:1055780035D805005CB5012058B501200FD80500C5
:10558800755E0500595E0500AB5E05003AD805005A
:105598008D0906009BF00500C20706002ED1050004
:1055A8002FD205002DE9F0410F884B6805460C46BF
:1055B80090468E6886B0C7F382175BB1134A9B1A70
:1055C80043F3CF0100291FDB2078C0F3C200FFF7A7
:1055D80009FE0346214651F8102B6088C2F3492280
:1055E800002A01EB020408BF0021C0F3CB00CDE97B
:1055F8000308CDE901140022314628460097FFF739
:105608007DFE06B0BDE8F0810023E3E734BF050066
:1056180000210123064A904206D8064A01B901230F
:105628001360054B18607047012140085B00F2E7E2
:1056380040420F0058B501205CB50120014B002005
:105648001960704774B501200122024B02481A7094
:1056580010F02EBC2CDE01201CC2050010B5064B34
:105668000C461868FFF74AFD2146BDE8104003467E
:105678000F220248184700BF74B501201CC205005C
:10568800F8B50D460446064F4618B44201D12846DF
:10569800F8BD14F8011BBB6801485B689847F4E73C
:1056A80054BC050008B5044815F0FEF8034B00206B
:1056B800C3E9003308BD00BF78B501208CB50120CF
:1056C800F8B50646FBF792FB0546124F4FF0FF323E
:1056D8004FF0FF3310480CF019FF3C68BC420AD168
:1056E800002412E0A068FBF781FBA84206D07B6883
:1056F8009C42F5D02468002CF4D1F1E72A463046C4
:10570800A16815F0F6FD0028F1D103480CF078FFE8
:105718002046F8BD8CB5012078B501201FB5044698
:105728004FF0FF324FF0FF3312480CF0EFFE0CB190
:10573800A06888B9104B0293002301221846CDE9CE
:1057480000330E4910F0C2FB6FF0150409480CF045
:1057580057FF204604B010BDFFF7B2FF08B1084B51
:10576800E9E7084B5A68C4E9003214605C600446F3
:10577800ECE700BF78B5012076D8050054BF0500D6
:105788008FD805008CB501202DE9F04105460E465D
:105798001746104CDFF84080444507D310F0EBFC67
:1057A8006A2303604FF0FF30BDE8F0812368AB4205
:1057B80000D063B93A4631462846A368984730B1C5
:1057C8003A4631462846E368BDE8F04118471034A8
:1057D800E2E700BF24BF050034BF0500014B186095
:1057E800704700BF94B501202DE9F84305464FF0F6
:1057F8002003EFF3118683F31288BFF36F8F4FF006
:105808000C090D4B0D4F1C68DFF834802CB986F35A
:105818001188BFF36F8FBDE8F883D4E90123002D09
:1058280018BF13462BB198F8142009FB02F2B85C94
:1058380098472468EAE700BFB4B50120A8B501205D
:1058480078BC012070B5084D084E2C68013C002C2E
:1058580002DA00232B6070BD56F82400012100F005
:10586800BDF9013CF3E700BF98B50120B4AA0120B7
:105878007FB50BAB05930393054B012202930023DD
:105888001846CDE90033FFF7CFFC07B05DF804FBFD
:10589800B8D80500012270B5164B1C7D04F01F0313
:1058A8009A40D043144B610903EB8103D3E8EF1FFF
:1058B80001EA0005C3E8E65F002EF7D10A4213D0DB
:1058C8000E4B0F4D8BB10C236343EA185178E85CFB
:1058D80010F087FA0020FFF787FF0C235C430023B2
:1058E8002A192B51C2E9013370BD83F31188BFF324
:1058F8006F8FEFE778BC0120BCB50120EB5D050098
:10590800A8B5012010B54FF02003EFF3118483F3FD
:105918001288BFF36F8F0C22054B02FB003307C9B7
:1059280083E8070084F31188BFF36F8F012010BD4F
:105938009CB501202DE9F0476D4B06461C7D88B0CB
:105948004FF02003EFF3118783F31288BFF36F8FB3
:105958000C256543674BDFF8C081595D5A1900294A
:1059680072D007CA08EB050C8CE8070000225A55CC
:1059780087F31188BFF36F8F0C23634308EB03028F
:1059880018F80330002B00F0A580731C0FD04FF4DB
:10599800004000219768584D0023E7FB0051574A03
:1059A8002846FBF7B1F80121301A15F095F90C23B8
:1059B800634318F80330524F012B16D0D7E8EF5F36
:1059C800013DC7E8E35F002BF8D175B907A80CF0D3
:1059D80011FB1C235843DFF844A11C38CAF80050B7
:1059E800079D0544079B9D4239D20DF0CDF9012052
:1059F800FFF7FAFE434B620903EB8203012204F02E
:105A08001F018A40D3E8EF0F1043C3E8E10F0029D4
:105A1800F8D13D4B43B10C235C4308EB04035978A0
:105A280018F8040010F0D1F9D7E8EF3F5A1CC7E87E
:105A3800E12F0029F8D10BB9FFF704FFFFF72AFF80
:105A48000DF0B6F9012046E00146204600F068F85E
:105A580000288DD007C8454485E8070088E7284610
:105A680010F0AAFA002841D1284610F0B5FA00280B
:105A78003CD1284610F0A8FA0646B8BB014628468D
:105A880000F0ACF820F02003783381462ED010F1D6
:105A9800860F2BD0002821DA01202D6800F092F81B
:105AA8001A4B0122CDE90409CDE90163304633469A
:105AB800174903950096FFF7DBFEFFF7C3FE0C239B
:105AC800634308F80360D7E8EF3F0133C7E8E23FD4
